{
  "contractName": "CasaApostas",
  "abi": [
    {
      "anonymous": false,
      "inputs": [
        {
          "indexed": false,
          "internalType": "uint256",
          "name": "eventoId",
          "type": "uint256"
        },
        {
          "indexed": false,
          "internalType": "address",
          "name": "apostador",
          "type": "address"
        },
        {
          "indexed": false,
          "internalType": "uint256",
          "name": "opcao",
          "type": "uint256"
        },
        {
          "indexed": false,
          "internalType": "uint256",
          "name": "valor",
          "type": "uint256"
        }
      ],
      "name": "ApostaFeita",
      "type": "event"
    },
    {
      "anonymous": false,
      "inputs": [
        {
          "indexed": false,
          "internalType": "uint256",
          "name": "id",
          "type": "uint256"
        },
        {
          "indexed": false,
          "internalType": "address",
          "name": "criador",
          "type": "address"
        },
        {
          "indexed": false,
          "internalType": "string[]",
          "name": "opcoes",
          "type": "string[]"
        },
        {
          "indexed": false,
          "internalType": "string",
          "name": "descricao",
          "type": "string"
        },
        {
          "indexed": false,
          "internalType": "uint256",
          "name": "prazo",
          "type": "uint256"
        }
      ],
      "name": "EventoCriado",
      "type": "event"
    },
    {
      "anonymous": false,
      "inputs": [
        {
          "indexed": false,
          "internalType": "uint256",
          "name": "eventoId",
          "type": "uint256"
        },
        {
          "indexed": false,
          "internalType": "uint256",
          "name": "resultado",
          "type": "uint256"
        }
      ],
      "name": "EventoEncerrado",
      "type": "event"
    },
    {
      "anonymous": false,
      "inputs": [
        {
          "indexed": false,
          "internalType": "uint256",
          "name": "eventoId",
          "type": "uint256"
        },
        {
          "indexed": false,
          "internalType": "uint256",
          "name": "resultado",
          "type": "uint256"
        }
      ],
      "name": "ResultadoDefinido",
      "type": "event"
    },
    {
      "anonymous": false,
      "inputs": [
        {
          "indexed": true,
          "internalType": "address",
          "name": "usuario",
          "type": "address"
        },
        {
          "indexed": false,
          "internalType": "uint256",
          "name": "valor",
          "type": "uint256"
        }
      ],
      "name": "SaldoSacado",
      "type": "event"
    },
    {
      "inputs": [
        {
          "internalType": "uint256",
          "name": "",
          "type": "uint256"
        }
      ],
      "name": "eventos",
      "outputs": [
        {
          "internalType": "uint256",
          "name": "id",
          "type": "uint256"
        },
        {
          "internalType": "address",
          "name": "criador",
          "type": "address"
        },
        {
          "internalType": "string",
          "name": "descricao",
          "type": "string"
        },
        {
          "internalType": "uint256",
          "name": "prazo",
          "type": "uint256"
        },
        {
          "internalType": "bool",
          "name": "finalizado",
          "type": "bool"
        },
        {
          "internalType": "uint256",
          "name": "resultado",
          "type": "uint256"
        },
        {
          "internalType": "bool",
          "name": "encerrado",
          "type": "bool"
        }
      ],
      "stateMutability": "view",
      "type": "function",
      "constant": true
    },
    {
      "inputs": [],
      "name": "proximoIdEvento",
      "outputs": [
        {
          "internalType": "uint256",
          "name": "",
          "type": "uint256"
        }
      ],
      "stateMutability": "view",
      "type": "function",
      "constant": true
    },
    {
      "inputs": [
        {
          "internalType": "address",
          "name": "",
          "type": "address"
        }
      ],
      "name": "saldos",
      "outputs": [
        {
          "internalType": "uint256",
          "name": "",
          "type": "uint256"
        }
      ],
      "stateMutability": "view",
      "type": "function",
      "constant": true
    },
    {
      "inputs": [
        {
          "internalType": "uint256",
          "name": "eventoId",
          "type": "uint256"
        }
      ],
      "name": "getOpcoes",
      "outputs": [
        {
          "internalType": "string[]",
          "name": "",
          "type": "string[]"
        }
      ],
      "stateMutability": "view",
      "type": "function",
      "constant": true
    },
    {
      "inputs": [
        {
          "internalType": "string",
          "name": "descricao",
          "type": "string"
        },
        {
          "internalType": "string[]",
          "name": "opcoes",
          "type": "string[]"
        },
        {
          "internalType": "uint256",
          "name": "prazo",
          "type": "uint256"
        }
      ],
      "name": "criarEvento",
      "outputs": [
        {
          "internalType": "uint256",
          "name": "",
          "type": "uint256"
        }
      ],
      "stateMutability": "nonpayable",
      "type": "function"
    },
    {
      "inputs": [
        {
          "internalType": "uint256",
          "name": "eventoId",
          "type": "uint256"
        },
        {
          "internalType": "uint256",
          "name": "resultado",
          "type": "uint256"
        }
      ],
      "name": "encerrarEvento",
      "outputs": [],
      "stateMutability": "nonpayable",
      "type": "function"
    },
    {
      "inputs": [],
      "name": "depositar",
      "outputs": [],
      "stateMutability": "payable",
      "type": "function",
      "payable": true
    },
    {
      "inputs": [],
      "name": "getSaldo",
      "outputs": [
        {
          "internalType": "uint256",
          "name": "",
          "type": "uint256"
        }
      ],
      "stateMutability": "view",
      "type": "function",
      "constant": true
    },
    {
      "inputs": [
        {
          "internalType": "uint256",
          "name": "eventoId",
          "type": "uint256"
        },
        {
          "internalType": "uint256",
          "name": "opcao",
          "type": "uint256"
        }
      ],
      "name": "apostar",
      "outputs": [],
      "stateMutability": "payable",
      "type": "function",
      "payable": true
    },
    {
      "inputs": [
        {
          "internalType": "uint256",
          "name": "eventoId",
          "type": "uint256"
        }
      ],
      "name": "getResultado",
      "outputs": [
        {
          "internalType": "string",
          "name": "",
          "type": "string"
        }
      ],
      "stateMutability": "view",
      "type": "function",
      "constant": true
    },
    {
      "inputs": [],
      "name": "sacarSaldo",
      "outputs": [],
      "stateMutability": "nonpayable",
      "type": "function"
    },
    {
      "inputs": [],
      "name": "getNumEventos",
      "outputs": [
        {
          "internalType": "uint256",
          "name": "",
          "type": "uint256"
        }
      ],
      "stateMutability": "view",
      "type": "function",
      "constant": true
    }
  ],
  "bytecode": "0x608060405234801561000f575f80fd5b506122c78061001d5f395ff3fe6080604052600436106100a6575f3560e01c8063bae9784711610063578063bae97847146101c2578063c2c0c512146101d8578063c68c061214610214578063e2eec9a714610250578063ef7515c31461027a578063f2f6da3e146102a2576100a6565b806301161766146100aa57806302d0b7e3146100d4578063087e9d0f146100fe5780631e4ecc17146101405780633d922f901461017c5780636521e7df14610186575b5f80fd5b3480156100b5575f80fd5b506100be6102be565b6040516100cb9190611185565b60405180910390f35b3480156100df575f80fd5b506100e86102c3565b6040516100f59190611185565b60405180910390f35b348015610109575f80fd5b50610124600480360381019061011f91906111d9565b6102cb565b60405161013797969594939291906112e7565b60405180910390f35b34801561014b575f80fd5b50610166600480360381019061016191906111d9565b6103c6565b604051610173919061135b565b60405180910390f35b6101846104e2565b005b348015610191575f80fd5b506101ac60048036038101906101a79190611589565b610579565b6040516101b99190611185565b60405180910390f35b3480156101cd575f80fd5b506101d66106fb565b005b3480156101e3575f80fd5b506101fe60048036038101906101f991906111d9565b6108ba565b60405161020b9190611714565b60405180910390f35b34801561021f575f80fd5b5061023a6004803603810190610235919061175e565b6109a2565b6040516102479190611185565b60405180910390f35b34801561025b575f80fd5b506102646109b7565b6040516102719190611185565b60405180910390f35b348015610285575f80fd5b506102a0600480360381019061029b9190611789565b6109fb565b005b6102bc60048036038101906102b79190611789565b610d18565b005b5f5481565b5f8054905090565b6001602052805f5260405f205f91509050805f015490806001015f9054906101000a900473ffffffffffffffffffffffffffffffffffffffff1690806002018054610315906117f4565b80601f0160208091040260200160405190810160405280929190818152602001828054610341906117f4565b801561038c5780601f106103635761010080835404028352916020019161038c565b820191905f5260205f20905b81548152906001019060200180831161036f57829003601f168201915b505050505090806004015490806005015f9054906101000a900460ff169080600601549080600b015f9054906101000a900460ff16905087565b60605f60015f8481526020019081526020015f209050806005015f9054906101000a900460ff1661042c576040517f08c379a000000000000000000000000000000000000000000000000000000000815260040161042390611894565b60405180910390fd5b5f8160060154905081600301818154811061044a576104496118b2565b5b905f5260205f2001805461045d906117f4565b80601f0160208091040260200160405190810160405280929190818152602001828054610489906117f4565b80156104d45780601f106104ab576101008083540402835291602001916104d4565b820191905f5260205f20905b8154815290600101906020018083116104b757829003601f168201915b505050505092505050919050565b5f3411610524576040517f08c379a000000000000000000000000000000000000000000000000000000000815260040161051b9061194f565b60405180910390fd5b3460025f3373ffffffffffffffffffffffffffffffffffffffff1673ffffffffffffffffffffffffffffffffffffffff1681526020019081526020015f205f828254610570919061199a565b92505081905550565b5f60018351116105be576040517f08c379a00000000000000000000000000000000000000000000000000000000081526004016105b590611a17565b60405180910390fd5b428211610600576040517f08c379a00000000000000000000000000000000000000000000000000000000081526004016105f790611a7f565b60405180910390fd5b5f60015f805481526020019081526020015f2090505f54815f018190555033816001015f6101000a81548173ffffffffffffffffffffffffffffffffffffffff021916908373ffffffffffffffffffffffffffffffffffffffff160217905550848160020190816106719190611c3a565b508381600301908051906020019061068a92919061109b565b508281600401819055507f213389403211e2d8f09e41f6f892e95c3853d6b428f9ff25630a765d88d6b0725f54338688876040516106cc959493929190611d09565b60405180910390a15f805490505f808154809291906106ea90611d68565b919050555080925050509392505050565b5f60025f3373ffffffffffffffffffffffffffffffffffffffff1673ffffffffffffffffffffffffffffffffffffffff1681526020019081526020015f205490505f811161077e576040517f08c379a000000000000000000000000000000000000000000000000000000000815260040161077590611df9565b60405180910390fd5b5f60025f3373ffffffffffffffffffffffffffffffffffffffff1673ffffffffffffffffffffffffffffffffffffffff1681526020019081526020015f20819055505f3373ffffffffffffffffffffffffffffffffffffffff16826040516107e590611e44565b5f6040518083038185875af1925050503d805f811461081f576040519150601f19603f3d011682016040523d82523d5f602084013e610824565b606091505b5050905080610868576040517f08c379a000000000000000000000000000000000000000000000000000000000815260040161085f90611ea2565b60405180910390fd5b3373ffffffffffffffffffffffffffffffffffffffff167f5fc3b54c181812cec14a4124731c2237ac79ece8eb1febb924fbd79dd36d4ae5836040516108ae9190611185565b60405180910390a25050565b606060015f8381526020019081526020015f20600301805480602002602001604051908101604052809291908181526020015f905b82821015610997578382905f5260205f2001805461090c906117f4565b80601f0160208091040260200160405190810160405280929190818152602001828054610938906117f4565b80156109835780601f1061095a57610100808354040283529160200191610983565b820191905f5260205f20905b81548152906001019060200180831161096657829003601f168201915b5050505050815260200190600101906108ef565b505050509050919050565b6002602052805f5260405f205f915090505481565b5f60025f3373ffffffffffffffffffffffffffffffffffffffff1673ffffffffffffffffffffffffffffffffffffffff1681526020019081526020015f2054905090565b5f60015f8481526020019081526020015f20905080600401544211610a55576040517f08c379a0000000000000000000000000000000000000000000000000000000008152600401610a4c90611f0a565b60405180910390fd5b80600b015f9054906101000a900460ff1615610aa6576040517f08c379a0000000000000000000000000000000000000000000000000000000008152600401610a9d90611f72565b60405180910390fd5b600181600b015f6101000a81548160ff0219169083151502179055508181600601819055505f816007015f8481526020019081526020015f205490505f805b8360030180549050811015610b3057848114610b1d57836007015f8281526020019081526020015f205482610b1a919061199a565b91505b8080610b2890611d68565b915050610ae5565b505f821115610cd8575f5b83600a0180549050811015610cd6575f84600a018281548110610b6157610b606118b2565b5b905f5260205f2090600302016040518060600160405290815f82015f9054906101000a900473ffffffffffffffffffffffffffffffffffffffff1673ffffffffffffffffffffffffffffffffffffffff1673ffffffffffffffffffffffffffffffffffffffff16815260200160018201548152602001600282015481525050905085816020015103610c67575f83858360400151610bff9190611fbd565b610c099190611fed565b90508060025f845f015173ffffffffffffffffffffffffffffffffffffffff1673ffffffffffffffffffffffffffffffffffffffff1681526020019081526020015f205f828254610c5a919061199a565b9250508190555050610cc2565b806040015160025f835f015173ffffffffffffffffffffffffffffffffffffffff1673ffffffffffffffffffffffffffffffffffffffff1681526020019081526020015f205f828254610cba919061202e565b925050819055505b508080610cce90611d68565b915050610b3b565b505b7fc16d8a15e9315c4d672c470040f671c3dad45ddb6b1d7b0434b4be0045eb442e8585604051610d09929190612061565b60405180910390a15050505050565b5f3411610d5a576040517f08c379a0000000000000000000000000000000000000000000000000000000008152600401610d51906120f8565b60405180910390fd5b5f60015f8481526020019081526020015f20905080600401544210610db4576040517f08c379a0000000000000000000000000000000000000000000000000000000008152600401610dab90612160565b60405180910390fd5b80600301805490508210610dfd576040517f08c379a0000000000000000000000000000000000000000000000000000000008152600401610df4906121c8565b60405180910390fd5b3460025f3373ffffffffffffffffffffffffffffffffffffffff1673ffffffffffffffffffffffffffffffffffffffff1681526020019081526020015f20541015610e7d576040517f08c379a0000000000000000000000000000000000000000000000000000000008152600401610e7490612230565b60405180910390fd5b34816007015f8481526020019081526020015f205f828254610e9f919061199a565b925050819055505f816008015f3373ffffffffffffffffffffffffffffffffffffffff1673ffffffffffffffffffffffffffffffffffffffff1681526020019081526020015f205403610f4f578060090133908060018154018082558091505060019003905f5260205f20015f9091909190916101000a81548173ffffffffffffffffffffffffffffffffffffffff021916908373ffffffffffffffffffffffffffffffffffffffff1602179055505b34816008015f3373ffffffffffffffffffffffffffffffffffffffff1673ffffffffffffffffffffffffffffffffffffffff1681526020019081526020015f205f828254610f9d919061199a565b9250508190555080600a0160405180606001604052803373ffffffffffffffffffffffffffffffffffffffff16815260200184815260200134815250908060018154018082558091505060019003905f5260205f2090600302015f909190919091505f820151815f015f6101000a81548173ffffffffffffffffffffffffffffffffffffffff021916908373ffffffffffffffffffffffffffffffffffffffff160217905550602082015181600101556040820151816002015550507f40ebda1cda22ef57268bfb5e0f5e01a536ad33b76d2dbc3ed8a760f6539d92aa8333843460405161108e949392919061224e565b60405180910390a1505050565b828054828255905f5260205f209081019282156110e1579160200282015b828111156110e05782518290816110d09190611c3a565b50916020019190600101906110b9565b5b5090506110ee91906110f2565b5090565b5b80821115611111575f81816111089190611115565b506001016110f3565b5090565b508054611121906117f4565b5f825580601f10611132575061114f565b601f0160209004905f5260205f209081019061114e9190611152565b5b50565b5b80821115611169575f815f905550600101611153565b5090565b5f819050919050565b61117f8161116d565b82525050565b5f6020820190506111985f830184611176565b92915050565b5f604051905090565b5f80fd5b5f80fd5b6111b88161116d565b81146111c2575f80fd5b50565b5f813590506111d3816111af565b92915050565b5f602082840312156111ee576111ed6111a7565b5b5f6111fb848285016111c5565b91505092915050565b5f73ffffffffffffffffffffffffffffffffffffffff82169050919050565b5f61122d82611204565b9050919050565b61123d81611223565b82525050565b5f81519050919050565b5f82825260208201905092915050565b5f5b8381101561127a57808201518184015260208101905061125f565b5f8484015250505050565b5f601f19601f8301169050919050565b5f61129f82611243565b6112a9818561124d565b93506112b981856020860161125d565b6112c281611285565b840191505092915050565b5f8115159050919050565b6112e1816112cd565b82525050565b5f60e0820190506112fa5f83018a611176565b6113076020830189611234565b81810360408301526113198188611295565b90506113286060830187611176565b61133560808301866112d8565b61134260a0830185611176565b61134f60c08301846112d8565b98975050505050505050565b5f6020820190508181035f8301526113738184611295565b905092915050565b5f80fd5b5f80fd5b7f4e487b71000000000000000000000000000000000000000000000000000000005f52604160045260245ffd5b6113b982611285565b810181811067ffffffffffffffff821117156113d8576113d7611383565b5b80604052505050565b5f6113ea61119e565b90506113f682826113b0565b919050565b5f67ffffffffffffffff82111561141557611414611383565b5b61141e82611285565b9050602081019050919050565b828183375f83830152505050565b5f61144b611446846113fb565b6113e1565b9050828152602081018484840111156114675761146661137f565b5b61147284828561142b565b509392505050565b5f82601f83011261148e5761148d61137b565b5b813561149e848260208601611439565b91505092915050565b5f67ffffffffffffffff8211156114c1576114c0611383565b5b602082029050602081019050919050565b5f80fd5b5f6114e86114e3846114a7565b6113e1565b9050808382526020820190506020840283018581111561150b5761150a6114d2565b5b835b8181101561155257803567ffffffffffffffff8111156115305761152f61137b565b5b80860161153d898261147a565b8552602085019450505060208101905061150d565b5050509392505050565b5f82601f8301126115705761156f61137b565b5b81356115808482602086016114d6565b91505092915050565b5f805f606084860312156115a05761159f6111a7565b5b5f84013567ffffffffffffffff8111156115bd576115bc6111ab565b5b6115c98682870161147a565b935050602084013567ffffffffffffffff8111156115ea576115e96111ab565b5b6115f68682870161155c565b9250506040611607868287016111c5565b9150509250925092565b5f81519050919050565b5f82825260208201905092915050565b5f819050602082019050919050565b5f82825260208201905092915050565b5f61165482611243565b61165e818561163a565b935061166e81856020860161125d565b61167781611285565b840191505092915050565b5f61168d838361164a565b905092915050565b5f602082019050919050565b5f6116ab82611611565b6116b5818561161b565b9350836020820285016116c78561162b565b805f5b8581101561170257848403895281516116e38582611682565b94506116ee83611695565b925060208a019950506001810190506116ca565b50829750879550505050505092915050565b5f6020820190508181035f83015261172c81846116a1565b905092915050565b61173d81611223565b8114611747575f80fd5b50565b5f8135905061175881611734565b92915050565b5f60208284031215611773576117726111a7565b5b5f6117808482850161174a565b91505092915050565b5f806040838503121561179f5761179e6111a7565b5b5f6117ac858286016111c5565b92505060206117bd858286016111c5565b9150509250929050565b7f4e487b71000000000000000000000000000000000000000000000000000000005f52602260045260245ffd5b5f600282049050600182168061180b57607f821691505b60208210810361181e5761181d6117c7565b5b50919050565b7f4f206576656e746f2061696e6461206e616f20666f692066696e616c697a61645f8201527f6f2e000000000000000000000000000000000000000000000000000000000000602082015250565b5f61187e60228361124d565b915061188982611824565b604082019050919050565b5f6020820190508181035f8301526118ab81611872565b9050919050565b7f4e487b71000000000000000000000000000000000000000000000000000000005f52603260045260245ffd5b7f4f2076616c6f7220646f206465706f7369746f206465766520736572206d61695f8201527f6f7220717565207a65726f2e0000000000000000000000000000000000000000602082015250565b5f611939602c8361124d565b9150611944826118df565b604082019050919050565b5f6020820190508181035f8301526119668161192d565b9050919050565b7f4e487b71000000000000000000000000000000000000000000000000000000005f52601160045260245ffd5b5f6119a48261116d565b91506119af8361116d565b92508282019050808211156119c7576119c661196d565b5b92915050565b7f446576652068617665722070656c6f206d656e6f732032206f70636f65732e005f82015250565b5f611a01601f8361124d565b9150611a0c826119cd565b602082019050919050565b5f6020820190508181035f830152611a2e816119f5565b9050919050565b7f5072617a6f206465766520736572206e6f2066757475726f2e000000000000005f82015250565b5f611a6960198361124d565b9150611a7482611a35565b602082019050919050565b5f6020820190508181035f830152611a9681611a5d565b9050919050565b5f819050815f5260205f209050919050565b5f6020601f8301049050919050565b5f82821b905092915050565b5f60088302611af97fffffffffffffffffffffffffffffffffffffffffffffffffffffffffffffffff82611abe565b611b038683611abe565b95508019841693508086168417925050509392505050565b5f819050919050565b5f611b3e611b39611b348461116d565b611b1b565b61116d565b9050919050565b5f819050919050565b611b5783611b24565b611b6b611b6382611b45565b848454611aca565b825550505050565b5f90565b611b7f611b73565b611b8a818484611b4e565b505050565b5b81811015611bad57611ba25f82611b77565b600181019050611b90565b5050565b601f821115611bf257611bc381611a9d565b611bcc84611aaf565b81016020851015611bdb578190505b611bef611be785611aaf565b830182611b8f565b50505b505050565b5f82821c905092915050565b5f611c125f1984600802611bf7565b1980831691505092915050565b5f611c2a8383611c03565b9150826002028217905092915050565b611c4382611243565b67ffffffffffffffff811115611c5c57611c5b611383565b5b611c6682546117f4565b611c71828285611bb1565b5f60209050601f831160018114611ca2575f8415611c90578287015190505b611c9a8582611c1f565b865550611d01565b601f198416611cb086611a9d565b5f5b82811015611cd757848901518255600182019150602085019450602081019050611cb2565b86831015611cf45784890151611cf0601f891682611c03565b8355505b6001600288020188555050505b505050505050565b5f60a082019050611d1c5f830188611176565b611d296020830187611234565b8181036040830152611d3b81866116a1565b90508181036060830152611d4f8185611295565b9050611d5e6080830184611176565b9695505050505050565b5f611d728261116d565b91507fffffffffffffffffffffffffffffffffffffffffffffffffffffffffffffffff8203611da457611da361196d565b5b600182019050919050565b7f53616c646f20696e737566696369656e74652e000000000000000000000000005f82015250565b5f611de360138361124d565b9150611dee82611daf565b602082019050919050565b5f6020820190508181035f830152611e1081611dd7565b9050919050565b5f81905092915050565b50565b5f611e2f5f83611e17565b9150611e3a82611e21565b5f82019050919050565b5f611e4e82611e24565b9150819050919050565b7f46616c6861206e61207472616e73666572656e6369612064652073616c646f2e5f82015250565b5f611e8c60208361124d565b9150611e9782611e58565b602082019050919050565b5f6020820190508181035f830152611eb981611e80565b9050919050565b7f4576656e746f2061696e646120656d20616e64616d656e746f2e0000000000005f82015250565b5f611ef4601a8361124d565b9150611eff82611ec0565b602082019050919050565b5f6020820190508181035f830152611f2181611ee8565b9050919050565b7f4576656e746f206a6120666f6920656e6365727261646f2e00000000000000005f82015250565b5f611f5c60188361124d565b9150611f6782611f28565b602082019050919050565b5f6020820190508181035f830152611f8981611f50565b9050919050565b7f4e487b71000000000000000000000000000000000000000000000000000000005f52601260045260245ffd5b5f611fc78261116d565b9150611fd28361116d565b925082611fe257611fe1611f90565b5b828204905092915050565b5f611ff78261116d565b91506120028361116d565b92508282026120108161116d565b915082820484148315176120275761202661196d565b5b5092915050565b5f6120388261116d565b91506120438361116d565b925082820390508181111561205b5761205a61196d565b5b92915050565b5f6040820190506120745f830185611176565b6120816020830184611176565b9392505050565b7f56616c6f722064612061706f737461206465766520736572206d61696f7220715f8201527f7565207a65726f2e000000000000000000000000000000000000000000000000602082015250565b5f6120e260288361124d565b91506120ed82612088565b604082019050919050565b5f6020820190508181035f83015261210f816120d6565b9050919050565b7f41706f7374617320656e63657272616461732e000000000000000000000000005f82015250565b5f61214a60138361124d565b915061215582612116565b602082019050919050565b5f6020820190508181035f8301526121778161213e565b9050919050565b7f4f7063616f20696e76616c6964612e00000000000000000000000000000000005f82015250565b5f6121b2600f8361124d565b91506121bd8261217e565b602082019050919050565b5f6020820190508181035f8301526121df816121a6565b9050919050565b7f53616c646f20696e737566696369656e746500000000000000000000000000005f82015250565b5f61221a60128361124d565b9150612225826121e6565b602082019050919050565b5f6020820190508181035f8301526122478161220e565b9050919050565b5f6080820190506122615f830187611176565b61226e6020830186611234565b61227b6040830185611176565b6122886060830184611176565b9594505050505056fea2646970667358221220b4df691cdb746dc28f9e94eb25ebf5b69bbb632cbc19a8852a7361903bd6132b64736f6c63430008150033",
  "immutableReferences": {},
  "source": "// SPDX-License-Identifier: MIT\r\npragma solidity ^0.8.20;\r\n\r\ncontract CasaApostas {\r\n    struct Aposta {\r\n        address apostador;\r\n        uint256 opcao;\r\n        uint256 valor;\r\n    }\r\n\r\n    struct Evento {\r\n        uint256 id;\r\n        address criador;\r\n        string descricao;\r\n        string[] opcoes; // Ex.: [\"Time A vence\", \"Time B vence\", \"Empate\"]\r\n        uint256 prazo;\r\n        bool finalizado;\r\n        uint256 resultado; // ndice da opo vencedora\r\n        mapping(uint256 => uint256) apostasPorOpcao; // Opo => Valor total apostado\r\n        mapping(address => uint256) apostasUsuario; // Usurio => Valor apostado\r\n        address[] apostadores;\r\n        Aposta[] apostas; // Array de apostas\r\n        bool encerrado; // Status de encerramento\r\n    }\r\n\r\n    uint256 public proximoIdEvento;\r\n    mapping(uint256 => Evento) public eventos;\r\n    mapping(address => uint256) public saldos; // Saldo dos usurios no sistema\r\n\r\n    event EventoCriado(\r\n        uint256 id,\r\n        address criador,\r\n        string[] opcoes,\r\n        string descricao,\r\n        uint256 prazo\r\n    );\r\n    event ApostaFeita(\r\n        uint256 eventoId,\r\n        address apostador,\r\n        uint256 opcao,\r\n        uint256 valor\r\n    );\r\n    event ResultadoDefinido(uint256 eventoId, uint256 resultado);\r\n    event EventoEncerrado(uint256 eventoId, uint256 resultado);\r\n    event SaldoSacado(address indexed usuario, uint256 valor);\r\n\r\n    function getOpcoes(uint256 eventoId) public view returns (string[] memory) {\r\n        return eventos[eventoId].opcoes;\r\n    }\r\n\r\n    // Criar um evento de aposta\r\n    function criarEvento(\r\n        string memory descricao,\r\n        string[] memory opcoes,\r\n        uint256 prazo\r\n    ) external returns (uint256) {\r\n        require(opcoes.length > 1, \"Deve haver pelo menos 2 opcoes.\");\r\n        require(prazo > block.timestamp, \"Prazo deve ser no futuro.\");\r\n\r\n        Evento storage novoEvento = eventos[proximoIdEvento];\r\n        novoEvento.id = proximoIdEvento;\r\n        novoEvento.criador = msg.sender;\r\n        novoEvento.descricao = descricao;\r\n        novoEvento.opcoes = opcoes;\r\n        novoEvento.prazo = prazo;\r\n\r\n        emit EventoCriado(\r\n            proximoIdEvento,\r\n            msg.sender,\r\n            opcoes,\r\n            descricao,\r\n            prazo\r\n        );\r\n\r\n        uint256 idEvento = proximoIdEvento;\r\n        proximoIdEvento++;\r\n\r\n        return idEvento;\r\n    }\r\n\r\n    // Funo para encerrar evento e distribuir prmios\r\n    function encerrarEvento(uint256 eventoId, uint256 resultado) public {\r\n        Evento storage evento = eventos[eventoId];\r\n\r\n        // Verificar se o evento j terminou e no foi encerrado ainda\r\n        require(block.timestamp > evento.prazo, \"Evento ainda em andamento.\");\r\n        require(!evento.encerrado, \"Evento ja foi encerrado.\");\r\n\r\n        evento.encerrado = true; // Marca o evento como encerrado\r\n        evento.resultado = resultado; // Define o resultado do evento\r\n\r\n        // Total apostado na opo vencedora\r\n        uint256 totalApostado = evento.apostasPorOpcao[resultado];\r\n        uint256 totalPerdedor = 0;\r\n        for (uint256 i = 0; i < evento.opcoes.length; i++) {\r\n            if (i != resultado) {\r\n                totalPerdedor += evento.apostasPorOpcao[i];\r\n            }\r\n        }\r\n        if (totalApostado > 0) {\r\n            // Distribuir prmio para os apostadores da opo vencedora\r\n            for (uint256 i = 0; i < evento.apostas.length; i++) {\r\n                Aposta memory aposta = evento.apostas[i];\r\n                if (aposta.opcao == resultado) {\r\n                    // Clculo do prmio baseado no valor apostado e no total apostado na opo vencedora\r\n                    uint256 premio = (aposta.valor / totalApostado) *\r\n                        totalPerdedor;\r\n                    saldos[aposta.apostador] += premio;\r\n                } else {\r\n                    saldos[aposta.apostador] -= aposta.valor;\r\n                }\r\n            }\r\n        }\r\n\r\n        // Emitir evento para informar que o evento foi encerrado\r\n        emit EventoEncerrado(eventoId, resultado);\r\n    }\r\n\r\n    // Funo para depsito\r\n    function depositar() external payable {\r\n        require(msg.value > 0, \"O valor do deposito deve ser maior que zero.\");\r\n        saldos[msg.sender] += msg.value;\r\n    }\r\n\r\n    // Funo para visualizar o saldo\r\n    function getSaldo() external view returns (uint256) {\r\n        return saldos[msg.sender];\r\n    }\r\n\r\n    // Apostar em um evento\r\n    function apostar(uint256 eventoId, uint256 opcao) external payable {\r\n        require(msg.value > 0, \"Valor da aposta deve ser maior que zero.\");\r\n        Evento storage evento = eventos[eventoId];\r\n        require(block.timestamp < evento.prazo, \"Apostas encerradas.\");\r\n        require(opcao < evento.opcoes.length, \"Opcao invalida.\");\r\n        require(saldos[msg.sender] >= msg.value, \"Saldo insuficiente\");\r\n\r\n        evento.apostasPorOpcao[opcao] += msg.value;\r\n        if (evento.apostasUsuario[msg.sender] == 0) {\r\n            evento.apostadores.push(msg.sender);\r\n        }\r\n        evento.apostasUsuario[msg.sender] += msg.value;\r\n\r\n        // Registrar aposta no array\r\n        evento.apostas.push(\r\n            Aposta({apostador: msg.sender, opcao: opcao, valor: msg.value})\r\n        );\r\n\r\n        emit ApostaFeita(eventoId, msg.sender, opcao, msg.value);\r\n    }\r\n\r\n    // Visualizar resultado de um evento\r\n    function getResultado(\r\n        uint256 eventoId\r\n    ) public view returns (string memory) {\r\n        Evento storage evento = eventos[eventoId];\r\n        require(evento.finalizado, \"O evento ainda nao foi finalizado.\");\r\n        uint index = evento.resultado;\r\n        return evento.opcoes[index];\r\n    }\r\n\r\n    // Funo para sacar saldo\r\n    function sacarSaldo() external {\r\n        uint256 saldo = saldos[msg.sender];\r\n        require(saldo > 0, \"Saldo insuficiente.\");\r\n\r\n        // Atualizando o saldo antes da transferncia para evitar reentrncia\r\n        saldos[msg.sender] = 0;\r\n\r\n        // Transferindo o saldo usando call para maior segurana\r\n        (bool success, ) = msg.sender.call{value: saldo}(\"\");\r\n        require(success, \"Falha na transferencia de saldo.\");\r\n\r\n        // Emitir evento de saque\r\n        emit SaldoSacado(msg.sender, saldo);\r\n    }\r\n\r\n    function getNumEventos() public view returns (uint256) {\r\n        return proximoIdEvento;\r\n    }\r\n}\r\n",
  "sourcePath": "D:\\Gits\\UEFS\\MI-REDES-3\\projeto\\contracts\\casaApostas.sol",
  "compiler": {
    "name": "solc",
    "version": "0.8.21+commit.d9974bed.Emscripten.clang"
  },
  "schemaVersion": "3.4.16",
  "updatedAt": "2024-12-12T04:55:15.045Z",
  "networkType": "ethereum",
  "devdoc": {
    "kind": "dev",
    "methods": {},
    "version": 1
  },
  "userdoc": {
    "kind": "user",
    "methods": {},
    "version": 1
  }
}