{
  "contractName": "CasaApostas",
  "abi": [
    {
      "anonymous": false,
      "inputs": [
        {
          "indexed": false,
          "internalType": "uint256",
          "name": "eventoId",
          "type": "uint256"
        },
        {
          "indexed": false,
          "internalType": "address",
          "name": "apostador",
          "type": "address"
        },
        {
          "indexed": false,
          "internalType": "uint256",
          "name": "opcao",
          "type": "uint256"
        },
        {
          "indexed": false,
          "internalType": "uint256",
          "name": "valor",
          "type": "uint256"
        }
      ],
      "name": "ApostaFeita",
      "type": "event"
    },
    {
      "anonymous": false,
      "inputs": [
        {
          "indexed": false,
          "internalType": "uint256",
          "name": "id",
          "type": "uint256"
        },
        {
          "indexed": false,
          "internalType": "address",
          "name": "criador",
          "type": "address"
        },
        {
          "indexed": false,
          "internalType": "string[]",
          "name": "opcoes",
          "type": "string[]"
        },
        {
          "indexed": false,
          "internalType": "string",
          "name": "descricao",
          "type": "string"
        },
        {
          "indexed": false,
          "internalType": "uint256",
          "name": "prazo",
          "type": "uint256"
        }
      ],
      "name": "EventoCriado",
      "type": "event"
    },
    {
      "anonymous": false,
      "inputs": [
        {
          "indexed": false,
          "internalType": "uint256",
          "name": "eventoId",
          "type": "uint256"
        },
        {
          "indexed": false,
          "internalType": "uint256",
          "name": "resultado",
          "type": "uint256"
        }
      ],
      "name": "EventoEncerrado",
      "type": "event"
    },
    {
      "anonymous": false,
      "inputs": [
        {
          "indexed": false,
          "internalType": "uint256",
          "name": "eventoId",
          "type": "uint256"
        },
        {
          "indexed": false,
          "internalType": "uint256",
          "name": "resultado",
          "type": "uint256"
        }
      ],
      "name": "ResultadoDefinido",
      "type": "event"
    },
    {
      "anonymous": false,
      "inputs": [
        {
          "indexed": true,
          "internalType": "address",
          "name": "usuario",
          "type": "address"
        },
        {
          "indexed": false,
          "internalType": "uint256",
          "name": "valor",
          "type": "uint256"
        }
      ],
      "name": "SaldoSacado",
      "type": "event"
    },
    {
      "inputs": [
        {
          "internalType": "uint256",
          "name": "",
          "type": "uint256"
        }
      ],
      "name": "eventos",
      "outputs": [
        {
          "internalType": "uint256",
          "name": "id",
          "type": "uint256"
        },
        {
          "internalType": "address",
          "name": "criador",
          "type": "address"
        },
        {
          "internalType": "string",
          "name": "descricao",
          "type": "string"
        },
        {
          "internalType": "uint256",
          "name": "prazo",
          "type": "uint256"
        },
        {
          "internalType": "bool",
          "name": "finalizado",
          "type": "bool"
        },
        {
          "internalType": "uint256",
          "name": "resultado",
          "type": "uint256"
        },
        {
          "internalType": "bool",
          "name": "encerrado",
          "type": "bool"
        }
      ],
      "stateMutability": "view",
      "type": "function",
      "constant": true
    },
    {
      "inputs": [
        {
          "internalType": "uint256",
          "name": "",
          "type": "uint256"
        }
      ],
      "name": "historico",
      "outputs": [
        {
          "internalType": "uint256",
          "name": "id",
          "type": "uint256"
        },
        {
          "internalType": "string",
          "name": "descricao",
          "type": "string"
        },
        {
          "internalType": "uint256",
          "name": "resultado",
          "type": "uint256"
        },
        {
          "internalType": "uint256",
          "name": "prazo",
          "type": "uint256"
        }
      ],
      "stateMutability": "view",
      "type": "function",
      "constant": true
    },
    {
      "inputs": [],
      "name": "proximoIdEvento",
      "outputs": [
        {
          "internalType": "uint256",
          "name": "",
          "type": "uint256"
        }
      ],
      "stateMutability": "view",
      "type": "function",
      "constant": true
    },
    {
      "inputs": [
        {
          "internalType": "address",
          "name": "",
          "type": "address"
        }
      ],
      "name": "saldos",
      "outputs": [
        {
          "internalType": "uint256",
          "name": "",
          "type": "uint256"
        }
      ],
      "stateMutability": "view",
      "type": "function",
      "constant": true
    },
    {
      "inputs": [
        {
          "internalType": "uint256",
          "name": "eventoId",
          "type": "uint256"
        }
      ],
      "name": "getOpcoes",
      "outputs": [
        {
          "internalType": "string[]",
          "name": "",
          "type": "string[]"
        }
      ],
      "stateMutability": "view",
      "type": "function",
      "constant": true
    },
    {
      "inputs": [
        {
          "internalType": "string",
          "name": "descricao",
          "type": "string"
        },
        {
          "internalType": "string[]",
          "name": "opcoes",
          "type": "string[]"
        },
        {
          "internalType": "uint256",
          "name": "prazo",
          "type": "uint256"
        }
      ],
      "name": "criarEvento",
      "outputs": [],
      "stateMutability": "nonpayable",
      "type": "function"
    },
    {
      "inputs": [
        {
          "internalType": "uint256",
          "name": "eventoId",
          "type": "uint256"
        },
        {
          "internalType": "uint256",
          "name": "resultado",
          "type": "uint256"
        }
      ],
      "name": "encerrarEvento",
      "outputs": [],
      "stateMutability": "nonpayable",
      "type": "function"
    },
    {
      "inputs": [],
      "name": "depositar",
      "outputs": [],
      "stateMutability": "payable",
      "type": "function",
      "payable": true
    },
    {
      "inputs": [],
      "name": "getSaldo",
      "outputs": [
        {
          "internalType": "uint256",
          "name": "",
          "type": "uint256"
        }
      ],
      "stateMutability": "view",
      "type": "function",
      "constant": true
    },
    {
      "inputs": [
        {
          "internalType": "uint256",
          "name": "eventoId",
          "type": "uint256"
        },
        {
          "internalType": "uint256",
          "name": "opcao",
          "type": "uint256"
        }
      ],
      "name": "apostar",
      "outputs": [],
      "stateMutability": "payable",
      "type": "function",
      "payable": true
    },
    {
      "inputs": [
        {
          "internalType": "uint256",
          "name": "eventoId",
          "type": "uint256"
        },
        {
          "internalType": "uint256",
          "name": "resultado",
          "type": "uint256"
        }
      ],
      "name": "definirResultado",
      "outputs": [],
      "stateMutability": "nonpayable",
      "type": "function"
    },
    {
      "inputs": [
        {
          "internalType": "uint256",
          "name": "eventoId",
          "type": "uint256"
        }
      ],
      "name": "calcularOdds",
      "outputs": [
        {
          "internalType": "uint256[]",
          "name": "",
          "type": "uint256[]"
        }
      ],
      "stateMutability": "view",
      "type": "function",
      "constant": true
    },
    {
      "inputs": [
        {
          "internalType": "uint256",
          "name": "index",
          "type": "uint256"
        }
      ],
      "name": "getHistorico",
      "outputs": [
        {
          "internalType": "uint256",
          "name": "id",
          "type": "uint256"
        },
        {
          "internalType": "string",
          "name": "descricao",
          "type": "string"
        },
        {
          "internalType": "uint256",
          "name": "resultado",
          "type": "uint256"
        },
        {
          "internalType": "uint256",
          "name": "prazo",
          "type": "uint256"
        }
      ],
      "stateMutability": "view",
      "type": "function",
      "constant": true
    },
    {
      "inputs": [
        {
          "internalType": "uint256",
          "name": "eventoId",
          "type": "uint256"
        }
      ],
      "name": "getResultado",
      "outputs": [
        {
          "internalType": "uint256",
          "name": "",
          "type": "uint256"
        }
      ],
      "stateMutability": "view",
      "type": "function",
      "constant": true
    },
    {
      "inputs": [],
      "name": "sacarSaldo",
      "outputs": [],
      "stateMutability": "nonpayable",
      "type": "function"
    }
  ],
  "bytecode": "0x608060405234801561000f575f80fd5b50612cf28061001d5f395ff3fe6080604052600436106100e7575f3560e01c80636521e7df11610089578063c68c061211610058578063c68c0612146102f9578063e2eec9a714610335578063ef7515c31461035f578063f2f6da3e14610387576100e7565b80636521e7df1461024357806372fe55971461026b578063bae97847146102a7578063c2c0c512146102bd576100e7565b80632368b6d4116100c55780632368b6d414610193578063330c5209146101d25780633d922f901461021157806342072b001461021b576100e7565b806301161766146100eb578063087e9d0f146101155780631e4ecc1714610157575b5f80fd5b3480156100f6575f80fd5b506100ff6103a3565b60405161010c919061191c565b60405180910390f35b348015610120575f80fd5b5061013b60048036038101906101369190611970565b6103a8565b60405161014e9796959493929190611a7e565b60405180910390f35b348015610162575f80fd5b5061017d60048036038101906101789190611970565b6104a3565b60405161018a919061191c565b60405180910390f35b34801561019e575f80fd5b506101b960048036038101906101b49190611970565b610515565b6040516101c99493929190611af2565b60405180910390f35b3480156101dd575f80fd5b506101f860048036038101906101f39190611970565b610630565b6040516102089493929190611af2565b60405180910390f35b6102196106f1565b005b348015610226575f80fd5b50610241600480360381019061023c9190611b3c565b610788565b005b34801561024e575f80fd5b5061026960048036038101906102649190611d88565b610cc6565b005b348015610276575f80fd5b50610291600480360381019061028c9190611970565b610e3c565b60405161029e9190611ec7565b60405180910390f35b3480156102b2575f80fd5b506102bb610fae565b005b3480156102c8575f80fd5b506102e360048036038101906102de9190611970565b61116d565b6040516102f09190611fea565b60405180910390f35b348015610304575f80fd5b5061031f600480360381019061031a9190612034565b611255565b60405161032c919061191c565b60405180910390f35b348015610340575f80fd5b5061034961126a565b604051610356919061191c565b60405180910390f35b34801561036a575f80fd5b5061038560048036038101906103809190611b3c565b6112ae565b005b6103a1600480360381019061039c9190611b3c565b61152f565b005b5f5481565b6001602052805f5260405f205f91509050805f015490806001015f9054906101000a900473ffffffffffffffffffffffffffffffffffffffff16908060020180546103f29061208c565b80601f016020809104026020016040519081016040528092919081815260200182805461041e9061208c565b80156104695780601f1061044057610100808354040283529160200191610469565b820191905f5260205f20905b81548152906001019060200180831161044c57829003601f168201915b505050505090806004015490806005015f9054906101000a900460ff169080600601549080600b015f9054906101000a900460ff16905087565b5f8060015f8481526020019081526020015f209050806005015f9054906101000a900460ff16610508576040517f08c379a00000000000000000000000000000000000000000000000000000000081526004016104ff9061212c565b60405180910390fd5b8060060154915050919050565b5f60605f806003805490508510610561576040517f08c379a000000000000000000000000000000000000000000000000000000000815260040161055890612194565b60405180910390fd5b5f60038681548110610576576105756121b2565b5b905f5260205f2090600502019050805f015481600101826003015483600401548280546105a29061208c565b80601f01602080910402602001604051908101604052809291908181526020018280546105ce9061208c565b80156106195780601f106105f057610100808354040283529160200191610619565b820191905f5260205f20905b8154815290600101906020018083116105fc57829003601f168201915b505050505092509450945094509450509193509193565b6003818154811061063f575f80fd5b905f5260205f2090600502015f91509050805f0154908060010180546106649061208c565b80601f01602080910402602001604051908101604052809291908181526020018280546106909061208c565b80156106db5780601f106106b2576101008083540402835291602001916106db565b820191905f5260205f20905b8154815290600101906020018083116106be57829003601f168201915b5050505050908060030154908060040154905084565b5f3411610733576040517f08c379a000000000000000000000000000000000000000000000000000000000815260040161072a9061224f565b60405180910390fd5b3460025f3373ffffffffffffffffffffffffffffffffffffffff1673ffffffffffffffffffffffffffffffffffffffff1681526020019081526020015f205f82825461077f919061229a565b92505081905550565b5f60015f8481526020019081526020015f209050806001015f9054906101000a900473ffffffffffffffffffffffffffffffffffffffff1673ffffffffffffffffffffffffffffffffffffffff163373ffffffffffffffffffffffffffffffffffffffff161461082d576040517f08c379a00000000000000000000000000000000000000000000000000000000081526004016108249061233d565b60405180910390fd5b8060040154421015610874576040517f08c379a000000000000000000000000000000000000000000000000000000000815260040161086b906123a5565b60405180910390fd5b806005015f9054906101000a900460ff16156108c5576040517f08c379a00000000000000000000000000000000000000000000000000000000081526004016108bc9061240d565b60405180910390fd5b8060030180549050821061090e576040517f08c379a000000000000000000000000000000000000000000000000000000000815260040161090590612475565b60405180910390fd5b8181600601819055506001816005015f6101000a81548160ff0219169083151502179055505f816007015f8481526020019081526020015f205490505f811115610a88575f5b8260090180549050811015610a86575f83600901828154811061097a576109796121b2565b5b905f5260205f20015f9054906101000a900473ffffffffffffffffffffffffffffffffffffffff1690505f846008015f8373ffffffffffffffffffffffffffffffffffffffff1673ffffffffffffffffffffffffffffffffffffffff1681526020019081526020015f205490505f811115610a71575f856007015f8881526020019081526020015f20548583610a109190612493565b610a1a9190612501565b90508060025f8573ffffffffffffffffffffffffffffffffffffffff1673ffffffffffffffffffffffffffffffffffffffff1681526020019081526020015f205f828254610a68919061229a565b92505081905550505b50508080610a7e90612531565b915050610954565b505b60036040518060a00160405280845f01548152602001846002018054610aad9061208c565b80601f0160208091040260200160405190810160405280929190818152602001828054610ad99061208c565b8015610b245780601f10610afb57610100808354040283529160200191610b24565b820191905f5260205f20905b815481529060010190602001808311610b0757829003601f168201915b5050505050815260200184600301805480602002602001604051908101604052809291908181526020015f905b82821015610bf9578382905f5260205f20018054610b6e9061208c565b80601f0160208091040260200160405190810160405280929190818152602001828054610b9a9061208c565b8015610be55780601f10610bbc57610100808354040283529160200191610be5565b820191905f5260205f20905b815481529060010190602001808311610bc857829003601f168201915b505050505081526020019060010190610b51565b5050505081526020018581526020018460040154815250908060018154018082558091505060019003905f5260205f2090600502015f909190919091505f820151815f01556020820151816001019081610c539190612715565b506040820151816002019080519060200190610c70929190611832565b50606082015181600301556080820151816004015550507fd755ef8acdf9a898244f61a5ebfcf653e1916ae9073a96003fba8f60ac6e0b3c8484604051610cb89291906127e4565b60405180910390a150505050565b6001825111610d0a576040517f08c379a0000000000000000000000000000000000000000000000000000000008152600401610d0190612855565b60405180910390fd5b428111610d4c576040517f08c379a0000000000000000000000000000000000000000000000000000000008152600401610d43906128bd565b60405180910390fd5b5f60015f805481526020019081526020015f2090505f54815f018190555033816001015f6101000a81548173ffffffffffffffffffffffffffffffffffffffff021916908373ffffffffffffffffffffffffffffffffffffffff16021790555083816002019081610dbd9190612715565b5082816003019080519060200190610dd6929190611832565b508181600401819055507f213389403211e2d8f09e41f6f892e95c3853d6b428f9ff25630a765d88d6b0725f5433858786604051610e189594939291906128db565b60405180910390a15f80815480929190610e3190612531565b919050555050505050565b60605f60015f8481526020019081526020015f2090505f805b8260030180549050811015610e9857826007015f8281526020019081526020015f205482610e83919061229a565b91508080610e9090612531565b915050610e55565b505f826003018054905067ffffffffffffffff811115610ebb57610eba611b82565b5b604051908082528060200260200182016040528015610ee95781602001602082028036833780820191505090505b5090505f5b8360030180549050811015610fa2575f846007015f8381526020019081526020015f20541115610f6e57836007015f8281526020019081526020015f2054670de0b6b3a764000084610f409190612493565b610f4a9190612501565b828281518110610f5d57610f5c6121b2565b5b602002602001018181525050610f8f565b5f828281518110610f8257610f816121b2565b5b6020026020010181815250505b8080610f9a90612531565b915050610eee565b50809350505050919050565b5f60025f3373ffffffffffffffffffffffffffffffffffffffff1673ffffffffffffffffffffffffffffffffffffffff1681526020019081526020015f205490505f8111611031576040517f08c379a000000000000000000000000000000000000000000000000000000000815260040161102890612984565b60405180910390fd5b5f60025f3373ffffffffffffffffffffffffffffffffffffffff1673ffffffffffffffffffffffffffffffffffffffff1681526020019081526020015f20819055505f3373ffffffffffffffffffffffffffffffffffffffff1682604051611098906129cf565b5f6040518083038185875af1925050503d805f81146110d2576040519150601f19603f3d011682016040523d82523d5f602084013e6110d7565b606091505b505090508061111b576040517f08c379a000000000000000000000000000000000000000000000000000000000815260040161111290612a2d565b60405180910390fd5b3373ffffffffffffffffffffffffffffffffffffffff167f5fc3b54c181812cec14a4124731c2237ac79ece8eb1febb924fbd79dd36d4ae583604051611161919061191c565b60405180910390a25050565b606060015f8381526020019081526020015f20600301805480602002602001604051908101604052809291908181526020015f905b8282101561124a578382905f5260205f200180546111bf9061208c565b80601f01602080910402602001604051908101604052809291908181526020018280546111eb9061208c565b80156112365780601f1061120d57610100808354040283529160200191611236565b820191905f5260205f20905b81548152906001019060200180831161121957829003601f168201915b5050505050815260200190600101906111a2565b505050509050919050565b6002602052805f5260405f205f915090505481565b5f60025f3373ffffffffffffffffffffffffffffffffffffffff1673ffffffffffffffffffffffffffffffffffffffff1681526020019081526020015f2054905090565b5f60015f8481526020019081526020015f20905080600401544211611308576040517f08c379a00000000000000000000000000000000000000000000000000000000081526004016112ff90612a95565b60405180910390fd5b80600b015f9054906101000a900460ff1615611359576040517f08c379a000000000000000000000000000000000000000000000000000000000815260040161135090612afd565b60405180910390fd5b600181600b015f6101000a81548160ff0219169083151502179055508181600601819055505f816007015f8481526020019081526020015f205490505f8111156114f0575f5b82600a01805490508110156114ee575f83600a0182815481106113c5576113c46121b2565b5b905f5260205f2090600302016040518060600160405290815f82015f9054906101000a900473ffffffffffffffffffffffffffffffffffffffff1673ffffffffffffffffffffffffffffffffffffffff1673ffffffffffffffffffffffffffffffffffffffff168152602001600182015481526020016002820154815250509050848160200151036114da575f83856007015f8881526020019081526020015f205483604001516114769190612493565b6114809190612501565b90508060025f845f015173ffffffffffffffffffffffffffffffffffffffff1673ffffffffffffffffffffffffffffffffffffffff1681526020019081526020015f205f8282546114d1919061229a565b92505081905550505b5080806114e690612531565b91505061139f565b505b7fc16d8a15e9315c4d672c470040f671c3dad45ddb6b1d7b0434b4be0045eb442e84846040516115219291906127e4565b60405180910390a150505050565b5f3411611571576040517f08c379a000000000000000000000000000000000000000000000000000000000815260040161156890612b8b565b60405180910390fd5b5f60015f8481526020019081526020015f209050806004015442106115cb576040517f08c379a00000000000000000000000000000000000000000000000000000000081526004016115c290612bf3565b60405180910390fd5b80600301805490508210611614576040517f08c379a000000000000000000000000000000000000000000000000000000000815260040161160b90612c5b565b60405180910390fd5b34816007015f8481526020019081526020015f205f828254611636919061229a565b925050819055505f816008015f3373ffffffffffffffffffffffffffffffffffffffff1673ffffffffffffffffffffffffffffffffffffffff1681526020019081526020015f2054036116e6578060090133908060018154018082558091505060019003905f5260205f20015f9091909190916101000a81548173ffffffffffffffffffffffffffffffffffffffff021916908373ffffffffffffffffffffffffffffffffffffffff1602179055505b34816008015f3373ffffffffffffffffffffffffffffffffffffffff1673ffffffffffffffffffffffffffffffffffffffff1681526020019081526020015f205f828254611734919061229a565b9250508190555080600a0160405180606001604052803373ffffffffffffffffffffffffffffffffffffffff16815260200184815260200134815250908060018154018082558091505060019003905f5260205f2090600302015f909190919091505f820151815f015f6101000a81548173ffffffffffffffffffffffffffffffffffffffff021916908373ffffffffffffffffffffffffffffffffffffffff160217905550602082015181600101556040820151816002015550507f40ebda1cda22ef57268bfb5e0f5e01a536ad33b76d2dbc3ed8a760f6539d92aa833384346040516118259493929190612c79565b60405180910390a1505050565b828054828255905f5260205f20908101928215611878579160200282015b828111156118775782518290816118679190612715565b5091602001919060010190611850565b5b5090506118859190611889565b5090565b5b808211156118a8575f818161189f91906118ac565b5060010161188a565b5090565b5080546118b89061208c565b5f825580601f106118c957506118e6565b601f0160209004905f5260205f20908101906118e591906118e9565b5b50565b5b80821115611900575f815f9055506001016118ea565b5090565b5f819050919050565b61191681611904565b82525050565b5f60208201905061192f5f83018461190d565b92915050565b5f604051905090565b5f80fd5b5f80fd5b61194f81611904565b8114611959575f80fd5b50565b5f8135905061196a81611946565b92915050565b5f602082840312156119855761198461193e565b5b5f6119928482850161195c565b91505092915050565b5f73ffffffffffffffffffffffffffffffffffffffff82169050919050565b5f6119c48261199b565b9050919050565b6119d4816119ba565b82525050565b5f81519050919050565b5f82825260208201905092915050565b5f5b83811015611a115780820151818401526020810190506119f6565b5f8484015250505050565b5f601f19601f8301169050919050565b5f611a36826119da565b611a4081856119e4565b9350611a508185602086016119f4565b611a5981611a1c565b840191505092915050565b5f8115159050919050565b611a7881611a64565b82525050565b5f60e082019050611a915f83018a61190d565b611a9e60208301896119cb565b8181036040830152611ab08188611a2c565b9050611abf606083018761190d565b611acc6080830186611a6f565b611ad960a083018561190d565b611ae660c0830184611a6f565b98975050505050505050565b5f608082019050611b055f83018761190d565b8181036020830152611b178186611a2c565b9050611b26604083018561190d565b611b33606083018461190d565b95945050505050565b5f8060408385031215611b5257611b5161193e565b5b5f611b5f8582860161195c565b9250506020611b708582860161195c565b9150509250929050565b5f80fd5b5f80fd5b7f4e487b71000000000000000000000000000000000000000000000000000000005f52604160045260245ffd5b611bb882611a1c565b810181811067ffffffffffffffff82111715611bd757611bd6611b82565b5b80604052505050565b5f611be9611935565b9050611bf58282611baf565b919050565b5f67ffffffffffffffff821115611c1457611c13611b82565b5b611c1d82611a1c565b9050602081019050919050565b828183375f83830152505050565b5f611c4a611c4584611bfa565b611be0565b905082815260208101848484011115611c6657611c65611b7e565b5b611c71848285611c2a565b509392505050565b5f82601f830112611c8d57611c8c611b7a565b5b8135611c9d848260208601611c38565b91505092915050565b5f67ffffffffffffffff821115611cc057611cbf611b82565b5b602082029050602081019050919050565b5f80fd5b5f611ce7611ce284611ca6565b611be0565b90508083825260208201905060208402830185811115611d0a57611d09611cd1565b5b835b81811015611d5157803567ffffffffffffffff811115611d2f57611d2e611b7a565b5b808601611d3c8982611c79565b85526020850194505050602081019050611d0c565b5050509392505050565b5f82601f830112611d6f57611d6e611b7a565b5b8135611d7f848260208601611cd5565b91505092915050565b5f805f60608486031215611d9f57611d9e61193e565b5b5f84013567ffffffffffffffff811115611dbc57611dbb611942565b5b611dc886828701611c79565b935050602084013567ffffffffffffffff811115611de957611de8611942565b5b611df586828701611d5b565b9250506040611e068682870161195c565b9150509250925092565b5f81519050919050565b5f82825260208201905092915050565b5f819050602082019050919050565b611e4281611904565b82525050565b5f611e538383611e39565b60208301905092915050565b5f602082019050919050565b5f611e7582611e10565b611e7f8185611e1a565b9350611e8a83611e2a565b805f5b83811015611eba578151611ea18882611e48565b9750611eac83611e5f565b925050600181019050611e8d565b5085935050505092915050565b5f6020820190508181035f830152611edf8184611e6b565b905092915050565b5f81519050919050565b5f82825260208201905092915050565b5f819050602082019050919050565b5f82825260208201905092915050565b5f611f2a826119da565b611f348185611f10565b9350611f448185602086016119f4565b611f4d81611a1c565b840191505092915050565b5f611f638383611f20565b905092915050565b5f602082019050919050565b5f611f8182611ee7565b611f8b8185611ef1565b935083602082028501611f9d85611f01565b805f5b85811015611fd85784840389528151611fb98582611f58565b9450611fc483611f6b565b925060208a01995050600181019050611fa0565b50829750879550505050505092915050565b5f6020820190508181035f8301526120028184611f77565b905092915050565b612013816119ba565b811461201d575f80fd5b50565b5f8135905061202e8161200a565b92915050565b5f602082840312156120495761204861193e565b5b5f61205684828501612020565b91505092915050565b7f4e487b71000000000000000000000000000000000000000000000000000000005f52602260045260245ffd5b5f60028204905060018216806120a357607f821691505b6020821081036120b6576120b561205f565b5b50919050565b7f4f206576656e746f2061696e6461206e616f20666f692066696e616c697a61645f8201527f6f2e000000000000000000000000000000000000000000000000000000000000602082015250565b5f6121166022836119e4565b9150612121826120bc565b604082019050919050565b5f6020820190508181035f8301526121438161210a565b9050919050565b7f496e6469636520666f726120646f20686973746f7269636f2e000000000000005f82015250565b5f61217e6019836119e4565b91506121898261214a565b602082019050919050565b5f6020820190508181035f8301526121ab81612172565b9050919050565b7f4e487b71000000000000000000000000000000000000000000000000000000005f52603260045260245ffd5b7f4f2076616c6f7220646f206465706f7369746f206465766520736572206d61695f8201527f6f7220717565207a65726f2e0000000000000000000000000000000000000000602082015250565b5f612239602c836119e4565b9150612244826121df565b604082019050919050565b5f6020820190508181035f8301526122668161222d565b9050919050565b7f4e487b71000000000000000000000000000000000000000000000000000000005f52601160045260245ffd5b5f6122a482611904565b91506122af83611904565b92508282019050808211156122c7576122c661226d565b5b92915050565b7f536f6d656e7465206f2063726961646f7220706f646520646566696e6972206f5f8201527f20726573756c7461646f2e000000000000000000000000000000000000000000602082015250565b5f612327602b836119e4565b9150612332826122cd565b604082019050919050565b5f6020820190508181035f8301526123548161231b565b9050919050565b7f5072617a6f206e616f20656e6365727261646f2e0000000000000000000000005f82015250565b5f61238f6014836119e4565b915061239a8261235b565b602082019050919050565b5f6020820190508181035f8301526123bc81612383565b9050919050565b7f4576656e746f206a612066696e616c697a61646f2e00000000000000000000005f82015250565b5f6123f76015836119e4565b9150612402826123c3565b602082019050919050565b5f6020820190508181035f830152612424816123eb565b9050919050565b7f526573756c7461646f20696e76616c69646f2e000000000000000000000000005f82015250565b5f61245f6013836119e4565b915061246a8261242b565b602082019050919050565b5f6020820190508181035f83015261248c81612453565b9050919050565b5f61249d82611904565b91506124a883611904565b92508282026124b681611904565b915082820484148315176124cd576124cc61226d565b5b5092915050565b7f4e487b71000000000000000000000000000000000000000000000000000000005f52601260045260245ffd5b5f61250b82611904565b915061251683611904565b925082612526576125256124d4565b5b828204905092915050565b5f61253b82611904565b91507fffffffffffffffffffffffffffffffffffffffffffffffffffffffffffffffff820361256d5761256c61226d565b5b600182019050919050565b5f819050815f5260205f209050919050565b5f6020601f8301049050919050565b5f82821b905092915050565b5f600883026125d47fffffffffffffffffffffffffffffffffffffffffffffffffffffffffffffffff82612599565b6125de8683612599565b95508019841693508086168417925050509392505050565b5f819050919050565b5f61261961261461260f84611904565b6125f6565b611904565b9050919050565b5f819050919050565b612632836125ff565b61264661263e82612620565b8484546125a5565b825550505050565b5f90565b61265a61264e565b612665818484612629565b505050565b5b818110156126885761267d5f82612652565b60018101905061266b565b5050565b601f8211156126cd5761269e81612578565b6126a78461258a565b810160208510156126b6578190505b6126ca6126c28561258a565b83018261266a565b50505b505050565b5f82821c905092915050565b5f6126ed5f19846008026126d2565b1980831691505092915050565b5f61270583836126de565b9150826002028217905092915050565b61271e826119da565b67ffffffffffffffff81111561273757612736611b82565b5b612741825461208c565b61274c82828561268c565b5f60209050601f83116001811461277d575f841561276b578287015190505b61277585826126fa565b8655506127dc565b601f19841661278b86612578565b5f5b828110156127b25784890151825560018201915060208501945060208101905061278d565b868310156127cf57848901516127cb601f8916826126de565b8355505b6001600288020188555050505b505050505050565b5f6040820190506127f75f83018561190d565b612804602083018461190d565b9392505050565b7f446576652068617665722070656c6f206d656e6f732032206f70636f65732e005f82015250565b5f61283f601f836119e4565b915061284a8261280b565b602082019050919050565b5f6020820190508181035f83015261286c81612833565b9050919050565b7f5072617a6f206465766520736572206e6f2066757475726f2e000000000000005f82015250565b5f6128a76019836119e4565b91506128b282612873565b602082019050919050565b5f6020820190508181035f8301526128d48161289b565b9050919050565b5f60a0820190506128ee5f83018861190d565b6128fb60208301876119cb565b818103604083015261290d8186611f77565b905081810360608301526129218185611a2c565b9050612930608083018461190d565b9695505050505050565b7f53616c646f20696e737566696369656e74652e000000000000000000000000005f82015250565b5f61296e6013836119e4565b91506129798261293a565b602082019050919050565b5f6020820190508181035f83015261299b81612962565b9050919050565b5f81905092915050565b50565b5f6129ba5f836129a2565b91506129c5826129ac565b5f82019050919050565b5f6129d9826129af565b9150819050919050565b7f46616c6861206e61207472616e73666572656e6369612064652073616c646f2e5f82015250565b5f612a176020836119e4565b9150612a22826129e3565b602082019050919050565b5f6020820190508181035f830152612a4481612a0b565b9050919050565b7f4576656e746f2061696e646120656d20616e64616d656e746f2e0000000000005f82015250565b5f612a7f601a836119e4565b9150612a8a82612a4b565b602082019050919050565b5f6020820190508181035f830152612aac81612a73565b9050919050565b7f4576656e746f206a6120666f6920656e6365727261646f2e00000000000000005f82015250565b5f612ae76018836119e4565b9150612af282612ab3565b602082019050919050565b5f6020820190508181035f830152612b1481612adb565b9050919050565b7f56616c6f722064612061706f737461206465766520736572206d61696f7220715f8201527f7565207a65726f2e000000000000000000000000000000000000000000000000602082015250565b5f612b756028836119e4565b9150612b8082612b1b565b604082019050919050565b5f6020820190508181035f830152612ba281612b69565b9050919050565b7f41706f7374617320656e63657272616461732e000000000000000000000000005f82015250565b5f612bdd6013836119e4565b9150612be882612ba9565b602082019050919050565b5f6020820190508181035f830152612c0a81612bd1565b9050919050565b7f4f7063616f20696e76616c6964612e00000000000000000000000000000000005f82015250565b5f612c45600f836119e4565b9150612c5082612c11565b602082019050919050565b5f6020820190508181035f830152612c7281612c39565b9050919050565b5f608082019050612c8c5f83018761190d565b612c9960208301866119cb565b612ca6604083018561190d565b612cb3606083018461190d565b9594505050505056fea2646970667358221220e589754e57f973cc42d475ddcee715afa18a0259c8d909051742c3dfa3ea9ce964736f6c63430008150033",
  "immutableReferences": {},
  "source": "// SPDX-License-Identifier: MIT\r\npragma solidity ^0.8.20;\r\n\r\ncontract CasaApostas {\r\n    struct Aposta {\r\n        address apostador;\r\n        uint256 opcao;\r\n        uint256 valor;\r\n    }\r\n\r\n    struct Evento {\r\n        uint256 id;\r\n        address criador;\r\n        string descricao;\r\n        string[] opcoes; // Ex.: [\"Time A vence\", \"Time B vence\", \"Empate\"]\r\n        uint256 prazo;\r\n        bool finalizado;\r\n        uint256 resultado; // ndice da opo vencedora\r\n        mapping(uint256 => uint256) apostasPorOpcao; // Opo => Valor total apostado\r\n        mapping(address => uint256) apostasUsuario;  // Usurio => Valor apostado\r\n        address[] apostadores;\r\n        Aposta[] apostas; // Array de apostas\r\n        bool encerrado; // Status de encerramento\r\n    }\r\n\r\n    struct HistoricoEvento {\r\n        uint256 id;\r\n        string descricao;\r\n        string[] opcoes;\r\n        uint256 resultado;\r\n        uint256 prazo;\r\n    }\r\n\r\n    uint256 public proximoIdEvento;\r\n    mapping(uint256 => Evento) public eventos;\r\n    mapping(address => uint256) public saldos; // Saldo dos usurios no sistema\r\n    HistoricoEvento[] public historico;\r\n\r\n    event EventoCriado(uint256 id, address criador, string[] opcoes, string descricao, uint256 prazo);\r\n    event ApostaFeita(uint256 eventoId, address apostador, uint256 opcao, uint256 valor);\r\n    event ResultadoDefinido(uint256 eventoId, uint256 resultado);\r\n    event EventoEncerrado(uint256 eventoId, uint256 resultado);\r\n    event SaldoSacado(address indexed usuario, uint256 valor);\r\n\r\n    function getOpcoes(uint256 eventoId) public view returns (string[] memory) {\r\n        return eventos[eventoId].opcoes;\r\n    }\r\n\r\n    // Criar um evento de aposta\r\n    function criarEvento(string memory descricao, string[] memory opcoes, uint256 prazo) external {\r\n        require(opcoes.length > 1, \"Deve haver pelo menos 2 opcoes.\");\r\n        require(prazo > block.timestamp, \"Prazo deve ser no futuro.\");\r\n\r\n        Evento storage novoEvento = eventos[proximoIdEvento];\r\n        novoEvento.id = proximoIdEvento;\r\n        novoEvento.criador = msg.sender;\r\n        novoEvento.descricao = descricao;\r\n        novoEvento.opcoes = opcoes;\r\n        novoEvento.prazo = prazo;\r\n\r\n        emit EventoCriado(proximoIdEvento, msg.sender, opcoes, descricao, prazo);\r\n        proximoIdEvento++;\r\n    }\r\n\r\n    // Funo para encerrar evento e distribuir prmios\r\n    function encerrarEvento(uint256 eventoId, uint256 resultado) public {\r\n        Evento storage evento = eventos[eventoId];\r\n        \r\n        // Verificar se o evento j terminou e no foi encerrado ainda\r\n        require(block.timestamp > evento.prazo, \"Evento ainda em andamento.\");\r\n        require(!evento.encerrado, \"Evento ja foi encerrado.\");\r\n\r\n        evento.encerrado = true; // Marca o evento como encerrado\r\n        evento.resultado = resultado; // Define o resultado do evento\r\n\r\n        // Total apostado na opo vencedora\r\n        uint256 totalApostado = evento.apostasPorOpcao[resultado];\r\n        if (totalApostado > 0) {\r\n            // Distribuir prmio para os apostadores da opo vencedora\r\n            for (uint256 i = 0; i < evento.apostas.length; i++) {\r\n                Aposta memory aposta = evento.apostas[i];\r\n                if (aposta.opcao == resultado) {\r\n                    // Clculo do prmio baseado no valor apostado e no total apostado na opo vencedora\r\n                    uint256 premio = (aposta.valor * evento.apostasPorOpcao[resultado]) / totalApostado;\r\n                    saldos[aposta.apostador] += premio;\r\n                }\r\n            }\r\n        }\r\n\r\n        // Emitir evento para informar que o evento foi encerrado\r\n        emit EventoEncerrado(eventoId, resultado);\r\n    }\r\n\r\n\r\n    // Funo para depsito\r\n    function depositar() external payable {\r\n        require(msg.value > 0, \"O valor do deposito deve ser maior que zero.\");\r\n        saldos[msg.sender] += msg.value;\r\n    }\r\n\r\n    // Funo para visualizar o saldo\r\n    function getSaldo() external view returns (uint256) {\r\n        return saldos[msg.sender];\r\n    }\r\n\r\n    // Apostar em um evento\r\n    function apostar(uint256 eventoId, uint256 opcao) external payable {\r\n        require(msg.value > 0, \"Valor da aposta deve ser maior que zero.\");\r\n        Evento storage evento = eventos[eventoId];\r\n        require(block.timestamp < evento.prazo, \"Apostas encerradas.\");\r\n        require(opcao < evento.opcoes.length, \"Opcao invalida.\");\r\n\r\n        evento.apostasPorOpcao[opcao] += msg.value;\r\n        if (evento.apostasUsuario[msg.sender] == 0) {\r\n            evento.apostadores.push(msg.sender);\r\n        }\r\n        evento.apostasUsuario[msg.sender] += msg.value;\r\n\r\n        // Registrar aposta no array\r\n        evento.apostas.push(Aposta({\r\n            apostador: msg.sender,\r\n            opcao: opcao,\r\n            valor: msg.value\r\n        }));\r\n\r\n        emit ApostaFeita(eventoId, msg.sender, opcao, msg.value);\r\n    }\r\n\r\n    // Definir resultado de um evento\r\n    function definirResultado(uint256 eventoId, uint256 resultado) external {\r\n        Evento storage evento = eventos[eventoId];\r\n        require(msg.sender == evento.criador, \"Somente o criador pode definir o resultado.\");\r\n        require(block.timestamp >= evento.prazo, \"Prazo nao encerrado.\");\r\n        require(!evento.finalizado, \"Evento ja finalizado.\");\r\n        require(resultado < evento.opcoes.length, \"Resultado invalido.\");\r\n\r\n        evento.resultado = resultado;\r\n        evento.finalizado = true;\r\n\r\n        uint256 totalApostado = evento.apostasPorOpcao[resultado];\r\n        if (totalApostado > 0) {\r\n            // Somente distribuir para apostadores da opo vencedora\r\n            for (uint256 i = 0; i < evento.apostadores.length; i++) {\r\n                address apostador = evento.apostadores[i];\r\n                uint256 valorApostado = evento.apostasUsuario[apostador];\r\n\r\n                if (valorApostado > 0) {\r\n                    uint256 premio = (valorApostado * totalApostado) / evento.apostasPorOpcao[resultado];\r\n                    saldos[apostador] += premio;\r\n                }\r\n            }\r\n        }\r\n\r\n        // Armazenar evento no histrico\r\n        historico.push(HistoricoEvento({\r\n            id: evento.id,\r\n            descricao: evento.descricao,\r\n            opcoes: evento.opcoes,\r\n            resultado: resultado,\r\n            prazo: evento.prazo\r\n        }));\r\n\r\n        emit ResultadoDefinido(eventoId, resultado);\r\n    }\r\n\r\n    // Calcular odds\r\n    function calcularOdds(uint256 eventoId) public view returns (uint256[] memory) {\r\n        Evento storage evento = eventos[eventoId];\r\n        uint256 totalApostado = 0;\r\n        for (uint256 i = 0; i < evento.opcoes.length; i++) {\r\n            totalApostado += evento.apostasPorOpcao[i];\r\n        }\r\n\r\n        uint256[] memory odds = new uint256[](evento.opcoes.length);\r\n        for (uint256 i = 0; i < evento.opcoes.length; i++) {\r\n            if (evento.apostasPorOpcao[i] > 0) {\r\n                odds[i] = (totalApostado * 1e18) / evento.apostasPorOpcao[i];\r\n            } else {\r\n                odds[i] = 0;\r\n            }\r\n        }\r\n        return odds;\r\n    }\r\n\r\n    // Visualizar histrico\r\n    function getHistorico(uint256 index) public view returns (\r\n        uint256 id,\r\n        string memory descricao,\r\n        uint256 resultado,\r\n        uint256 prazo\r\n    ) {\r\n        require(index < historico.length, \"Indice fora do historico.\");\r\n        HistoricoEvento storage e = historico[index];\r\n        return (e.id, e.descricao, e.resultado, e.prazo);\r\n    }\r\n\r\n    // Visualizar resultado de um evento\r\n    function getResultado(uint256 eventoId) public view returns (uint256) {\r\n        Evento storage evento = eventos[eventoId];\r\n        require(evento.finalizado, \"O evento ainda nao foi finalizado.\");\r\n        return evento.resultado;\r\n    }\r\n\r\n    // Funo para sacar saldo\r\n    function sacarSaldo() external {\r\n        uint256 saldo = saldos[msg.sender];\r\n        require(saldo > 0, \"Saldo insuficiente.\");\r\n\r\n        // Atualizando o saldo antes da transferncia para evitar reentrncia\r\n        saldos[msg.sender] = 0;\r\n\r\n        // Transferindo o saldo usando call para maior segurana\r\n        (bool success, ) = msg.sender.call{value: saldo}(\"\");\r\n        require(success, \"Falha na transferencia de saldo.\");\r\n\r\n        // Emitir evento de saque\r\n        emit SaldoSacado(msg.sender, saldo);\r\n    }\r\n}\r\n",
  "sourcePath": "C:\\Users\\thiag\\OneDrive\\Documentos\\Meus projetos\\MI-REDES-3\\projeto\\contracts\\casaApostas.sol",
  "compiler": {
    "name": "solc",
    "version": "0.8.21+commit.d9974bed.Emscripten.clang"
  },
  "schemaVersion": "3.4.16",
  "updatedAt": "2024-12-09T00:06:58.093Z",
  "networkType": "ethereum",
  "devdoc": {
    "kind": "dev",
    "methods": {},
    "version": 1
  },
  "userdoc": {
    "kind": "user",
    "methods": {},
    "version": 1
  }
}