{
  "contractName": "CasaApostas",
  "abi": [
    {
      "anonymous": false,
      "inputs": [
        {
          "indexed": false,
          "internalType": "uint256",
          "name": "eventoId",
          "type": "uint256"
        },
        {
          "indexed": false,
          "internalType": "address",
          "name": "apostador",
          "type": "address"
        },
        {
          "indexed": false,
          "internalType": "uint256",
          "name": "opcao",
          "type": "uint256"
        },
        {
          "indexed": false,
          "internalType": "uint256",
          "name": "valor",
          "type": "uint256"
        }
      ],
      "name": "ApostaFeita",
      "type": "event"
    },
    {
      "anonymous": false,
      "inputs": [
        {
          "indexed": false,
          "internalType": "uint256",
          "name": "id",
          "type": "uint256"
        },
        {
          "indexed": false,
          "internalType": "address",
          "name": "criador",
          "type": "address"
        },
        {
          "indexed": false,
          "internalType": "string[]",
          "name": "opcoes",
          "type": "string[]"
        },
        {
          "indexed": false,
          "internalType": "string",
          "name": "descricao",
          "type": "string"
        },
        {
          "indexed": false,
          "internalType": "uint256",
          "name": "prazo",
          "type": "uint256"
        }
      ],
      "name": "EventoCriado",
      "type": "event"
    },
    {
      "anonymous": false,
      "inputs": [
        {
          "indexed": false,
          "internalType": "uint256",
          "name": "eventoId",
          "type": "uint256"
        },
        {
          "indexed": false,
          "internalType": "uint256",
          "name": "resultado",
          "type": "uint256"
        }
      ],
      "name": "EventoEncerrado",
      "type": "event"
    },
    {
      "anonymous": false,
      "inputs": [
        {
          "indexed": false,
          "internalType": "uint256",
          "name": "eventoId",
          "type": "uint256"
        },
        {
          "indexed": false,
          "internalType": "uint256",
          "name": "resultado",
          "type": "uint256"
        }
      ],
      "name": "ResultadoDefinido",
      "type": "event"
    },
    {
      "anonymous": false,
      "inputs": [
        {
          "indexed": true,
          "internalType": "address",
          "name": "usuario",
          "type": "address"
        },
        {
          "indexed": false,
          "internalType": "uint256",
          "name": "valor",
          "type": "uint256"
        }
      ],
      "name": "SaldoSacado",
      "type": "event"
    },
    {
      "inputs": [
        {
          "internalType": "uint256",
          "name": "",
          "type": "uint256"
        }
      ],
      "name": "eventos",
      "outputs": [
        {
          "internalType": "uint256",
          "name": "id",
          "type": "uint256"
        },
        {
          "internalType": "address",
          "name": "criador",
          "type": "address"
        },
        {
          "internalType": "string",
          "name": "descricao",
          "type": "string"
        },
        {
          "internalType": "uint256",
          "name": "prazo",
          "type": "uint256"
        },
        {
          "internalType": "bool",
          "name": "finalizado",
          "type": "bool"
        },
        {
          "internalType": "uint256",
          "name": "resultado",
          "type": "uint256"
        },
        {
          "internalType": "bool",
          "name": "encerrado",
          "type": "bool"
        }
      ],
      "stateMutability": "view",
      "type": "function",
      "constant": true
    },
    {
      "inputs": [
        {
          "internalType": "uint256",
          "name": "",
          "type": "uint256"
        }
      ],
      "name": "historico",
      "outputs": [
        {
          "internalType": "uint256",
          "name": "id",
          "type": "uint256"
        },
        {
          "internalType": "string",
          "name": "descricao",
          "type": "string"
        },
        {
          "internalType": "uint256",
          "name": "resultado",
          "type": "uint256"
        },
        {
          "internalType": "uint256",
          "name": "prazo",
          "type": "uint256"
        }
      ],
      "stateMutability": "view",
      "type": "function",
      "constant": true
    },
    {
      "inputs": [],
      "name": "proximoIdEvento",
      "outputs": [
        {
          "internalType": "uint256",
          "name": "",
          "type": "uint256"
        }
      ],
      "stateMutability": "view",
      "type": "function",
      "constant": true
    },
    {
      "inputs": [
        {
          "internalType": "address",
          "name": "",
          "type": "address"
        }
      ],
      "name": "saldos",
      "outputs": [
        {
          "internalType": "uint256",
          "name": "",
          "type": "uint256"
        }
      ],
      "stateMutability": "view",
      "type": "function",
      "constant": true
    },
    {
      "inputs": [
        {
          "internalType": "uint256",
          "name": "eventoId",
          "type": "uint256"
        }
      ],
      "name": "getOpcoes",
      "outputs": [
        {
          "internalType": "string[]",
          "name": "",
          "type": "string[]"
        }
      ],
      "stateMutability": "view",
      "type": "function",
      "constant": true
    },
    {
      "inputs": [
        {
          "internalType": "string",
          "name": "descricao",
          "type": "string"
        },
        {
          "internalType": "string[]",
          "name": "opcoes",
          "type": "string[]"
        },
        {
          "internalType": "uint256",
          "name": "prazo",
          "type": "uint256"
        }
      ],
      "name": "criarEvento",
      "outputs": [],
      "stateMutability": "nonpayable",
      "type": "function"
    },
    {
      "inputs": [
        {
          "internalType": "uint256",
          "name": "eventoId",
          "type": "uint256"
        },
        {
          "internalType": "uint256",
          "name": "resultado",
          "type": "uint256"
        }
      ],
      "name": "encerrarEvento",
      "outputs": [],
      "stateMutability": "nonpayable",
      "type": "function"
    },
    {
      "inputs": [],
      "name": "depositar",
      "outputs": [],
      "stateMutability": "payable",
      "type": "function",
      "payable": true
    },
    {
      "inputs": [],
      "name": "getSaldo",
      "outputs": [
        {
          "internalType": "uint256",
          "name": "",
          "type": "uint256"
        }
      ],
      "stateMutability": "view",
      "type": "function",
      "constant": true
    },
    {
      "inputs": [
        {
          "internalType": "uint256",
          "name": "eventoId",
          "type": "uint256"
        },
        {
          "internalType": "uint256",
          "name": "opcao",
          "type": "uint256"
        }
      ],
      "name": "apostar",
      "outputs": [],
      "stateMutability": "payable",
      "type": "function",
      "payable": true
    },
    {
      "inputs": [
        {
          "internalType": "uint256",
          "name": "eventoId",
          "type": "uint256"
        }
      ],
      "name": "calcularOdds",
      "outputs": [
        {
          "internalType": "uint256[]",
          "name": "",
          "type": "uint256[]"
        }
      ],
      "stateMutability": "view",
      "type": "function",
      "constant": true
    },
    {
      "inputs": [
        {
          "internalType": "uint256",
          "name": "eventoId",
          "type": "uint256"
        }
      ],
      "name": "getResultado",
      "outputs": [
        {
          "internalType": "string",
          "name": "",
          "type": "string"
        }
      ],
      "stateMutability": "view",
      "type": "function",
      "constant": true
    },
    {
      "inputs": [],
      "name": "sacarSaldo",
      "outputs": [],
      "stateMutability": "nonpayable",
      "type": "function"
    },
    {
      "inputs": [
        {
          "internalType": "uint256",
          "name": "eventoId",
          "type": "uint256"
        }
      ],
      "name": "getInformacoesEvento",
      "outputs": [
        {
          "internalType": "string",
          "name": "descricao",
          "type": "string"
        },
        {
          "internalType": "string",
          "name": "opcaoVencedora",
          "type": "string"
        },
        {
          "internalType": "uint256",
          "name": "totalApostadoresVencedores",
          "type": "uint256"
        },
        {
          "internalType": "uint256",
          "name": "totalApostasVencedoras",
          "type": "uint256"
        },
        {
          "internalType": "uint256",
          "name": "totalApostado",
          "type": "uint256"
        }
      ],
      "stateMutability": "view",
      "type": "function",
      "constant": true
    }
  ],
  "bytecode": "0x608060405234801561000f575f80fd5b506128e68061001d5f395ff3fe6080604052600436106100dc575f3560e01c8063bae978471161007e578063cf3d422711610058578063cf3d4227146102c3578063e2eec9a714610303578063ef7515c31461032d578063f2f6da3e14610355576100dc565b8063bae9784714610235578063c2c0c5121461024b578063c68c061214610287576100dc565b8063330c5209116100ba578063330c5209146101885780633d922f90146101c75780636521e7df146101d157806372fe5597146101f9576100dc565b806301161766146100e0578063087e9d0f1461010a5780631e4ecc171461014c575b5f80fd5b3480156100eb575f80fd5b506100f4610371565b6040516101019190611631565b60405180910390f35b348015610115575f80fd5b50610130600480360381019061012b9190611685565b610376565b6040516101439796959493929190611793565b60405180910390f35b348015610157575f80fd5b50610172600480360381019061016d9190611685565b610471565b60405161017f9190611807565b60405180910390f35b348015610193575f80fd5b506101ae60048036038101906101a99190611685565b61058d565b6040516101be9493929190611827565b60405180910390f35b6101cf61064e565b005b3480156101dc575f80fd5b506101f760048036038101906101f29190611a7f565b6106e5565b005b348015610204575f80fd5b5061021f600480360381019061021a9190611685565b61085b565b60405161022c9190611bbe565b60405180910390f35b348015610240575f80fd5b506102496109cd565b005b348015610256575f80fd5b50610271600480360381019061026c9190611685565b610b8c565b60405161027e9190611ce1565b60405180910390f35b348015610292575f80fd5b506102ad60048036038101906102a89190611d2b565b610c74565b6040516102ba9190611631565b60405180910390f35b3480156102ce575f80fd5b506102e960048036038101906102e49190611685565b610c89565b6040516102fa959493929190611d56565b60405180910390f35b34801561030e575f80fd5b50610317610eff565b6040516103249190611631565b60405180910390f35b348015610338575f80fd5b50610353600480360381019061034e9190611db5565b610f43565b005b61036f600480360381019061036a9190611db5565b611244565b005b5f5481565b6001602052805f5260405f205f91509050805f015490806001015f9054906101000a900473ffffffffffffffffffffffffffffffffffffffff16908060020180546103c090611e20565b80601f01602080910402602001604051908101604052809291908181526020018280546103ec90611e20565b80156104375780601f1061040e57610100808354040283529160200191610437565b820191905f5260205f20905b81548152906001019060200180831161041a57829003601f168201915b505050505090806004015490806005015f9054906101000a900460ff169080600601549080600b015f9054906101000a900460ff16905087565b60605f60015f8481526020019081526020015f209050806005015f9054906101000a900460ff166104d7576040517f08c379a00000000000000000000000000000000000000000000000000000000081526004016104ce90611ec0565b60405180910390fd5b5f816006015490508160030181815481106104f5576104f4611ede565b5b905f5260205f2001805461050890611e20565b80601f016020809104026020016040519081016040528092919081815260200182805461053490611e20565b801561057f5780601f106105565761010080835404028352916020019161057f565b820191905f5260205f20905b81548152906001019060200180831161056257829003601f168201915b505050505092505050919050565b6003818154811061059c575f80fd5b905f5260205f2090600502015f91509050805f0154908060010180546105c190611e20565b80601f01602080910402602001604051908101604052809291908181526020018280546105ed90611e20565b80156106385780601f1061060f57610100808354040283529160200191610638565b820191905f5260205f20905b81548152906001019060200180831161061b57829003601f168201915b5050505050908060030154908060040154905084565b5f3411610690576040517f08c379a000000000000000000000000000000000000000000000000000000000815260040161068790611f7b565b60405180910390fd5b3460025f3373ffffffffffffffffffffffffffffffffffffffff1673ffffffffffffffffffffffffffffffffffffffff1681526020019081526020015f205f8282546106dc9190611fc6565b92505081905550565b6001825111610729576040517f08c379a000000000000000000000000000000000000000000000000000000000815260040161072090612043565b60405180910390fd5b42811161076b576040517f08c379a0000000000000000000000000000000000000000000000000000000008152600401610762906120ab565b60405180910390fd5b5f60015f805481526020019081526020015f2090505f54815f018190555033816001015f6101000a81548173ffffffffffffffffffffffffffffffffffffffff021916908373ffffffffffffffffffffffffffffffffffffffff160217905550838160020190816107dc9190612266565b50828160030190805190602001906107f5929190611547565b508181600401819055507f213389403211e2d8f09e41f6f892e95c3853d6b428f9ff25630a765d88d6b0725f5433858786604051610837959493929190612335565b60405180910390a15f8081548092919061085090612394565b919050555050505050565b60605f60015f8481526020019081526020015f2090505f805b82600301805490508110156108b757826007015f8281526020019081526020015f2054826108a29190611fc6565b915080806108af90612394565b915050610874565b505f826003018054905067ffffffffffffffff8111156108da576108d9611879565b5b6040519080825280602002602001820160405280156109085781602001602082028036833780820191505090505b5090505f5b83600301805490508110156109c1575f846007015f8381526020019081526020015f2054111561098d57836007015f8281526020019081526020015f2054670de0b6b3a76400008461095f91906123db565b6109699190612449565b82828151811061097c5761097b611ede565b5b6020026020010181815250506109ae565b5f8282815181106109a1576109a0611ede565b5b6020026020010181815250505b80806109b990612394565b91505061090d565b50809350505050919050565b5f60025f3373ffffffffffffffffffffffffffffffffffffffff1673ffffffffffffffffffffffffffffffffffffffff1681526020019081526020015f205490505f8111610a50576040517f08c379a0000000000000000000000000000000000000000000000000000000008152600401610a47906124c3565b60405180910390fd5b5f60025f3373ffffffffffffffffffffffffffffffffffffffff1673ffffffffffffffffffffffffffffffffffffffff1681526020019081526020015f20819055505f3373ffffffffffffffffffffffffffffffffffffffff1682604051610ab79061250e565b5f6040518083038185875af1925050503d805f8114610af1576040519150601f19603f3d011682016040523d82523d5f602084013e610af6565b606091505b5050905080610b3a576040517f08c379a0000000000000000000000000000000000000000000000000000000008152600401610b319061256c565b60405180910390fd5b3373ffffffffffffffffffffffffffffffffffffffff167f5fc3b54c181812cec14a4124731c2237ac79ece8eb1febb924fbd79dd36d4ae583604051610b809190611631565b60405180910390a25050565b606060015f8381526020019081526020015f20600301805480602002602001604051908101604052809291908181526020015f905b82821015610c69578382905f5260205f20018054610bde90611e20565b80601f0160208091040260200160405190810160405280929190818152602001828054610c0a90611e20565b8015610c555780601f10610c2c57610100808354040283529160200191610c55565b820191905f5260205f20905b815481529060010190602001808311610c3857829003601f168201915b505050505081526020019060010190610bc1565b505050509050919050565b6002602052805f5260405f205f915090505481565b6060805f805f8060015f8881526020019081526020015f20905080600b015f9054906101000a900460ff16610cf3576040517f08c379a0000000000000000000000000000000000000000000000000000000008152600401610cea906125fa565b60405180910390fd5b806002018054610d0290611e20565b80601f0160208091040260200160405190810160405280929190818152602001828054610d2e90611e20565b8015610d795780601f10610d5057610100808354040283529160200191610d79565b820191905f5260205f20905b815481529060010190602001808311610d5c57829003601f168201915b5050505050955080600301816006015481548110610d9a57610d99611ede565b5b905f5260205f20018054610dad90611e20565b80601f0160208091040260200160405190810160405280929190818152602001828054610dd990611e20565b8015610e245780601f10610dfb57610100808354040283529160200191610e24565b820191905f5260205f20905b815481529060010190602001808311610e0757829003601f168201915b505050505094505f9350806007015f826006015481526020019081526020015f205492505f5b81600a0180549050811015610eab57816006015482600a018281548110610e7457610e73611ede565b5b905f5260205f2090600302016001015403610e98578480610e9490612394565b9550505b8080610ea390612394565b915050610e4a565b505f91505f5b8160030180549050811015610ef457816007015f8281526020019081526020015f205483610edf9190611fc6565b92508080610eec90612394565b915050610eb1565b505091939590929450565b5f60025f3373ffffffffffffffffffffffffffffffffffffffff1673ffffffffffffffffffffffffffffffffffffffff1681526020019081526020015f2054905090565b5f60015f8481526020019081526020015f20905080600401544211610f9d576040517f08c379a0000000000000000000000000000000000000000000000000000000008152600401610f9490612662565b60405180910390fd5b80600b015f9054906101000a900460ff1615610fee576040517f08c379a0000000000000000000000000000000000000000000000000000000008152600401610fe5906126ca565b60405180910390fd5b600181600b015f6101000a81548160ff0219169083151502179055508181600601819055505f816007015f8481526020019081526020015f205490505f805b83600301805490508110156110785784811461106557836007015f8281526020019081526020015f2054826110629190611fc6565b91505b808061107090612394565b91505061102d565b505f821115611204575f5b83600a0180549050811015611202575f84600a0182815481106110a9576110a8611ede565b5b905f5260205f2090600302016040518060600160405290815f82015f9054906101000a900473ffffffffffffffffffffffffffffffffffffffff1673ffffffffffffffffffffffffffffffffffffffff1673ffffffffffffffffffffffffffffffffffffffff168152602001600182015481526020016002820154815250509050858160200151036111ee575f856008015f835f015173ffffffffffffffffffffffffffffffffffffffff1673ffffffffffffffffffffffffffffffffffffffff1681526020019081526020015f205490505f8486836111899190612449565b61119391906123db565b90508060025f855f015173ffffffffffffffffffffffffffffffffffffffff1673ffffffffffffffffffffffffffffffffffffffff1681526020019081526020015f205f8282546111e49190611fc6565b9250508190555050505b5080806111fa90612394565b915050611083565b505b7fc16d8a15e9315c4d672c470040f671c3dad45ddb6b1d7b0434b4be0045eb442e85856040516112359291906126e8565b60405180910390a15050505050565b5f3411611286576040517f08c379a000000000000000000000000000000000000000000000000000000000815260040161127d9061277f565b60405180910390fd5b5f60015f8481526020019081526020015f209050806004015442106112e0576040517f08c379a00000000000000000000000000000000000000000000000000000000081526004016112d7906127e7565b60405180910390fd5b80600301805490508210611329576040517f08c379a00000000000000000000000000000000000000000000000000000000081526004016113209061284f565b60405180910390fd5b34816007015f8481526020019081526020015f205f82825461134b9190611fc6565b925050819055505f816008015f3373ffffffffffffffffffffffffffffffffffffffff1673ffffffffffffffffffffffffffffffffffffffff1681526020019081526020015f2054036113fb578060090133908060018154018082558091505060019003905f5260205f20015f9091909190916101000a81548173ffffffffffffffffffffffffffffffffffffffff021916908373ffffffffffffffffffffffffffffffffffffffff1602179055505b34816008015f3373ffffffffffffffffffffffffffffffffffffffff1673ffffffffffffffffffffffffffffffffffffffff1681526020019081526020015f205f8282546114499190611fc6565b9250508190555080600a0160405180606001604052803373ffffffffffffffffffffffffffffffffffffffff16815260200184815260200134815250908060018154018082558091505060019003905f5260205f2090600302015f909190919091505f820151815f015f6101000a81548173ffffffffffffffffffffffffffffffffffffffff021916908373ffffffffffffffffffffffffffffffffffffffff160217905550602082015181600101556040820151816002015550507f40ebda1cda22ef57268bfb5e0f5e01a536ad33b76d2dbc3ed8a760f6539d92aa8333843460405161153a949392919061286d565b60405180910390a1505050565b828054828255905f5260205f2090810192821561158d579160200282015b8281111561158c57825182908161157c9190612266565b5091602001919060010190611565565b5b50905061159a919061159e565b5090565b5b808211156115bd575f81816115b491906115c1565b5060010161159f565b5090565b5080546115cd90611e20565b5f825580601f106115de57506115fb565b601f0160209004905f5260205f20908101906115fa91906115fe565b5b50565b5b80821115611615575f815f9055506001016115ff565b5090565b5f819050919050565b61162b81611619565b82525050565b5f6020820190506116445f830184611622565b92915050565b5f604051905090565b5f80fd5b5f80fd5b61166481611619565b811461166e575f80fd5b50565b5f8135905061167f8161165b565b92915050565b5f6020828403121561169a57611699611653565b5b5f6116a784828501611671565b91505092915050565b5f73ffffffffffffffffffffffffffffffffffffffff82169050919050565b5f6116d9826116b0565b9050919050565b6116e9816116cf565b82525050565b5f81519050919050565b5f82825260208201905092915050565b5f5b8381101561172657808201518184015260208101905061170b565b5f8484015250505050565b5f601f19601f8301169050919050565b5f61174b826116ef565b61175581856116f9565b9350611765818560208601611709565b61176e81611731565b840191505092915050565b5f8115159050919050565b61178d81611779565b82525050565b5f60e0820190506117a65f83018a611622565b6117b360208301896116e0565b81810360408301526117c58188611741565b90506117d46060830187611622565b6117e16080830186611784565b6117ee60a0830185611622565b6117fb60c0830184611784565b98975050505050505050565b5f6020820190508181035f83015261181f8184611741565b905092915050565b5f60808201905061183a5f830187611622565b818103602083015261184c8186611741565b905061185b6040830185611622565b6118686060830184611622565b95945050505050565b5f80fd5b5f80fd5b7f4e487b71000000000000000000000000000000000000000000000000000000005f52604160045260245ffd5b6118af82611731565b810181811067ffffffffffffffff821117156118ce576118cd611879565b5b80604052505050565b5f6118e061164a565b90506118ec82826118a6565b919050565b5f67ffffffffffffffff82111561190b5761190a611879565b5b61191482611731565b9050602081019050919050565b828183375f83830152505050565b5f61194161193c846118f1565b6118d7565b90508281526020810184848401111561195d5761195c611875565b5b611968848285611921565b509392505050565b5f82601f83011261198457611983611871565b5b813561199484826020860161192f565b91505092915050565b5f67ffffffffffffffff8211156119b7576119b6611879565b5b602082029050602081019050919050565b5f80fd5b5f6119de6119d98461199d565b6118d7565b90508083825260208201905060208402830185811115611a0157611a006119c8565b5b835b81811015611a4857803567ffffffffffffffff811115611a2657611a25611871565b5b808601611a338982611970565b85526020850194505050602081019050611a03565b5050509392505050565b5f82601f830112611a6657611a65611871565b5b8135611a768482602086016119cc565b91505092915050565b5f805f60608486031215611a9657611a95611653565b5b5f84013567ffffffffffffffff811115611ab357611ab2611657565b5b611abf86828701611970565b935050602084013567ffffffffffffffff811115611ae057611adf611657565b5b611aec86828701611a52565b9250506040611afd86828701611671565b9150509250925092565b5f81519050919050565b5f82825260208201905092915050565b5f819050602082019050919050565b611b3981611619565b82525050565b5f611b4a8383611b30565b60208301905092915050565b5f602082019050919050565b5f611b6c82611b07565b611b768185611b11565b9350611b8183611b21565b805f5b83811015611bb1578151611b988882611b3f565b9750611ba383611b56565b925050600181019050611b84565b5085935050505092915050565b5f6020820190508181035f830152611bd68184611b62565b905092915050565b5f81519050919050565b5f82825260208201905092915050565b5f819050602082019050919050565b5f82825260208201905092915050565b5f611c21826116ef565b611c2b8185611c07565b9350611c3b818560208601611709565b611c4481611731565b840191505092915050565b5f611c5a8383611c17565b905092915050565b5f602082019050919050565b5f611c7882611bde565b611c828185611be8565b935083602082028501611c9485611bf8565b805f5b85811015611ccf5784840389528151611cb08582611c4f565b9450611cbb83611c62565b925060208a01995050600181019050611c97565b50829750879550505050505092915050565b5f6020820190508181035f830152611cf98184611c6e565b905092915050565b611d0a816116cf565b8114611d14575f80fd5b50565b5f81359050611d2581611d01565b92915050565b5f60208284031215611d4057611d3f611653565b5b5f611d4d84828501611d17565b91505092915050565b5f60a0820190508181035f830152611d6e8188611741565b90508181036020830152611d828187611741565b9050611d916040830186611622565b611d9e6060830185611622565b611dab6080830184611622565b9695505050505050565b5f8060408385031215611dcb57611dca611653565b5b5f611dd885828601611671565b9250506020611de985828601611671565b9150509250929050565b7f4e487b71000000000000000000000000000000000000000000000000000000005f52602260045260245ffd5b5f6002820490506001821680611e3757607f821691505b602082108103611e4a57611e49611df3565b5b50919050565b7f4f206576656e746f2061696e6461206e616f20666f692066696e616c697a61645f8201527f6f2e000000000000000000000000000000000000000000000000000000000000602082015250565b5f611eaa6022836116f9565b9150611eb582611e50565b604082019050919050565b5f6020820190508181035f830152611ed781611e9e565b9050919050565b7f4e487b71000000000000000000000000000000000000000000000000000000005f52603260045260245ffd5b7f4f2076616c6f7220646f206465706f7369746f206465766520736572206d61695f8201527f6f7220717565207a65726f2e0000000000000000000000000000000000000000602082015250565b5f611f65602c836116f9565b9150611f7082611f0b565b604082019050919050565b5f6020820190508181035f830152611f9281611f59565b9050919050565b7f4e487b71000000000000000000000000000000000000000000000000000000005f52601160045260245ffd5b5f611fd082611619565b9150611fdb83611619565b9250828201905080821115611ff357611ff2611f99565b5b92915050565b7f446576652068617665722070656c6f206d656e6f732032206f70636f65732e005f82015250565b5f61202d601f836116f9565b915061203882611ff9565b602082019050919050565b5f6020820190508181035f83015261205a81612021565b9050919050565b7f5072617a6f206465766520736572206e6f2066757475726f2e000000000000005f82015250565b5f6120956019836116f9565b91506120a082612061565b602082019050919050565b5f6020820190508181035f8301526120c281612089565b9050919050565b5f819050815f5260205f209050919050565b5f6020601f8301049050919050565b5f82821b905092915050565b5f600883026121257fffffffffffffffffffffffffffffffffffffffffffffffffffffffffffffffff826120ea565b61212f86836120ea565b95508019841693508086168417925050509392505050565b5f819050919050565b5f61216a61216561216084611619565b612147565b611619565b9050919050565b5f819050919050565b61218383612150565b61219761218f82612171565b8484546120f6565b825550505050565b5f90565b6121ab61219f565b6121b681848461217a565b505050565b5b818110156121d9576121ce5f826121a3565b6001810190506121bc565b5050565b601f82111561221e576121ef816120c9565b6121f8846120db565b81016020851015612207578190505b61221b612213856120db565b8301826121bb565b50505b505050565b5f82821c905092915050565b5f61223e5f1984600802612223565b1980831691505092915050565b5f612256838361222f565b9150826002028217905092915050565b61226f826116ef565b67ffffffffffffffff81111561228857612287611879565b5b6122928254611e20565b61229d8282856121dd565b5f60209050601f8311600181146122ce575f84156122bc578287015190505b6122c6858261224b565b86555061232d565b601f1984166122dc866120c9565b5f5b82811015612303578489015182556001820191506020850194506020810190506122de565b86831015612320578489015161231c601f89168261222f565b8355505b6001600288020188555050505b505050505050565b5f60a0820190506123485f830188611622565b61235560208301876116e0565b81810360408301526123678186611c6e565b9050818103606083015261237b8185611741565b905061238a6080830184611622565b9695505050505050565b5f61239e82611619565b91507fffffffffffffffffffffffffffffffffffffffffffffffffffffffffffffffff82036123d0576123cf611f99565b5b600182019050919050565b5f6123e582611619565b91506123f083611619565b92508282026123fe81611619565b9150828204841483151761241557612414611f99565b5b5092915050565b7f4e487b71000000000000000000000000000000000000000000000000000000005f52601260045260245ffd5b5f61245382611619565b915061245e83611619565b92508261246e5761246d61241c565b5b828204905092915050565b7f53616c646f20696e737566696369656e74652e000000000000000000000000005f82015250565b5f6124ad6013836116f9565b91506124b882612479565b602082019050919050565b5f6020820190508181035f8301526124da816124a1565b9050919050565b5f81905092915050565b50565b5f6124f95f836124e1565b9150612504826124eb565b5f82019050919050565b5f612518826124ee565b9150819050919050565b7f46616c6861206e61207472616e73666572656e6369612064652073616c646f2e5f82015250565b5f6125566020836116f9565b915061256182612522565b602082019050919050565b5f6020820190508181035f8301526125838161254a565b9050919050565b7f4f206576656e746f2061696e6461206e616f20666f6920656e6365727261646f5f8201527f2e00000000000000000000000000000000000000000000000000000000000000602082015250565b5f6125e46021836116f9565b91506125ef8261258a565b604082019050919050565b5f6020820190508181035f830152612611816125d8565b9050919050565b7f4576656e746f2061696e646120656d20616e64616d656e746f2e0000000000005f82015250565b5f61264c601a836116f9565b915061265782612618565b602082019050919050565b5f6020820190508181035f83015261267981612640565b9050919050565b7f4576656e746f206a6120666f6920656e6365727261646f2e00000000000000005f82015250565b5f6126b46018836116f9565b91506126bf82612680565b602082019050919050565b5f6020820190508181035f8301526126e1816126a8565b9050919050565b5f6040820190506126fb5f830185611622565b6127086020830184611622565b9392505050565b7f56616c6f722064612061706f737461206465766520736572206d61696f7220715f8201527f7565207a65726f2e000000000000000000000000000000000000000000000000602082015250565b5f6127696028836116f9565b91506127748261270f565b604082019050919050565b5f6020820190508181035f8301526127968161275d565b9050919050565b7f41706f7374617320656e63657272616461732e000000000000000000000000005f82015250565b5f6127d16013836116f9565b91506127dc8261279d565b602082019050919050565b5f6020820190508181035f8301526127fe816127c5565b9050919050565b7f4f7063616f20696e76616c6964612e00000000000000000000000000000000005f82015250565b5f612839600f836116f9565b915061284482612805565b602082019050919050565b5f6020820190508181035f8301526128668161282d565b9050919050565b5f6080820190506128805f830187611622565b61288d60208301866116e0565b61289a6040830185611622565b6128a76060830184611622565b9594505050505056fea2646970667358221220901381664e0f5ad7d2dcedb317b97a260d0aeab7ae17f4e497993c33585f0f0e64736f6c63430008150033",
  "immutableReferences": {},
  "source": "// SPDX-License-Identifier: MIT\r\npragma solidity ^0.8.20;\r\n\r\ncontract CasaApostas {\r\n    struct Aposta {\r\n        address apostador;\r\n        uint256 opcao;\r\n        uint256 valor;\r\n    }\r\n\r\n    struct Evento {\r\n        uint256 id;\r\n        address criador;\r\n        string descricao;\r\n        string[] opcoes; // Ex.: [\"Time A vence\", \"Time B vence\", \"Empate\"]\r\n        uint256 prazo;\r\n        bool finalizado;\r\n        uint256 resultado; // ndice da opo vencedora\r\n        mapping(uint256 => uint256) apostasPorOpcao; // Opo => Valor total apostado\r\n        mapping(address => uint256) apostasUsuario;  // Usurio => Valor apostado\r\n        address[] apostadores;\r\n        Aposta[] apostas; // Array de apostas\r\n        bool encerrado; // Status de encerramento\r\n    }\r\n\r\n    struct HistoricoEvento {\r\n        uint256 id;\r\n        string descricao;\r\n        string[] opcoes;\r\n        uint256 resultado;\r\n        uint256 prazo;\r\n    }\r\n\r\n    uint256 public proximoIdEvento;\r\n    mapping(uint256 => Evento) public eventos;\r\n    mapping(address => uint256) public saldos; // Saldo dos usurios no sistema\r\n    HistoricoEvento[] public historico;\r\n\r\n    event EventoCriado(uint256 id, address criador, string[] opcoes, string descricao, uint256 prazo);\r\n    event ApostaFeita(uint256 eventoId, address apostador, uint256 opcao, uint256 valor);\r\n    event ResultadoDefinido(uint256 eventoId, uint256 resultado);\r\n    event EventoEncerrado(uint256 eventoId, uint256 resultado);\r\n    event SaldoSacado(address indexed usuario, uint256 valor);\r\n\r\n    function getOpcoes(uint256 eventoId) public view returns (string[] memory) {\r\n        return eventos[eventoId].opcoes;\r\n    }\r\n\r\n    // Criar um evento de aposta\r\n    function criarEvento(string memory descricao, string[] memory opcoes, uint256 prazo) external {\r\n        require(opcoes.length > 1, \"Deve haver pelo menos 2 opcoes.\");\r\n        require(prazo > block.timestamp, \"Prazo deve ser no futuro.\");\r\n\r\n        Evento storage novoEvento = eventos[proximoIdEvento];\r\n        novoEvento.id = proximoIdEvento;\r\n        novoEvento.criador = msg.sender;\r\n        novoEvento.descricao = descricao;\r\n        novoEvento.opcoes = opcoes;\r\n        novoEvento.prazo = prazo;\r\n\r\n        emit EventoCriado(proximoIdEvento, msg.sender, opcoes, descricao, prazo);\r\n        proximoIdEvento++;\r\n    }\r\n\r\n    // Funo para encerrar evento e distribuir prmios\r\n    function encerrarEvento(uint256 eventoId, uint256 resultado) public {\r\n        Evento storage evento = eventos[eventoId];\r\n        \r\n        // Verificar se o evento j terminou e no foi encerrado ainda\r\n        require(block.timestamp > evento.prazo, \"Evento ainda em andamento.\");\r\n        require(!evento.encerrado, \"Evento ja foi encerrado.\");\r\n\r\n        evento.encerrado = true; // Marca o evento como encerrado\r\n        evento.resultado = resultado; // Define o resultado do evento\r\n\r\n        // Total apostado na opo vencedora\r\n        uint256 totalApostadoVencedor = evento.apostasPorOpcao[resultado];\r\n        uint256 totalPerdedor = 0;\r\n\r\n        for(uint256 i = 0; i < evento.opcoes.length; i++){\r\n                if (i != resultado) {\r\n                    totalPerdedor += evento.apostasPorOpcao[i];\r\n                }\r\n            }\r\n\r\n        if (totalApostadoVencedor > 0) {\r\n            \r\n            // Distribuir prmio para os apostadores da opo vencedora\r\n            for (uint256 i = 0; i < evento.apostas.length; i++) {\r\n                Aposta memory aposta = evento.apostas[i];\r\n                if (aposta.opcao == resultado) {\r\n                    // Clculo do prmio baseado no valor apostado e no total apostado na opo vencedora\r\n                    uint256 valorApostado = evento.apostasUsuario[aposta.apostador];\r\n                    uint256 premio = (valorApostado / totalApostadoVencedor) * totalPerdedor;\r\n                    saldos[aposta.apostador] += premio;\r\n                }\r\n            }\r\n        }\r\n\r\n        // Emitir evento para informar que o evento foi encerrado\r\n        emit EventoEncerrado(eventoId, resultado);\r\n    }\r\n\r\n\r\n    // Funo para depsito\r\n    function depositar() external payable {\r\n        require(msg.value > 0, \"O valor do deposito deve ser maior que zero.\");\r\n        saldos[msg.sender] += msg.value;\r\n    }\r\n\r\n    // Funo para visualizar o saldo\r\n    function getSaldo() external view returns (uint256) {\r\n        return saldos[msg.sender];\r\n    }\r\n\r\n    // Apostar em um evento\r\n    function apostar(uint256 eventoId, uint256 opcao) external payable {\r\n        require(msg.value > 0, \"Valor da aposta deve ser maior que zero.\");\r\n        Evento storage evento = eventos[eventoId];\r\n        require(block.timestamp < evento.prazo, \"Apostas encerradas.\");\r\n        require(opcao < evento.opcoes.length, \"Opcao invalida.\");\r\n\r\n        evento.apostasPorOpcao[opcao] += msg.value;\r\n        if (evento.apostasUsuario[msg.sender] == 0) {\r\n            evento.apostadores.push(msg.sender);\r\n        }\r\n        evento.apostasUsuario[msg.sender] += msg.value;\r\n\r\n        // Registrar aposta no array\r\n        evento.apostas.push(Aposta({\r\n            apostador: msg.sender,\r\n            opcao: opcao,\r\n            valor: msg.value\r\n        }));\r\n\r\n        emit ApostaFeita(eventoId, msg.sender, opcao, msg.value);\r\n    }\r\n\r\n    // Calcular odds\r\n    function calcularOdds(uint256 eventoId) public view returns (uint256[] memory) {\r\n        Evento storage evento = eventos[eventoId];\r\n        uint256 totalApostado = 0;\r\n        for (uint256 i = 0; i < evento.opcoes.length; i++) {\r\n            totalApostado += evento.apostasPorOpcao[i];\r\n        }\r\n\r\n        uint256[] memory odds = new uint256[](evento.opcoes.length);\r\n        for (uint256 i = 0; i < evento.opcoes.length; i++) {\r\n            if (evento.apostasPorOpcao[i] > 0) {\r\n                odds[i] = (totalApostado * 1e18) / evento.apostasPorOpcao[i];\r\n            } else {\r\n                odds[i] = 0;\r\n            }\r\n        }\r\n        return odds;\r\n    }\r\n\r\n    // Visualizar resultado de um evento\r\n    function getResultado(uint256 eventoId) public view returns (string memory) {\r\n        Evento storage evento = eventos[eventoId];\r\n        require(evento.finalizado, \"O evento ainda nao foi finalizado.\");\r\n        uint index = evento.resultado;            \r\n        return evento.opcoes[index];              \r\n    }\r\n\r\n    // Funo para sacar saldo\r\n    function sacarSaldo() external {\r\n        uint256 saldo = saldos[msg.sender];\r\n        require(saldo > 0, \"Saldo insuficiente.\");\r\n\r\n        // Atualizando o saldo antes da transferncia para evitar reentrncia\r\n        saldos[msg.sender] = 0;\r\n\r\n        // Transferindo o saldo usando call para maior segurana\r\n        (bool success, ) = msg.sender.call{value: saldo}(\"\");\r\n        require(success, \"Falha na transferencia de saldo.\");\r\n\r\n        // Emitir evento de saque\r\n        emit SaldoSacado(msg.sender, saldo);\r\n    }\r\n\r\n    // Funo para obter informaes do evento aps o encerramento\r\nfunction getInformacoesEvento(uint256 eventoId) public view returns (\r\n    string memory descricao,\r\n    string memory opcaoVencedora,\r\n    uint256 totalApostadoresVencedores,\r\n    uint256 totalApostasVencedoras,\r\n    uint256 totalApostado\r\n) {\r\n    Evento storage evento = eventos[eventoId];\r\n    require(evento.encerrado, \"O evento ainda nao foi encerrado.\");\r\n\r\n    // Descrio do evento\r\n    descricao = evento.descricao;\r\n\r\n    // Opo vencedora\r\n    opcaoVencedora = evento.opcoes[evento.resultado];\r\n\r\n    // Contar o nmero de apostadores que apostaram na opo vencedora\r\n    totalApostadoresVencedores = 0;\r\n    totalApostasVencedoras = evento.apostasPorOpcao[evento.resultado];\r\n\r\n    for (uint256 i = 0; i < evento.apostas.length; i++) {\r\n        if (evento.apostas[i].opcao == evento.resultado) {\r\n            totalApostadoresVencedores++;\r\n        }\r\n    }\r\n\r\n    // Total apostado no evento\r\n    totalApostado = 0;\r\n    for (uint256 i = 0; i < evento.opcoes.length; i++) {\r\n        totalApostado += evento.apostasPorOpcao[i];\r\n    }\r\n}\r\n}\r\n",
  "sourcePath": "C:\\Users\\thiag\\OneDrive\\Documentos\\Meus projetos\\MI-REDES-3\\projeto\\contracts\\casaApostas.sol",
  "compiler": {
    "name": "solc",
    "version": "0.8.21+commit.d9974bed.Emscripten.clang"
  },
  "schemaVersion": "3.4.16",
  "updatedAt": "2024-12-09T01:03:03.396Z",
  "networkType": "ethereum",
  "devdoc": {
    "kind": "dev",
    "methods": {},
    "version": 1
  },
  "userdoc": {
    "kind": "user",
    "methods": {},
    "version": 1
  }
}