{
  "contractName": "CasaApostas",
  "abi": [
    {
      "anonymous": false,
      "inputs": [
        {
          "indexed": false,
          "internalType": "uint256",
          "name": "eventoId",
          "type": "uint256"
        },
        {
          "indexed": false,
          "internalType": "address",
          "name": "apostador",
          "type": "address"
        },
        {
          "indexed": false,
          "internalType": "uint256",
          "name": "opcao",
          "type": "uint256"
        },
        {
          "indexed": false,
          "internalType": "uint256",
          "name": "valor",
          "type": "uint256"
        }
      ],
      "name": "ApostaFeita",
      "type": "event"
    },
    {
      "anonymous": false,
      "inputs": [
        {
          "indexed": false,
          "internalType": "uint256",
          "name": "id",
          "type": "uint256"
        },
        {
          "indexed": false,
          "internalType": "address",
          "name": "criador",
          "type": "address"
        },
        {
          "indexed": false,
          "internalType": "string[]",
          "name": "opcoes",
          "type": "string[]"
        },
        {
          "indexed": false,
          "internalType": "string",
          "name": "descricao",
          "type": "string"
        },
        {
          "indexed": false,
          "internalType": "uint256",
          "name": "prazo",
          "type": "uint256"
        }
      ],
      "name": "EventoCriado",
      "type": "event"
    },
    {
      "anonymous": false,
      "inputs": [
        {
          "indexed": false,
          "internalType": "uint256",
          "name": "eventoId",
          "type": "uint256"
        },
        {
          "indexed": false,
          "internalType": "uint256",
          "name": "resultado",
          "type": "uint256"
        }
      ],
      "name": "EventoEncerrado",
      "type": "event"
    },
    {
      "anonymous": false,
      "inputs": [
        {
          "indexed": false,
          "internalType": "uint256",
          "name": "eventoId",
          "type": "uint256"
        },
        {
          "indexed": false,
          "internalType": "uint256",
          "name": "resultado",
          "type": "uint256"
        }
      ],
      "name": "ResultadoDefinido",
      "type": "event"
    },
    {
      "anonymous": false,
      "inputs": [
        {
          "indexed": true,
          "internalType": "address",
          "name": "usuario",
          "type": "address"
        },
        {
          "indexed": false,
          "internalType": "uint256",
          "name": "valor",
          "type": "uint256"
        }
      ],
      "name": "SaldoSacado",
      "type": "event"
    },
    {
      "inputs": [
        {
          "internalType": "uint256",
          "name": "",
          "type": "uint256"
        }
      ],
      "name": "eventos",
      "outputs": [
        {
          "internalType": "uint256",
          "name": "id",
          "type": "uint256"
        },
        {
          "internalType": "address",
          "name": "criador",
          "type": "address"
        },
        {
          "internalType": "string",
          "name": "descricao",
          "type": "string"
        },
        {
          "internalType": "uint256",
          "name": "prazo",
          "type": "uint256"
        },
        {
          "internalType": "bool",
          "name": "finalizado",
          "type": "bool"
        },
        {
          "internalType": "uint256",
          "name": "resultado",
          "type": "uint256"
        },
        {
          "internalType": "bool",
          "name": "encerrado",
          "type": "bool"
        }
      ],
      "stateMutability": "view",
      "type": "function",
      "constant": true
    },
    {
      "inputs": [],
      "name": "proximoIdEvento",
      "outputs": [
        {
          "internalType": "uint256",
          "name": "",
          "type": "uint256"
        }
      ],
      "stateMutability": "view",
      "type": "function",
      "constant": true
    },
    {
      "inputs": [
        {
          "internalType": "address",
          "name": "",
          "type": "address"
        }
      ],
      "name": "saldos",
      "outputs": [
        {
          "internalType": "uint256",
          "name": "",
          "type": "uint256"
        }
      ],
      "stateMutability": "view",
      "type": "function",
      "constant": true
    },
    {
      "inputs": [
        {
          "internalType": "uint256",
          "name": "eventoId",
          "type": "uint256"
        }
      ],
      "name": "getOpcoes",
      "outputs": [
        {
          "internalType": "string[]",
          "name": "",
          "type": "string[]"
        }
      ],
      "stateMutability": "view",
      "type": "function",
      "constant": true
    },
    {
      "inputs": [
        {
          "internalType": "string",
          "name": "descricao",
          "type": "string"
        },
        {
          "internalType": "string[]",
          "name": "opcoes",
          "type": "string[]"
        },
        {
          "internalType": "uint256",
          "name": "prazo",
          "type": "uint256"
        }
      ],
      "name": "criarEvento",
      "outputs": [],
      "stateMutability": "nonpayable",
      "type": "function"
    },
    {
      "inputs": [
        {
          "internalType": "uint256",
          "name": "eventoId",
          "type": "uint256"
        },
        {
          "internalType": "uint256",
          "name": "resultado",
          "type": "uint256"
        }
      ],
      "name": "encerrarEvento",
      "outputs": [],
      "stateMutability": "nonpayable",
      "type": "function"
    },
    {
      "inputs": [],
      "name": "depositar",
      "outputs": [],
      "stateMutability": "payable",
      "type": "function",
      "payable": true
    },
    {
      "inputs": [],
      "name": "getSaldo",
      "outputs": [
        {
          "internalType": "uint256",
          "name": "",
          "type": "uint256"
        }
      ],
      "stateMutability": "view",
      "type": "function",
      "constant": true
    },
    {
      "inputs": [
        {
          "internalType": "uint256",
          "name": "eventoId",
          "type": "uint256"
        },
        {
          "internalType": "uint256",
          "name": "opcao",
          "type": "uint256"
        }
      ],
      "name": "apostar",
      "outputs": [],
      "stateMutability": "payable",
      "type": "function",
      "payable": true
    },
    {
      "inputs": [
        {
          "internalType": "uint256",
          "name": "eventoId",
          "type": "uint256"
        }
      ],
      "name": "calcularOdds",
      "outputs": [
        {
          "internalType": "uint256[]",
          "name": "",
          "type": "uint256[]"
        }
      ],
      "stateMutability": "view",
      "type": "function",
      "constant": true
    },
    {
      "inputs": [
        {
          "internalType": "uint256",
          "name": "eventoId",
          "type": "uint256"
        }
      ],
      "name": "getResultado",
      "outputs": [
        {
          "internalType": "string",
          "name": "",
          "type": "string"
        }
      ],
      "stateMutability": "view",
      "type": "function",
      "constant": true
    },
    {
      "inputs": [],
      "name": "sacarSaldo",
      "outputs": [],
      "stateMutability": "nonpayable",
      "type": "function"
    }
  ],
  "bytecode": "0x608060405234801561000f575f80fd5b506124fa8061001d5f395ff3fe6080604052600436106100a6575f3560e01c8063bae9784711610063578063bae97847146101c0578063c2c0c512146101d6578063c68c061214610212578063e2eec9a71461024e578063ef7515c314610278578063f2f6da3e146102a0576100a6565b806301161766146100aa578063087e9d0f146100d45780631e4ecc17146101165780633d922f90146101525780636521e7df1461015c57806372fe559714610184575b5f80fd5b3480156100b5575f80fd5b506100be6102bc565b6040516100cb91906112e1565b60405180910390f35b3480156100df575f80fd5b506100fa60048036038101906100f59190611335565b6102c1565b60405161010d9796959493929190611443565b60405180910390f35b348015610121575f80fd5b5061013c60048036038101906101379190611335565b6103bc565b60405161014991906114b7565b60405180910390f35b61015a6104d8565b005b348015610167575f80fd5b50610182600480360381019061017d91906116e5565b61056f565b005b34801561018f575f80fd5b506101aa60048036038101906101a59190611335565b6106e5565b6040516101b79190611824565b60405180910390f35b3480156101cb575f80fd5b506101d4610857565b005b3480156101e1575f80fd5b506101fc60048036038101906101f79190611335565b610a16565b6040516102099190611947565b60405180910390f35b34801561021d575f80fd5b5061023860048036038101906102339190611991565b610afe565b60405161024591906112e1565b60405180910390f35b348015610259575f80fd5b50610262610b13565b60405161026f91906112e1565b60405180910390f35b348015610283575f80fd5b5061029e600480360381019061029991906119bc565b610b57565b005b6102ba60048036038101906102b591906119bc565b610e74565b005b5f5481565b6001602052805f5260405f205f91509050805f015490806001015f9054906101000a900473ffffffffffffffffffffffffffffffffffffffff169080600201805461030b90611a27565b80601f016020809104026020016040519081016040528092919081815260200182805461033790611a27565b80156103825780601f1061035957610100808354040283529160200191610382565b820191905f5260205f20905b81548152906001019060200180831161036557829003601f168201915b505050505090806004015490806005015f9054906101000a900460ff169080600601549080600b015f9054906101000a900460ff16905087565b60605f60015f8481526020019081526020015f209050806005015f9054906101000a900460ff16610422576040517f08c379a000000000000000000000000000000000000000000000000000000000815260040161041990611ac7565b60405180910390fd5b5f816006015490508160030181815481106104405761043f611ae5565b5b905f5260205f2001805461045390611a27565b80601f016020809104026020016040519081016040528092919081815260200182805461047f90611a27565b80156104ca5780601f106104a1576101008083540402835291602001916104ca565b820191905f5260205f20905b8154815290600101906020018083116104ad57829003601f168201915b505050505092505050919050565b5f341161051a576040517f08c379a000000000000000000000000000000000000000000000000000000000815260040161051190611b82565b60405180910390fd5b3460025f3373ffffffffffffffffffffffffffffffffffffffff1673ffffffffffffffffffffffffffffffffffffffff1681526020019081526020015f205f8282546105669190611bcd565b92505081905550565b60018251116105b3576040517f08c379a00000000000000000000000000000000000000000000000000000000081526004016105aa90611c4a565b60405180910390fd5b4281116105f5576040517f08c379a00000000000000000000000000000000000000000000000000000000081526004016105ec90611cb2565b60405180910390fd5b5f60015f805481526020019081526020015f2090505f54815f018190555033816001015f6101000a81548173ffffffffffffffffffffffffffffffffffffffff021916908373ffffffffffffffffffffffffffffffffffffffff160217905550838160020190816106669190611e6d565b508281600301908051906020019061067f9291906111f7565b508181600401819055507f213389403211e2d8f09e41f6f892e95c3853d6b428f9ff25630a765d88d6b0725f54338587866040516106c1959493929190611f3c565b60405180910390a15f808154809291906106da90611f9b565b919050555050505050565b60605f60015f8481526020019081526020015f2090505f805b826003018054905081101561074157826007015f8281526020019081526020015f20548261072c9190611bcd565b9150808061073990611f9b565b9150506106fe565b505f826003018054905067ffffffffffffffff811115610764576107636114df565b5b6040519080825280602002602001820160405280156107925781602001602082028036833780820191505090505b5090505f5b836003018054905081101561084b575f846007015f8381526020019081526020015f2054111561081757836007015f8281526020019081526020015f2054670de0b6b3a7640000846107e99190611fe2565b6107f39190612050565b82828151811061080657610805611ae5565b5b602002602001018181525050610838565b5f82828151811061082b5761082a611ae5565b5b6020026020010181815250505b808061084390611f9b565b915050610797565b50809350505050919050565b5f60025f3373ffffffffffffffffffffffffffffffffffffffff1673ffffffffffffffffffffffffffffffffffffffff1681526020019081526020015f205490505f81116108da576040517f08c379a00000000000000000000000000000000000000000000000000000000081526004016108d1906120ca565b60405180910390fd5b5f60025f3373ffffffffffffffffffffffffffffffffffffffff1673ffffffffffffffffffffffffffffffffffffffff1681526020019081526020015f20819055505f3373ffffffffffffffffffffffffffffffffffffffff168260405161094190612115565b5f6040518083038185875af1925050503d805f811461097b576040519150601f19603f3d011682016040523d82523d5f602084013e610980565b606091505b50509050806109c4576040517f08c379a00000000000000000000000000000000000000000000000000000000081526004016109bb90612173565b60405180910390fd5b3373ffffffffffffffffffffffffffffffffffffffff167f5fc3b54c181812cec14a4124731c2237ac79ece8eb1febb924fbd79dd36d4ae583604051610a0a91906112e1565b60405180910390a25050565b606060015f8381526020019081526020015f20600301805480602002602001604051908101604052809291908181526020015f905b82821015610af3578382905f5260205f20018054610a6890611a27565b80601f0160208091040260200160405190810160405280929190818152602001828054610a9490611a27565b8015610adf5780601f10610ab657610100808354040283529160200191610adf565b820191905f5260205f20905b815481529060010190602001808311610ac257829003601f168201915b505050505081526020019060010190610a4b565b505050509050919050565b6002602052805f5260405f205f915090505481565b5f60025f3373ffffffffffffffffffffffffffffffffffffffff1673ffffffffffffffffffffffffffffffffffffffff1681526020019081526020015f2054905090565b5f60015f8481526020019081526020015f20905080600401544211610bb1576040517f08c379a0000000000000000000000000000000000000000000000000000000008152600401610ba8906121db565b60405180910390fd5b80600b015f9054906101000a900460ff1615610c02576040517f08c379a0000000000000000000000000000000000000000000000000000000008152600401610bf990612243565b60405180910390fd5b600181600b015f6101000a81548160ff0219169083151502179055508181600601819055505f816007015f8481526020019081526020015f205490505f805b8360030180549050811015610c8c57848114610c7957836007015f8281526020019081526020015f205482610c769190611bcd565b91505b8080610c8490611f9b565b915050610c41565b505f821115610e34575f5b83600a0180549050811015610e32575f84600a018281548110610cbd57610cbc611ae5565b5b905f5260205f2090600302016040518060600160405290815f82015f9054906101000a900473ffffffffffffffffffffffffffffffffffffffff1673ffffffffffffffffffffffffffffffffffffffff1673ffffffffffffffffffffffffffffffffffffffff16815260200160018201548152602001600282015481525050905085816020015103610dc3575f83858360400151610d5b9190612050565b610d659190611fe2565b90508060025f845f015173ffffffffffffffffffffffffffffffffffffffff1673ffffffffffffffffffffffffffffffffffffffff1681526020019081526020015f205f828254610db69190611bcd565b9250508190555050610e1e565b806040015160025f835f015173ffffffffffffffffffffffffffffffffffffffff1673ffffffffffffffffffffffffffffffffffffffff1681526020019081526020015f205f828254610e169190612261565b925050819055505b508080610e2a90611f9b565b915050610c97565b505b7fc16d8a15e9315c4d672c470040f671c3dad45ddb6b1d7b0434b4be0045eb442e8585604051610e65929190612294565b60405180910390a15050505050565b5f3411610eb6576040517f08c379a0000000000000000000000000000000000000000000000000000000008152600401610ead9061232b565b60405180910390fd5b5f60015f8481526020019081526020015f20905080600401544210610f10576040517f08c379a0000000000000000000000000000000000000000000000000000000008152600401610f0790612393565b60405180910390fd5b80600301805490508210610f59576040517f08c379a0000000000000000000000000000000000000000000000000000000008152600401610f50906123fb565b60405180910390fd5b3460025f3373ffffffffffffffffffffffffffffffffffffffff1673ffffffffffffffffffffffffffffffffffffffff1681526020019081526020015f20541015610fd9576040517f08c379a0000000000000000000000000000000000000000000000000000000008152600401610fd090612463565b60405180910390fd5b34816007015f8481526020019081526020015f205f828254610ffb9190611bcd565b925050819055505f816008015f3373ffffffffffffffffffffffffffffffffffffffff1673ffffffffffffffffffffffffffffffffffffffff1681526020019081526020015f2054036110ab578060090133908060018154018082558091505060019003905f5260205f20015f9091909190916101000a81548173ffffffffffffffffffffffffffffffffffffffff021916908373ffffffffffffffffffffffffffffffffffffffff1602179055505b34816008015f3373ffffffffffffffffffffffffffffffffffffffff1673ffffffffffffffffffffffffffffffffffffffff1681526020019081526020015f205f8282546110f99190611bcd565b9250508190555080600a0160405180606001604052803373ffffffffffffffffffffffffffffffffffffffff16815260200184815260200134815250908060018154018082558091505060019003905f5260205f2090600302015f909190919091505f820151815f015f6101000a81548173ffffffffffffffffffffffffffffffffffffffff021916908373ffffffffffffffffffffffffffffffffffffffff160217905550602082015181600101556040820151816002015550507f40ebda1cda22ef57268bfb5e0f5e01a536ad33b76d2dbc3ed8a760f6539d92aa833384346040516111ea9493929190612481565b60405180910390a1505050565b828054828255905f5260205f2090810192821561123d579160200282015b8281111561123c57825182908161122c9190611e6d565b5091602001919060010190611215565b5b50905061124a919061124e565b5090565b5b8082111561126d575f81816112649190611271565b5060010161124f565b5090565b50805461127d90611a27565b5f825580601f1061128e57506112ab565b601f0160209004905f5260205f20908101906112aa91906112ae565b5b50565b5b808211156112c5575f815f9055506001016112af565b5090565b5f819050919050565b6112db816112c9565b82525050565b5f6020820190506112f45f8301846112d2565b92915050565b5f604051905090565b5f80fd5b5f80fd5b611314816112c9565b811461131e575f80fd5b50565b5f8135905061132f8161130b565b92915050565b5f6020828403121561134a57611349611303565b5b5f61135784828501611321565b91505092915050565b5f73ffffffffffffffffffffffffffffffffffffffff82169050919050565b5f61138982611360565b9050919050565b6113998161137f565b82525050565b5f81519050919050565b5f82825260208201905092915050565b5f5b838110156113d65780820151818401526020810190506113bb565b5f8484015250505050565b5f601f19601f8301169050919050565b5f6113fb8261139f565b61140581856113a9565b93506114158185602086016113b9565b61141e816113e1565b840191505092915050565b5f8115159050919050565b61143d81611429565b82525050565b5f60e0820190506114565f83018a6112d2565b6114636020830189611390565b818103604083015261147581886113f1565b905061148460608301876112d2565b6114916080830186611434565b61149e60a08301856112d2565b6114ab60c0830184611434565b98975050505050505050565b5f6020820190508181035f8301526114cf81846113f1565b905092915050565b5f80fd5b5f80fd5b7f4e487b71000000000000000000000000000000000000000000000000000000005f52604160045260245ffd5b611515826113e1565b810181811067ffffffffffffffff82111715611534576115336114df565b5b80604052505050565b5f6115466112fa565b9050611552828261150c565b919050565b5f67ffffffffffffffff821115611571576115706114df565b5b61157a826113e1565b9050602081019050919050565b828183375f83830152505050565b5f6115a76115a284611557565b61153d565b9050828152602081018484840111156115c3576115c26114db565b5b6115ce848285611587565b509392505050565b5f82601f8301126115ea576115e96114d7565b5b81356115fa848260208601611595565b91505092915050565b5f67ffffffffffffffff82111561161d5761161c6114df565b5b602082029050602081019050919050565b5f80fd5b5f61164461163f84611603565b61153d565b905080838252602082019050602084028301858111156116675761166661162e565b5b835b818110156116ae57803567ffffffffffffffff81111561168c5761168b6114d7565b5b80860161169989826115d6565b85526020850194505050602081019050611669565b5050509392505050565b5f82601f8301126116cc576116cb6114d7565b5b81356116dc848260208601611632565b91505092915050565b5f805f606084860312156116fc576116fb611303565b5b5f84013567ffffffffffffffff81111561171957611718611307565b5b611725868287016115d6565b935050602084013567ffffffffffffffff81111561174657611745611307565b5b611752868287016116b8565b925050604061176386828701611321565b9150509250925092565b5f81519050919050565b5f82825260208201905092915050565b5f819050602082019050919050565b61179f816112c9565b82525050565b5f6117b08383611796565b60208301905092915050565b5f602082019050919050565b5f6117d28261176d565b6117dc8185611777565b93506117e783611787565b805f5b838110156118175781516117fe88826117a5565b9750611809836117bc565b9250506001810190506117ea565b5085935050505092915050565b5f6020820190508181035f83015261183c81846117c8565b905092915050565b5f81519050919050565b5f82825260208201905092915050565b5f819050602082019050919050565b5f82825260208201905092915050565b5f6118878261139f565b611891818561186d565b93506118a18185602086016113b9565b6118aa816113e1565b840191505092915050565b5f6118c0838361187d565b905092915050565b5f602082019050919050565b5f6118de82611844565b6118e8818561184e565b9350836020820285016118fa8561185e565b805f5b85811015611935578484038952815161191685826118b5565b9450611921836118c8565b925060208a019950506001810190506118fd565b50829750879550505050505092915050565b5f6020820190508181035f83015261195f81846118d4565b905092915050565b6119708161137f565b811461197a575f80fd5b50565b5f8135905061198b81611967565b92915050565b5f602082840312156119a6576119a5611303565b5b5f6119b38482850161197d565b91505092915050565b5f80604083850312156119d2576119d1611303565b5b5f6119df85828601611321565b92505060206119f085828601611321565b9150509250929050565b7f4e487b71000000000000000000000000000000000000000000000000000000005f52602260045260245ffd5b5f6002820490506001821680611a3e57607f821691505b602082108103611a5157611a506119fa565b5b50919050565b7f4f206576656e746f2061696e6461206e616f20666f692066696e616c697a61645f8201527f6f2e000000000000000000000000000000000000000000000000000000000000602082015250565b5f611ab16022836113a9565b9150611abc82611a57565b604082019050919050565b5f6020820190508181035f830152611ade81611aa5565b9050919050565b7f4e487b71000000000000000000000000000000000000000000000000000000005f52603260045260245ffd5b7f4f2076616c6f7220646f206465706f7369746f206465766520736572206d61695f8201527f6f7220717565207a65726f2e0000000000000000000000000000000000000000602082015250565b5f611b6c602c836113a9565b9150611b7782611b12565b604082019050919050565b5f6020820190508181035f830152611b9981611b60565b9050919050565b7f4e487b71000000000000000000000000000000000000000000000000000000005f52601160045260245ffd5b5f611bd7826112c9565b9150611be2836112c9565b9250828201905080821115611bfa57611bf9611ba0565b5b92915050565b7f446576652068617665722070656c6f206d656e6f732032206f70636f65732e005f82015250565b5f611c34601f836113a9565b9150611c3f82611c00565b602082019050919050565b5f6020820190508181035f830152611c6181611c28565b9050919050565b7f5072617a6f206465766520736572206e6f2066757475726f2e000000000000005f82015250565b5f611c9c6019836113a9565b9150611ca782611c68565b602082019050919050565b5f6020820190508181035f830152611cc981611c90565b9050919050565b5f819050815f5260205f209050919050565b5f6020601f8301049050919050565b5f82821b905092915050565b5f60088302611d2c7fffffffffffffffffffffffffffffffffffffffffffffffffffffffffffffffff82611cf1565b611d368683611cf1565b95508019841693508086168417925050509392505050565b5f819050919050565b5f611d71611d6c611d67846112c9565b611d4e565b6112c9565b9050919050565b5f819050919050565b611d8a83611d57565b611d9e611d9682611d78565b848454611cfd565b825550505050565b5f90565b611db2611da6565b611dbd818484611d81565b505050565b5b81811015611de057611dd55f82611daa565b600181019050611dc3565b5050565b601f821115611e2557611df681611cd0565b611dff84611ce2565b81016020851015611e0e578190505b611e22611e1a85611ce2565b830182611dc2565b50505b505050565b5f82821c905092915050565b5f611e455f1984600802611e2a565b1980831691505092915050565b5f611e5d8383611e36565b9150826002028217905092915050565b611e768261139f565b67ffffffffffffffff811115611e8f57611e8e6114df565b5b611e998254611a27565b611ea4828285611de4565b5f60209050601f831160018114611ed5575f8415611ec3578287015190505b611ecd8582611e52565b865550611f34565b601f198416611ee386611cd0565b5f5b82811015611f0a57848901518255600182019150602085019450602081019050611ee5565b86831015611f275784890151611f23601f891682611e36565b8355505b6001600288020188555050505b505050505050565b5f60a082019050611f4f5f8301886112d2565b611f5c6020830187611390565b8181036040830152611f6e81866118d4565b90508181036060830152611f8281856113f1565b9050611f9160808301846112d2565b9695505050505050565b5f611fa5826112c9565b91507fffffffffffffffffffffffffffffffffffffffffffffffffffffffffffffffff8203611fd757611fd6611ba0565b5b600182019050919050565b5f611fec826112c9565b9150611ff7836112c9565b9250828202612005816112c9565b9150828204841483151761201c5761201b611ba0565b5b5092915050565b7f4e487b71000000000000000000000000000000000000000000000000000000005f52601260045260245ffd5b5f61205a826112c9565b9150612065836112c9565b92508261207557612074612023565b5b828204905092915050565b7f53616c646f20696e737566696369656e74652e000000000000000000000000005f82015250565b5f6120b46013836113a9565b91506120bf82612080565b602082019050919050565b5f6020820190508181035f8301526120e1816120a8565b9050919050565b5f81905092915050565b50565b5f6121005f836120e8565b915061210b826120f2565b5f82019050919050565b5f61211f826120f5565b9150819050919050565b7f46616c6861206e61207472616e73666572656e6369612064652073616c646f2e5f82015250565b5f61215d6020836113a9565b915061216882612129565b602082019050919050565b5f6020820190508181035f83015261218a81612151565b9050919050565b7f4576656e746f2061696e646120656d20616e64616d656e746f2e0000000000005f82015250565b5f6121c5601a836113a9565b91506121d082612191565b602082019050919050565b5f6020820190508181035f8301526121f2816121b9565b9050919050565b7f4576656e746f206a6120666f6920656e6365727261646f2e00000000000000005f82015250565b5f61222d6018836113a9565b9150612238826121f9565b602082019050919050565b5f6020820190508181035f83015261225a81612221565b9050919050565b5f61226b826112c9565b9150612276836112c9565b925082820390508181111561228e5761228d611ba0565b5b92915050565b5f6040820190506122a75f8301856112d2565b6122b460208301846112d2565b9392505050565b7f56616c6f722064612061706f737461206465766520736572206d61696f7220715f8201527f7565207a65726f2e000000000000000000000000000000000000000000000000602082015250565b5f6123156028836113a9565b9150612320826122bb565b604082019050919050565b5f6020820190508181035f83015261234281612309565b9050919050565b7f41706f7374617320656e63657272616461732e000000000000000000000000005f82015250565b5f61237d6013836113a9565b915061238882612349565b602082019050919050565b5f6020820190508181035f8301526123aa81612371565b9050919050565b7f4f7063616f20696e76616c6964612e00000000000000000000000000000000005f82015250565b5f6123e5600f836113a9565b91506123f0826123b1565b602082019050919050565b5f6020820190508181035f830152612412816123d9565b9050919050565b7f53616c646f20696e737566696369656e746500000000000000000000000000005f82015250565b5f61244d6012836113a9565b915061245882612419565b602082019050919050565b5f6020820190508181035f83015261247a81612441565b9050919050565b5f6080820190506124945f8301876112d2565b6124a16020830186611390565b6124ae60408301856112d2565b6124bb60608301846112d2565b9594505050505056fea264697066735822122065865e37d4c02a87bb6ca56ad6ed9e6a4c5cb97c80e4e7373c227500e0e6f77864736f6c63430008150033",
  "immutableReferences": {},
  "source": "// SPDX-License-Identifier: MIT\r\npragma solidity ^0.8.20;\r\n\r\ncontract CasaApostas {\r\n    struct Aposta {\r\n        address apostador;\r\n        uint256 opcao;\r\n        uint256 valor;\r\n    }\r\n\r\n    struct Evento {\r\n        uint256 id;\r\n        address criador;\r\n        string descricao;\r\n        string[] opcoes; // Ex.: [\"Time A vence\", \"Time B vence\", \"Empate\"]\r\n        uint256 prazo;\r\n        bool finalizado;\r\n        uint256 resultado; // ndice da opo vencedora\r\n        mapping(uint256 => uint256) apostasPorOpcao; // Opo => Valor total apostado\r\n        mapping(address => uint256) apostasUsuario; // Usurio => Valor apostado\r\n        address[] apostadores;\r\n        Aposta[] apostas; // Array de apostas\r\n        bool encerrado; // Status de encerramento\r\n    }\r\n\r\n    uint256 public proximoIdEvento;\r\n    mapping(uint256 => Evento) public eventos;\r\n    mapping(address => uint256) public saldos; // Saldo dos usurios no sistema\r\n\r\n    event EventoCriado(\r\n        uint256 id,\r\n        address criador,\r\n        string[] opcoes,\r\n        string descricao,\r\n        uint256 prazo\r\n    );\r\n    event ApostaFeita(\r\n        uint256 eventoId,\r\n        address apostador,\r\n        uint256 opcao,\r\n        uint256 valor\r\n    );\r\n    event ResultadoDefinido(uint256 eventoId, uint256 resultado);\r\n    event EventoEncerrado(uint256 eventoId, uint256 resultado);\r\n    event SaldoSacado(address indexed usuario, uint256 valor);\r\n\r\n    function getOpcoes(uint256 eventoId) public view returns (string[] memory) {\r\n        return eventos[eventoId].opcoes;\r\n    }\r\n\r\n    // Criar um evento de aposta\r\n    function criarEvento(\r\n        string memory descricao,\r\n        string[] memory opcoes,\r\n        uint256 prazo\r\n    ) external {\r\n        require(opcoes.length > 1, \"Deve haver pelo menos 2 opcoes.\");\r\n        require(prazo > block.timestamp, \"Prazo deve ser no futuro.\");\r\n\r\n        Evento storage novoEvento = eventos[proximoIdEvento];\r\n        novoEvento.id = proximoIdEvento;\r\n        novoEvento.criador = msg.sender;\r\n        novoEvento.descricao = descricao;\r\n        novoEvento.opcoes = opcoes;\r\n        novoEvento.prazo = prazo;\r\n\r\n        emit EventoCriado(\r\n            proximoIdEvento,\r\n            msg.sender,\r\n            opcoes,\r\n            descricao,\r\n            prazo\r\n        );\r\n        proximoIdEvento++;\r\n    }\r\n\r\n    // Funo para encerrar evento e distribuir prmios\r\n    function encerrarEvento(uint256 eventoId, uint256 resultado) public {\r\n        Evento storage evento = eventos[eventoId];\r\n\r\n        // Verificar se o evento j terminou e no foi encerrado ainda\r\n        require(block.timestamp > evento.prazo, \"Evento ainda em andamento.\");\r\n        require(!evento.encerrado, \"Evento ja foi encerrado.\");\r\n\r\n        evento.encerrado = true; // Marca o evento como encerrado\r\n        evento.resultado = resultado; // Define o resultado do evento\r\n\r\n        // Total apostado na opo vencedora\r\n        uint256 totalApostado = evento.apostasPorOpcao[resultado];\r\n        uint256 totalPerdedor = 0;\r\n        for (uint256 i = 0; i < evento.opcoes.length; i++) {\r\n            if (i != resultado) {\r\n                totalPerdedor += evento.apostasPorOpcao[i];\r\n            }\r\n        }\r\n        if (totalApostado > 0) {\r\n            // Distribuir prmio para os apostadores da opo vencedora\r\n            for (uint256 i = 0; i < evento.apostas.length; i++) {\r\n                Aposta memory aposta = evento.apostas[i];\r\n                if (aposta.opcao == resultado) {\r\n                    // Clculo do prmio baseado no valor apostado e no total apostado na opo vencedora\r\n                    uint256 premio = (aposta.valor / totalApostado) *\r\n                        totalPerdedor;\r\n                    saldos[aposta.apostador] += premio;\r\n                } else {\r\n                    saldos[aposta.apostador] -= aposta.valor;\r\n                }\r\n            }\r\n        }\r\n\r\n        // Emitir evento para informar que o evento foi encerrado\r\n        emit EventoEncerrado(eventoId, resultado);\r\n    }\r\n\r\n    // Funo para depsito\r\n    function depositar() external payable {\r\n        require(msg.value > 0, \"O valor do deposito deve ser maior que zero.\");\r\n        saldos[msg.sender] += msg.value;\r\n    }\r\n\r\n    // Funo para visualizar o saldo\r\n    function getSaldo() external view returns (uint256) {\r\n        return saldos[msg.sender];\r\n    }\r\n\r\n    // Apostar em um evento\r\n    function apostar(uint256 eventoId, uint256 opcao) external payable {\r\n        require(msg.value > 0, \"Valor da aposta deve ser maior que zero.\");\r\n        Evento storage evento = eventos[eventoId];\r\n        require(block.timestamp < evento.prazo, \"Apostas encerradas.\");\r\n        require(opcao < evento.opcoes.length, \"Opcao invalida.\");\r\n        require(saldos[msg.sender] >= msg.value, \"Saldo insuficiente\");\r\n\r\n        evento.apostasPorOpcao[opcao] += msg.value;\r\n        if (evento.apostasUsuario[msg.sender] == 0) {\r\n            evento.apostadores.push(msg.sender);\r\n        }\r\n        evento.apostasUsuario[msg.sender] += msg.value;\r\n\r\n        // Registrar aposta no array\r\n        evento.apostas.push(\r\n            Aposta({apostador: msg.sender, opcao: opcao, valor: msg.value})\r\n        );\r\n\r\n        emit ApostaFeita(eventoId, msg.sender, opcao, msg.value);\r\n    }\r\n\r\n    // Calcular odds\r\n    function calcularOdds(\r\n        uint256 eventoId\r\n    ) public view returns (uint256[] memory) {\r\n        Evento storage evento = eventos[eventoId];\r\n        uint256 totalApostado = 0;\r\n        for (uint256 i = 0; i < evento.opcoes.length; i++) {\r\n            totalApostado += evento.apostasPorOpcao[i];\r\n        }\r\n\r\n        uint256[] memory odds = new uint256[](evento.opcoes.length);\r\n        for (uint256 i = 0; i < evento.opcoes.length; i++) {\r\n            if (evento.apostasPorOpcao[i] > 0) {\r\n                odds[i] = (totalApostado * 1e18) / evento.apostasPorOpcao[i];\r\n            } else {\r\n                odds[i] = 0;\r\n            }\r\n        }\r\n        return odds;\r\n    }\r\n\r\n    // Visualizar resultado de um evento\r\n    function getResultado(\r\n        uint256 eventoId\r\n    ) public view returns (string memory) {\r\n        Evento storage evento = eventos[eventoId];\r\n        require(evento.finalizado, \"O evento ainda nao foi finalizado.\");\r\n        uint index = evento.resultado;\r\n        return evento.opcoes[index];\r\n    }\r\n\r\n    // Funo para sacar saldo\r\n    function sacarSaldo() external {\r\n        uint256 saldo = saldos[msg.sender];\r\n        require(saldo > 0, \"Saldo insuficiente.\");\r\n\r\n        // Atualizando o saldo antes da transferncia para evitar reentrncia\r\n        saldos[msg.sender] = 0;\r\n\r\n        // Transferindo o saldo usando call para maior segurana\r\n        (bool success, ) = msg.sender.call{value: saldo}(\"\");\r\n        require(success, \"Falha na transferencia de saldo.\");\r\n\r\n        // Emitir evento de saque\r\n        emit SaldoSacado(msg.sender, saldo);\r\n    }\r\n}\r\n",
  "sourcePath": "D:\\Gits\\UEFS\\MI-REDES-3\\projeto\\contracts\\casaApostas.sol",
  "compiler": {
    "name": "solc",
    "version": "0.8.21+commit.d9974bed.Emscripten.clang"
  },
  "schemaVersion": "3.4.16",
  "updatedAt": "2024-12-11T02:13:15.762Z",
  "networkType": "ethereum",
  "devdoc": {
    "kind": "dev",
    "methods": {},
    "version": 1
  },
  "userdoc": {
    "kind": "user",
    "methods": {},
    "version": 1
  }
}