{
  "contractName": "CasaApostas",
  "abi": [
    {
      "anonymous": false,
      "inputs": [
        {
          "indexed": false,
          "internalType": "uint256",
          "name": "eventoId",
          "type": "uint256"
        },
        {
          "indexed": false,
          "internalType": "address",
          "name": "apostador",
          "type": "address"
        },
        {
          "indexed": false,
          "internalType": "uint256",
          "name": "opcao",
          "type": "uint256"
        },
        {
          "indexed": false,
          "internalType": "uint256",
          "name": "valor",
          "type": "uint256"
        }
      ],
      "name": "ApostaFeita",
      "type": "event"
    },
    {
      "anonymous": false,
      "inputs": [
        {
          "indexed": false,
          "internalType": "uint256",
          "name": "id",
          "type": "uint256"
        },
        {
          "indexed": false,
          "internalType": "address",
          "name": "criador",
          "type": "address"
        },
        {
          "indexed": false,
          "internalType": "string[]",
          "name": "opcoes",
          "type": "string[]"
        },
        {
          "indexed": false,
          "internalType": "string",
          "name": "descricao",
          "type": "string"
        },
        {
          "indexed": false,
          "internalType": "uint256",
          "name": "prazo",
          "type": "uint256"
        }
      ],
      "name": "EventoCriado",
      "type": "event"
    },
    {
      "anonymous": false,
      "inputs": [
        {
          "indexed": false,
          "internalType": "uint256",
          "name": "eventoId",
          "type": "uint256"
        },
        {
          "indexed": false,
          "internalType": "uint256",
          "name": "resultado",
          "type": "uint256"
        }
      ],
      "name": "ResultadoDefinido",
      "type": "event"
    },
    {
      "inputs": [
        {
          "internalType": "uint256",
          "name": "",
          "type": "uint256"
        }
      ],
      "name": "eventos",
      "outputs": [
        {
          "internalType": "uint256",
          "name": "id",
          "type": "uint256"
        },
        {
          "internalType": "address",
          "name": "criador",
          "type": "address"
        },
        {
          "internalType": "string",
          "name": "descricao",
          "type": "string"
        },
        {
          "internalType": "uint256",
          "name": "prazo",
          "type": "uint256"
        },
        {
          "internalType": "bool",
          "name": "finalizado",
          "type": "bool"
        },
        {
          "internalType": "uint256",
          "name": "resultado",
          "type": "uint256"
        }
      ],
      "stateMutability": "view",
      "type": "function",
      "constant": true
    },
    {
      "inputs": [],
      "name": "proximoIdEvento",
      "outputs": [
        {
          "internalType": "uint256",
          "name": "",
          "type": "uint256"
        }
      ],
      "stateMutability": "view",
      "type": "function",
      "constant": true
    },
    {
      "inputs": [
        {
          "internalType": "address",
          "name": "",
          "type": "address"
        }
      ],
      "name": "saldos",
      "outputs": [
        {
          "internalType": "uint256",
          "name": "",
          "type": "uint256"
        }
      ],
      "stateMutability": "view",
      "type": "function",
      "constant": true
    },
    {
      "inputs": [
        {
          "internalType": "string",
          "name": "descricao",
          "type": "string"
        },
        {
          "internalType": "string[]",
          "name": "opcoes",
          "type": "string[]"
        },
        {
          "internalType": "uint256",
          "name": "prazo",
          "type": "uint256"
        }
      ],
      "name": "criarEvento",
      "outputs": [],
      "stateMutability": "nonpayable",
      "type": "function"
    },
    {
      "inputs": [
        {
          "internalType": "uint256",
          "name": "eventoId",
          "type": "uint256"
        },
        {
          "internalType": "uint256",
          "name": "opcao",
          "type": "uint256"
        }
      ],
      "name": "apostar",
      "outputs": [],
      "stateMutability": "payable",
      "type": "function",
      "payable": true
    },
    {
      "inputs": [
        {
          "internalType": "uint256",
          "name": "eventoId",
          "type": "uint256"
        },
        {
          "internalType": "uint256",
          "name": "resultado",
          "type": "uint256"
        }
      ],
      "name": "definirResultado",
      "outputs": [],
      "stateMutability": "nonpayable",
      "type": "function"
    },
    {
      "inputs": [],
      "name": "sacarSaldo",
      "outputs": [],
      "stateMutability": "nonpayable",
      "type": "function"
    }
  ],
  "bytecode": "0x608060405234801561000f575f80fd5b50611b6c8061001d5f395ff3fe60806040526004361061006f575f3560e01c80636521e7df1161004d5780636521e7df14610106578063bae978471461012e578063c68c061214610144578063f2f6da3e146101805761006f565b80630116176614610073578063087e9d0f1461009d57806342072b00146100de575b5f80fd5b34801561007e575f80fd5b5061008761019c565b6040516100949190610be2565b60405180910390f35b3480156100a8575f80fd5b506100c360048036038101906100be9190610c36565b6101a1565b6040516100d596959493929190610d44565b60405180910390f35b3480156100e9575f80fd5b5061010460048036038101906100ff9190610daa565b61028a565b005b348015610111575f80fd5b5061012c60048036038101906101279190610ff6565b610613565b005b348015610139575f80fd5b50610142610789565b005b34801561014f575f80fd5b5061016a600480360381019061016591906110a8565b610895565b6040516101779190610be2565b60405180910390f35b61019a60048036038101906101959190610daa565b6108aa565b005b5f5481565b6001602052805f5260405f205f91509050805f015490806001015f9054906101000a900473ffffffffffffffffffffffffffffffffffffffff16908060020180546101eb90611100565b80601f016020809104026020016040519081016040528092919081815260200182805461021790611100565b80156102625780601f1061023957610100808354040283529160200191610262565b820191905f5260205f20905b81548152906001019060200180831161024557829003601f168201915b505050505090806004015490806005015f9054906101000a900460ff16908060060154905086565b5f60015f8481526020019081526020015f209050806001015f9054906101000a900473ffffffffffffffffffffffffffffffffffffffff1673ffffffffffffffffffffffffffffffffffffffff163373ffffffffffffffffffffffffffffffffffffffff161461032f576040517f08c379a0000000000000000000000000000000000000000000000000000000008152600401610326906111a0565b60405180910390fd5b8060040154421015610376576040517f08c379a000000000000000000000000000000000000000000000000000000000815260040161036d90611208565b60405180910390fd5b806005015f9054906101000a900460ff16156103c7576040517f08c379a00000000000000000000000000000000000000000000000000000000081526004016103be90611270565b60405180910390fd5b80600301805490508210610410576040517f08c379a0000000000000000000000000000000000000000000000000000000008152600401610407906112d8565b60405180910390fd5b8181600601819055506001816005015f6101000a81548160ff0219169083151502179055505f816007015f8481526020019081526020015f205490505f8111156105d4575f5b82600901805490508110156105d2575f83600901828154811061047c5761047b6112f6565b5b905f5260205f20015f9054906101000a900473ffffffffffffffffffffffffffffffffffffffff1690505f846008015f8373ffffffffffffffffffffffffffffffffffffffff1673ffffffffffffffffffffffffffffffffffffffff1681526020019081526020015f205490505f81118015610536575085856008015f8473ffffffffffffffffffffffffffffffffffffffff1673ffffffffffffffffffffffffffffffffffffffff1681526020019081526020015f2054145b156105bd575f856007015f8881526020019081526020015f2054858361055c9190611350565b61056691906113be565b90508060025f8573ffffffffffffffffffffffffffffffffffffffff1673ffffffffffffffffffffffffffffffffffffffff1681526020019081526020015f205f8282546105b491906113ee565b92505081905550505b505080806105ca90611421565b915050610456565b505b7fd755ef8acdf9a898244f61a5ebfcf653e1916ae9073a96003fba8f60ac6e0b3c8484604051610605929190611468565b60405180910390a150505050565b6001825111610657576040517f08c379a000000000000000000000000000000000000000000000000000000000815260040161064e906114d9565b60405180910390fd5b428111610699576040517f08c379a000000000000000000000000000000000000000000000000000000000815260040161069090611541565b60405180910390fd5b5f60015f805481526020019081526020015f2090505f54815f018190555033816001015f6101000a81548173ffffffffffffffffffffffffffffffffffffffff021916908373ffffffffffffffffffffffffffffffffffffffff1602179055508381600201908161070a91906116fc565b5082816003019080519060200190610723929190610af8565b508181600401819055507f213389403211e2d8f09e41f6f892e95c3853d6b428f9ff25630a765d88d6b0725f54338587866040516107659594939291906118ce565b60405180910390a15f8081548092919061077e90611421565b919050555050505050565b5f60025f3373ffffffffffffffffffffffffffffffffffffffff1673ffffffffffffffffffffffffffffffffffffffff1681526020019081526020015f205490505f811161080c576040517f08c379a000000000000000000000000000000000000000000000000000000000815260040161080390611977565b60405180910390fd5b5f60025f3373ffffffffffffffffffffffffffffffffffffffff1673ffffffffffffffffffffffffffffffffffffffff1681526020019081526020015f20819055503373ffffffffffffffffffffffffffffffffffffffff166108fc8290811502906040515f60405180830381858888f19350505050158015610891573d5f803e3d5ffd5b5050565b6002602052805f5260405f205f915090505481565b5f34116108ec576040517f08c379a00000000000000000000000000000000000000000000000000000000081526004016108e390611a05565b60405180910390fd5b5f60015f8481526020019081526020015f20905080600401544210610946576040517f08c379a000000000000000000000000000000000000000000000000000000000815260040161093d90611a6d565b60405180910390fd5b8060030180549050821061098f576040517f08c379a000000000000000000000000000000000000000000000000000000000815260040161098690611ad5565b60405180910390fd5b34816007015f8481526020019081526020015f205f8282546109b191906113ee565b925050819055505f816008015f3373ffffffffffffffffffffffffffffffffffffffff1673ffffffffffffffffffffffffffffffffffffffff1681526020019081526020015f205403610a61578060090133908060018154018082558091505060019003905f5260205f20015f9091909190916101000a81548173ffffffffffffffffffffffffffffffffffffffff021916908373ffffffffffffffffffffffffffffffffffffffff1602179055505b34816008015f3373ffffffffffffffffffffffffffffffffffffffff1673ffffffffffffffffffffffffffffffffffffffff1681526020019081526020015f205f828254610aaf91906113ee565b925050819055507f40ebda1cda22ef57268bfb5e0f5e01a536ad33b76d2dbc3ed8a760f6539d92aa83338434604051610aeb9493929190611af3565b60405180910390a1505050565b828054828255905f5260205f20908101928215610b3e579160200282015b82811115610b3d578251829081610b2d91906116fc565b5091602001919060010190610b16565b5b509050610b4b9190610b4f565b5090565b5b80821115610b6e575f8181610b659190610b72565b50600101610b50565b5090565b508054610b7e90611100565b5f825580601f10610b8f5750610bac565b601f0160209004905f5260205f2090810190610bab9190610baf565b5b50565b5b80821115610bc6575f815f905550600101610bb0565b5090565b5f819050919050565b610bdc81610bca565b82525050565b5f602082019050610bf55f830184610bd3565b92915050565b5f604051905090565b5f80fd5b5f80fd5b610c1581610bca565b8114610c1f575f80fd5b50565b5f81359050610c3081610c0c565b92915050565b5f60208284031215610c4b57610c4a610c04565b5b5f610c5884828501610c22565b91505092915050565b5f73ffffffffffffffffffffffffffffffffffffffff82169050919050565b5f610c8a82610c61565b9050919050565b610c9a81610c80565b82525050565b5f81519050919050565b5f82825260208201905092915050565b5f5b83811015610cd7578082015181840152602081019050610cbc565b5f8484015250505050565b5f601f19601f8301169050919050565b5f610cfc82610ca0565b610d068185610caa565b9350610d16818560208601610cba565b610d1f81610ce2565b840191505092915050565b5f8115159050919050565b610d3e81610d2a565b82525050565b5f60c082019050610d575f830189610bd3565b610d646020830188610c91565b8181036040830152610d768187610cf2565b9050610d856060830186610bd3565b610d926080830185610d35565b610d9f60a0830184610bd3565b979650505050505050565b5f8060408385031215610dc057610dbf610c04565b5b5f610dcd85828601610c22565b9250506020610dde85828601610c22565b9150509250929050565b5f80fd5b5f80fd5b7f4e487b71000000000000000000000000000000000000000000000000000000005f52604160045260245ffd5b610e2682610ce2565b810181811067ffffffffffffffff82111715610e4557610e44610df0565b5b80604052505050565b5f610e57610bfb565b9050610e638282610e1d565b919050565b5f67ffffffffffffffff821115610e8257610e81610df0565b5b610e8b82610ce2565b9050602081019050919050565b828183375f83830152505050565b5f610eb8610eb384610e68565b610e4e565b905082815260208101848484011115610ed457610ed3610dec565b5b610edf848285610e98565b509392505050565b5f82601f830112610efb57610efa610de8565b5b8135610f0b848260208601610ea6565b91505092915050565b5f67ffffffffffffffff821115610f2e57610f2d610df0565b5b602082029050602081019050919050565b5f80fd5b5f610f55610f5084610f14565b610e4e565b90508083825260208201905060208402830185811115610f7857610f77610f3f565b5b835b81811015610fbf57803567ffffffffffffffff811115610f9d57610f9c610de8565b5b808601610faa8982610ee7565b85526020850194505050602081019050610f7a565b5050509392505050565b5f82601f830112610fdd57610fdc610de8565b5b8135610fed848260208601610f43565b91505092915050565b5f805f6060848603121561100d5761100c610c04565b5b5f84013567ffffffffffffffff81111561102a57611029610c08565b5b61103686828701610ee7565b935050602084013567ffffffffffffffff81111561105757611056610c08565b5b61106386828701610fc9565b925050604061107486828701610c22565b9150509250925092565b61108781610c80565b8114611091575f80fd5b50565b5f813590506110a28161107e565b92915050565b5f602082840312156110bd576110bc610c04565b5b5f6110ca84828501611094565b91505092915050565b7f4e487b71000000000000000000000000000000000000000000000000000000005f52602260045260245ffd5b5f600282049050600182168061111757607f821691505b60208210810361112a576111296110d3565b5b50919050565b7f536f6d656e7465206f2063726961646f7220706f646520646566696e6972206f5f8201527f20726573756c7461646f2e000000000000000000000000000000000000000000602082015250565b5f61118a602b83610caa565b915061119582611130565b604082019050919050565b5f6020820190508181035f8301526111b78161117e565b9050919050565b7f5072617a6f206e616f20656e6365727261646f2e0000000000000000000000005f82015250565b5f6111f2601483610caa565b91506111fd826111be565b602082019050919050565b5f6020820190508181035f83015261121f816111e6565b9050919050565b7f4576656e746f206a612066696e616c697a61646f2e00000000000000000000005f82015250565b5f61125a601583610caa565b915061126582611226565b602082019050919050565b5f6020820190508181035f8301526112878161124e565b9050919050565b7f526573756c7461646f20696e76616c69646f2e000000000000000000000000005f82015250565b5f6112c2601383610caa565b91506112cd8261128e565b602082019050919050565b5f6020820190508181035f8301526112ef816112b6565b9050919050565b7f4e487b71000000000000000000000000000000000000000000000000000000005f52603260045260245ffd5b7f4e487b71000000000000000000000000000000000000000000000000000000005f52601160045260245ffd5b5f61135a82610bca565b915061136583610bca565b925082820261137381610bca565b9150828204841483151761138a57611389611323565b5b5092915050565b7f4e487b71000000000000000000000000000000000000000000000000000000005f52601260045260245ffd5b5f6113c882610bca565b91506113d383610bca565b9250826113e3576113e2611391565b5b828204905092915050565b5f6113f882610bca565b915061140383610bca565b925082820190508082111561141b5761141a611323565b5b92915050565b5f61142b82610bca565b91507fffffffffffffffffffffffffffffffffffffffffffffffffffffffffffffffff820361145d5761145c611323565b5b600182019050919050565b5f60408201905061147b5f830185610bd3565b6114886020830184610bd3565b9392505050565b7f446576652068617665722070656c6f206d656e6f732032206f70636f65732e005f82015250565b5f6114c3601f83610caa565b91506114ce8261148f565b602082019050919050565b5f6020820190508181035f8301526114f0816114b7565b9050919050565b7f5072617a6f206465766520736572206e6f2066757475726f2e000000000000005f82015250565b5f61152b601983610caa565b9150611536826114f7565b602082019050919050565b5f6020820190508181035f8301526115588161151f565b9050919050565b5f819050815f5260205f209050919050565b5f6020601f8301049050919050565b5f82821b905092915050565b5f600883026115bb7fffffffffffffffffffffffffffffffffffffffffffffffffffffffffffffffff82611580565b6115c58683611580565b95508019841693508086168417925050509392505050565b5f819050919050565b5f6116006115fb6115f684610bca565b6115dd565b610bca565b9050919050565b5f819050919050565b611619836115e6565b61162d61162582611607565b84845461158c565b825550505050565b5f90565b611641611635565b61164c818484611610565b505050565b5b8181101561166f576116645f82611639565b600181019050611652565b5050565b601f8211156116b4576116858161155f565b61168e84611571565b8101602085101561169d578190505b6116b16116a985611571565b830182611651565b50505b505050565b5f82821c905092915050565b5f6116d45f19846008026116b9565b1980831691505092915050565b5f6116ec83836116c5565b9150826002028217905092915050565b61170582610ca0565b67ffffffffffffffff81111561171e5761171d610df0565b5b6117288254611100565b611733828285611673565b5f60209050601f831160018114611764575f8415611752578287015190505b61175c85826116e1565b8655506117c3565b601f1984166117728661155f565b5f5b8281101561179957848901518255600182019150602085019450602081019050611774565b868310156117b657848901516117b2601f8916826116c5565b8355505b6001600288020188555050505b505050505050565b5f81519050919050565b5f82825260208201905092915050565b5f819050602082019050919050565b5f82825260208201905092915050565b5f61180e82610ca0565b61181881856117f4565b9350611828818560208601610cba565b61183181610ce2565b840191505092915050565b5f6118478383611804565b905092915050565b5f602082019050919050565b5f611865826117cb565b61186f81856117d5565b935083602082028501611881856117e5565b805f5b858110156118bc578484038952815161189d858261183c565b94506118a88361184f565b925060208a01995050600181019050611884565b50829750879550505050505092915050565b5f60a0820190506118e15f830188610bd3565b6118ee6020830187610c91565b8181036040830152611900818661185b565b905081810360608301526119148185610cf2565b90506119236080830184610bd3565b9695505050505050565b7f53616c646f20696e737566696369656e74652e000000000000000000000000005f82015250565b5f611961601383610caa565b915061196c8261192d565b602082019050919050565b5f6020820190508181035f83015261198e81611955565b9050919050565b7f56616c6f722064612061706f737461206465766520736572206d61696f7220715f8201527f7565207a65726f2e000000000000000000000000000000000000000000000000602082015250565b5f6119ef602883610caa565b91506119fa82611995565b604082019050919050565b5f6020820190508181035f830152611a1c816119e3565b9050919050565b7f41706f7374617320656e63657272616461732e000000000000000000000000005f82015250565b5f611a57601383610caa565b9150611a6282611a23565b602082019050919050565b5f6020820190508181035f830152611a8481611a4b565b9050919050565b7f4f7063616f20696e76616c6964612e00000000000000000000000000000000005f82015250565b5f611abf600f83610caa565b9150611aca82611a8b565b602082019050919050565b5f6020820190508181035f830152611aec81611ab3565b9050919050565b5f608082019050611b065f830187610bd3565b611b136020830186610c91565b611b206040830185610bd3565b611b2d6060830184610bd3565b9594505050505056fea264697066735822122046e31fbb1e6fc54ede53c2fbf545354a024e1b8a8df45e43188d4e194e597e1464736f6c63430008150033",
  "immutableReferences": {},
  "source": "// SPDX-License-Identifier: MIT\r\npragma solidity ^0.8.20;\r\n\r\ncontract CasaApostas {\r\n    struct Evento {\r\n        uint256 id;\r\n        address criador;\r\n        string descricao;\r\n        string[] opcoes; // Ex.: [\"Time A vence\", \"Time B vence\", \"Empate\"]\r\n        uint256 prazo;\r\n        bool finalizado;\r\n        uint256 resultado; // ndice da opo vencedora\r\n        mapping(uint256 => uint256) apostasPorOpcao; // Opo => Valor total apostado\r\n        mapping(address => uint256) apostasUsuario;  // Usurio => Valor apostado\r\n        address[] apostadores;\r\n    }\r\n\r\n    uint256 public proximoIdEvento;\r\n    mapping(uint256 => Evento) public eventos;\r\n    mapping(address => uint256) public saldos; // Saldo dos usurios no sistema\r\n\r\n    event EventoCriado(uint256 id, address criador,string[] opcoes, string descricao, uint256 prazo);\r\n    event ApostaFeita(uint256 eventoId, address apostador, uint256 opcao, uint256 valor);\r\n    event ResultadoDefinido(uint256 eventoId, uint256 resultado);\r\n\r\n    // Criar um evento de aposta\r\n   function criarEvento(string memory descricao, string[] memory opcoes, uint256 prazo) external {\r\n    require(opcoes.length > 1, \"Deve haver pelo menos 2 opcoes.\");\r\n    require(prazo > block.timestamp, \"Prazo deve ser no futuro.\");\r\n\r\n    Evento storage novoEvento = eventos[proximoIdEvento];\r\n    novoEvento.id = proximoIdEvento;\r\n    novoEvento.criador = msg.sender;\r\n    novoEvento.descricao = descricao;\r\n    novoEvento.opcoes = opcoes;\r\n    novoEvento.prazo = prazo;\r\n\r\n    emit EventoCriado(proximoIdEvento, msg.sender, opcoes, descricao, prazo);\r\n    proximoIdEvento++;\r\n}\r\n\r\n    // Apostar em um evento\r\n    function apostar(uint256 eventoId, uint256 opcao) external payable {\r\n        require(msg.value > 0, \"Valor da aposta deve ser maior que zero.\");\r\n        Evento storage evento = eventos[eventoId];\r\n        require(block.timestamp < evento.prazo, \"Apostas encerradas.\");\r\n        require(opcao < evento.opcoes.length, \"Opcao invalida.\");\r\n\r\n        evento.apostasPorOpcao[opcao] += msg.value;\r\n        if (evento.apostasUsuario[msg.sender] == 0) {\r\n            evento.apostadores.push(msg.sender);\r\n        }\r\n        evento.apostasUsuario[msg.sender] += msg.value;\r\n\r\n        emit ApostaFeita(eventoId, msg.sender, opcao, msg.value);\r\n    }\r\n\r\n    // Definir resultado de um evento\r\n    function definirResultado(uint256 eventoId, uint256 resultado) external {\r\n        Evento storage evento = eventos[eventoId];\r\n        require(msg.sender == evento.criador, \"Somente o criador pode definir o resultado.\");\r\n        require(block.timestamp >= evento.prazo, \"Prazo nao encerrado.\");\r\n        require(!evento.finalizado, \"Evento ja finalizado.\");\r\n        require(resultado < evento.opcoes.length, \"Resultado invalido.\");\r\n\r\n        evento.resultado = resultado;\r\n        evento.finalizado = true;\r\n\r\n        uint256 totalApostado = evento.apostasPorOpcao[resultado];\r\n        if (totalApostado > 0) {\r\n            // Somente distribuir para apostadores da opo vencedora\r\n            for (uint256 i = 0; i < evento.apostadores.length; i++) {\r\n                address apostador = evento.apostadores[i];\r\n                uint256 valorApostado = evento.apostasUsuario[apostador];\r\n                \r\n                // Verificar se o apostador apostou na opo vencedora\r\n                if (valorApostado > 0 && evento.apostasUsuario[apostador] == resultado) {\r\n                    uint256 premio = (valorApostado * totalApostado) / evento.apostasPorOpcao[resultado];\r\n                    saldos[apostador] += premio;\r\n                }\r\n            }\r\n}\r\n\r\n        emit ResultadoDefinido(eventoId, resultado);\r\n    }\r\n\r\n    // Sacar saldo\r\n    function sacarSaldo() external {\r\n        uint256 saldo = saldos[msg.sender];\r\n        require(saldo > 0, \"Saldo insuficiente.\");\r\n        saldos[msg.sender] = 0;\r\n        payable(msg.sender).transfer(saldo);\r\n    }\r\n}\r\n",
  "sourcePath": "C:\\Users\\thiag\\OneDrive\\Documentos\\Meus projetos\\MI-REDES-3\\projeto\\contracts\\casaApostas.sol",
  "compiler": {
    "name": "solc",
    "version": "0.8.21+commit.d9974bed.Emscripten.clang"
  },
  "schemaVersion": "3.4.16",
  "updatedAt": "2024-12-03T01:11:23.778Z",
  "networkType": "ethereum",
  "devdoc": {
    "kind": "dev",
    "methods": {},
    "version": 1
  },
  "userdoc": {
    "kind": "user",
    "methods": {},
    "version": 1
  }
}