{
  "contractName": "CasaApostas",
  "abi": [
    {
      "anonymous": false,
      "inputs": [
        {
          "indexed": false,
          "internalType": "uint256",
          "name": "eventoId",
          "type": "uint256"
        },
        {
          "indexed": false,
          "internalType": "address",
          "name": "apostador",
          "type": "address"
        },
        {
          "indexed": false,
          "internalType": "uint256",
          "name": "opcao",
          "type": "uint256"
        },
        {
          "indexed": false,
          "internalType": "uint256",
          "name": "valor",
          "type": "uint256"
        }
      ],
      "name": "ApostaFeita",
      "type": "event"
    },
    {
      "anonymous": false,
      "inputs": [
        {
          "indexed": false,
          "internalType": "uint256",
          "name": "id",
          "type": "uint256"
        },
        {
          "indexed": false,
          "internalType": "address",
          "name": "criador",
          "type": "address"
        },
        {
          "indexed": false,
          "internalType": "string[]",
          "name": "opcoes",
          "type": "string[]"
        },
        {
          "indexed": false,
          "internalType": "string",
          "name": "descricao",
          "type": "string"
        },
        {
          "indexed": false,
          "internalType": "uint256",
          "name": "prazo",
          "type": "uint256"
        }
      ],
      "name": "EventoCriado",
      "type": "event"
    },
    {
      "anonymous": false,
      "inputs": [
        {
          "indexed": false,
          "internalType": "uint256",
          "name": "eventoId",
          "type": "uint256"
        },
        {
          "indexed": false,
          "internalType": "uint256",
          "name": "resultado",
          "type": "uint256"
        }
      ],
      "name": "EventoEncerrado",
      "type": "event"
    },
    {
      "anonymous": false,
      "inputs": [
        {
          "indexed": false,
          "internalType": "uint256",
          "name": "eventoId",
          "type": "uint256"
        },
        {
          "indexed": false,
          "internalType": "uint256",
          "name": "resultado",
          "type": "uint256"
        }
      ],
      "name": "ResultadoDefinido",
      "type": "event"
    },
    {
      "anonymous": false,
      "inputs": [
        {
          "indexed": true,
          "internalType": "address",
          "name": "usuario",
          "type": "address"
        },
        {
          "indexed": false,
          "internalType": "uint256",
          "name": "valor",
          "type": "uint256"
        }
      ],
      "name": "SaldoSacado",
      "type": "event"
    },
    {
      "inputs": [
        {
          "internalType": "uint256",
          "name": "",
          "type": "uint256"
        }
      ],
      "name": "eventos",
      "outputs": [
        {
          "internalType": "uint256",
          "name": "id",
          "type": "uint256"
        },
        {
          "internalType": "address",
          "name": "criador",
          "type": "address"
        },
        {
          "internalType": "string",
          "name": "descricao",
          "type": "string"
        },
        {
          "internalType": "uint256",
          "name": "prazo",
          "type": "uint256"
        },
        {
          "internalType": "bool",
          "name": "finalizado",
          "type": "bool"
        },
        {
          "internalType": "uint256",
          "name": "resultado",
          "type": "uint256"
        },
        {
          "internalType": "bool",
          "name": "encerrado",
          "type": "bool"
        }
      ],
      "stateMutability": "view",
      "type": "function",
      "constant": true
    },
    {
      "inputs": [
        {
          "internalType": "uint256",
          "name": "",
          "type": "uint256"
        }
      ],
      "name": "historico",
      "outputs": [
        {
          "internalType": "uint256",
          "name": "id",
          "type": "uint256"
        },
        {
          "internalType": "string",
          "name": "descricao",
          "type": "string"
        },
        {
          "internalType": "uint256",
          "name": "resultado",
          "type": "uint256"
        },
        {
          "internalType": "uint256",
          "name": "prazo",
          "type": "uint256"
        }
      ],
      "stateMutability": "view",
      "type": "function",
      "constant": true
    },
    {
      "inputs": [],
      "name": "proximoIdEvento",
      "outputs": [
        {
          "internalType": "uint256",
          "name": "",
          "type": "uint256"
        }
      ],
      "stateMutability": "view",
      "type": "function",
      "constant": true
    },
    {
      "inputs": [
        {
          "internalType": "address",
          "name": "",
          "type": "address"
        }
      ],
      "name": "saldos",
      "outputs": [
        {
          "internalType": "uint256",
          "name": "",
          "type": "uint256"
        }
      ],
      "stateMutability": "view",
      "type": "function",
      "constant": true
    },
    {
      "inputs": [
        {
          "internalType": "uint256",
          "name": "eventoId",
          "type": "uint256"
        }
      ],
      "name": "getOpcoes",
      "outputs": [
        {
          "internalType": "string[]",
          "name": "",
          "type": "string[]"
        }
      ],
      "stateMutability": "view",
      "type": "function",
      "constant": true
    },
    {
      "inputs": [
        {
          "internalType": "string",
          "name": "descricao",
          "type": "string"
        },
        {
          "internalType": "string[]",
          "name": "opcoes",
          "type": "string[]"
        },
        {
          "internalType": "uint256",
          "name": "prazo",
          "type": "uint256"
        }
      ],
      "name": "criarEvento",
      "outputs": [],
      "stateMutability": "nonpayable",
      "type": "function"
    },
    {
      "inputs": [
        {
          "internalType": "uint256",
          "name": "eventoId",
          "type": "uint256"
        },
        {
          "internalType": "uint256",
          "name": "resultado",
          "type": "uint256"
        }
      ],
      "name": "encerrarEvento",
      "outputs": [],
      "stateMutability": "nonpayable",
      "type": "function"
    },
    {
      "inputs": [],
      "name": "depositar",
      "outputs": [],
      "stateMutability": "payable",
      "type": "function",
      "payable": true
    },
    {
      "inputs": [],
      "name": "getSaldo",
      "outputs": [
        {
          "internalType": "uint256",
          "name": "",
          "type": "uint256"
        }
      ],
      "stateMutability": "view",
      "type": "function",
      "constant": true
    },
    {
      "inputs": [
        {
          "internalType": "uint256",
          "name": "eventoId",
          "type": "uint256"
        },
        {
          "internalType": "uint256",
          "name": "opcao",
          "type": "uint256"
        }
      ],
      "name": "apostar",
      "outputs": [],
      "stateMutability": "payable",
      "type": "function",
      "payable": true
    },
    {
      "inputs": [
        {
          "internalType": "uint256",
          "name": "eventoId",
          "type": "uint256"
        }
      ],
      "name": "calcularOdds",
      "outputs": [
        {
          "internalType": "uint256[]",
          "name": "",
          "type": "uint256[]"
        }
      ],
      "stateMutability": "view",
      "type": "function",
      "constant": true
    },
    {
      "inputs": [
        {
          "internalType": "uint256",
          "name": "eventoId",
          "type": "uint256"
        }
      ],
      "name": "getResultado",
      "outputs": [
        {
          "internalType": "string",
          "name": "",
          "type": "string"
        }
      ],
      "stateMutability": "view",
      "type": "function",
      "constant": true
    },
    {
      "inputs": [],
      "name": "sacarSaldo",
      "outputs": [],
      "stateMutability": "nonpayable",
      "type": "function"
    }
  ],
  "bytecode": "0x608060405234801561000f575f80fd5b506124e58061001d5f395ff3fe6080604052600436106100c1575f3560e01c806372fe55971161007e578063c68c061211610058578063c68c06121461026c578063e2eec9a7146102a8578063ef7515c3146102d2578063f2f6da3e146102fa576100c1565b806372fe5597146101de578063bae978471461021a578063c2c0c51214610230576100c1565b806301161766146100c5578063087e9d0f146100ef5780631e4ecc1714610131578063330c52091461016d5780633d922f90146101ac5780636521e7df146101b6575b5f80fd5b3480156100d0575f80fd5b506100d9610316565b6040516100e6919061131d565b60405180910390f35b3480156100fa575f80fd5b5061011560048036038101906101109190611371565b61031b565b604051610128979695949392919061147f565b60405180910390f35b34801561013c575f80fd5b5061015760048036038101906101529190611371565b610416565b60405161016491906114f3565b60405180910390f35b348015610178575f80fd5b50610193600480360381019061018e9190611371565b610532565b6040516101a39493929190611513565b60405180910390f35b6101b46105f3565b005b3480156101c1575f80fd5b506101dc60048036038101906101d7919061176b565b61068a565b005b3480156101e9575f80fd5b5061020460048036038101906101ff9190611371565b610800565b60405161021191906118aa565b60405180910390f35b348015610225575f80fd5b5061022e610972565b005b34801561023b575f80fd5b5061025660048036038101906102519190611371565b610b31565b60405161026391906119cd565b60405180910390f35b348015610277575f80fd5b50610292600480360381019061028d9190611a17565b610c19565b60405161029f919061131d565b60405180910390f35b3480156102b3575f80fd5b506102bc610c2e565b6040516102c9919061131d565b60405180910390f35b3480156102dd575f80fd5b506102f860048036038101906102f39190611a42565b610c72565b005b610314600480360381019061030f9190611a42565b610f30565b005b5f5481565b6001602052805f5260405f205f91509050805f015490806001015f9054906101000a900473ffffffffffffffffffffffffffffffffffffffff169080600201805461036590611aad565b80601f016020809104026020016040519081016040528092919081815260200182805461039190611aad565b80156103dc5780601f106103b3576101008083540402835291602001916103dc565b820191905f5260205f20905b8154815290600101906020018083116103bf57829003601f168201915b505050505090806004015490806005015f9054906101000a900460ff169080600601549080600b015f9054906101000a900460ff16905087565b60605f60015f8481526020019081526020015f209050806005015f9054906101000a900460ff1661047c576040517f08c379a000000000000000000000000000000000000000000000000000000000815260040161047390611b4d565b60405180910390fd5b5f8160060154905081600301818154811061049a57610499611b6b565b5b905f5260205f200180546104ad90611aad565b80601f01602080910402602001604051908101604052809291908181526020018280546104d990611aad565b80156105245780601f106104fb57610100808354040283529160200191610524565b820191905f5260205f20905b81548152906001019060200180831161050757829003601f168201915b505050505092505050919050565b60038181548110610541575f80fd5b905f5260205f2090600502015f91509050805f01549080600101805461056690611aad565b80601f016020809104026020016040519081016040528092919081815260200182805461059290611aad565b80156105dd5780601f106105b4576101008083540402835291602001916105dd565b820191905f5260205f20905b8154815290600101906020018083116105c057829003601f168201915b5050505050908060030154908060040154905084565b5f3411610635576040517f08c379a000000000000000000000000000000000000000000000000000000000815260040161062c90611c08565b60405180910390fd5b3460025f3373ffffffffffffffffffffffffffffffffffffffff1673ffffffffffffffffffffffffffffffffffffffff1681526020019081526020015f205f8282546106819190611c53565b92505081905550565b60018251116106ce576040517f08c379a00000000000000000000000000000000000000000000000000000000081526004016106c590611cd0565b60405180910390fd5b428111610710576040517f08c379a000000000000000000000000000000000000000000000000000000000815260040161070790611d38565b60405180910390fd5b5f60015f805481526020019081526020015f2090505f54815f018190555033816001015f6101000a81548173ffffffffffffffffffffffffffffffffffffffff021916908373ffffffffffffffffffffffffffffffffffffffff160217905550838160020190816107819190611ef3565b508281600301908051906020019061079a929190611233565b508181600401819055507f213389403211e2d8f09e41f6f892e95c3853d6b428f9ff25630a765d88d6b0725f54338587866040516107dc959493929190611fc2565b60405180910390a15f808154809291906107f590612021565b919050555050505050565b60605f60015f8481526020019081526020015f2090505f805b826003018054905081101561085c57826007015f8281526020019081526020015f2054826108479190611c53565b9150808061085490612021565b915050610819565b505f826003018054905067ffffffffffffffff81111561087f5761087e611565565b5b6040519080825280602002602001820160405280156108ad5781602001602082028036833780820191505090505b5090505f5b8360030180549050811015610966575f846007015f8381526020019081526020015f2054111561093257836007015f8281526020019081526020015f2054670de0b6b3a7640000846109049190612068565b61090e91906120d6565b82828151811061092157610920611b6b565b5b602002602001018181525050610953565b5f82828151811061094657610945611b6b565b5b6020026020010181815250505b808061095e90612021565b9150506108b2565b50809350505050919050565b5f60025f3373ffffffffffffffffffffffffffffffffffffffff1673ffffffffffffffffffffffffffffffffffffffff1681526020019081526020015f205490505f81116109f5576040517f08c379a00000000000000000000000000000000000000000000000000000000081526004016109ec90612150565b60405180910390fd5b5f60025f3373ffffffffffffffffffffffffffffffffffffffff1673ffffffffffffffffffffffffffffffffffffffff1681526020019081526020015f20819055505f3373ffffffffffffffffffffffffffffffffffffffff1682604051610a5c9061219b565b5f6040518083038185875af1925050503d805f8114610a96576040519150601f19603f3d011682016040523d82523d5f602084013e610a9b565b606091505b5050905080610adf576040517f08c379a0000000000000000000000000000000000000000000000000000000008152600401610ad6906121f9565b60405180910390fd5b3373ffffffffffffffffffffffffffffffffffffffff167f5fc3b54c181812cec14a4124731c2237ac79ece8eb1febb924fbd79dd36d4ae583604051610b25919061131d565b60405180910390a25050565b606060015f8381526020019081526020015f20600301805480602002602001604051908101604052809291908181526020015f905b82821015610c0e578382905f5260205f20018054610b8390611aad565b80601f0160208091040260200160405190810160405280929190818152602001828054610baf90611aad565b8015610bfa5780601f10610bd157610100808354040283529160200191610bfa565b820191905f5260205f20905b815481529060010190602001808311610bdd57829003601f168201915b505050505081526020019060010190610b66565b505050509050919050565b6002602052805f5260405f205f915090505481565b5f60025f3373ffffffffffffffffffffffffffffffffffffffff1673ffffffffffffffffffffffffffffffffffffffff1681526020019081526020015f2054905090565b5f60015f8481526020019081526020015f20905080600401544211610ccc576040517f08c379a0000000000000000000000000000000000000000000000000000000008152600401610cc390612261565b60405180910390fd5b80600b015f9054906101000a900460ff1615610d1d576040517f08c379a0000000000000000000000000000000000000000000000000000000008152600401610d14906122c9565b60405180910390fd5b600181600b015f6101000a81548160ff0219169083151502179055508181600601819055505f816007015f8481526020019081526020015f205490505f805b8360030180549050811015610da757848114610d9457836007015f8281526020019081526020015f205482610d919190611c53565b91505b8080610d9f90612021565b915050610d5c565b505f821115610ef0575f5b83600a0180549050811015610eee575f84600a018281548110610dd857610dd7611b6b565b5b905f5260205f2090600302016040518060600160405290815f82015f9054906101000a900473ffffffffffffffffffffffffffffffffffffffff1673ffffffffffffffffffffffffffffffffffffffff1673ffffffffffffffffffffffffffffffffffffffff16815260200160018201548152602001600282015481525050905085816020015103610eda575f83858360400151610e7691906120d6565b610e809190612068565b90508060025f845f015173ffffffffffffffffffffffffffffffffffffffff1673ffffffffffffffffffffffffffffffffffffffff1681526020019081526020015f205f828254610ed19190611c53565b92505081905550505b508080610ee690612021565b915050610db2565b505b7fc16d8a15e9315c4d672c470040f671c3dad45ddb6b1d7b0434b4be0045eb442e8585604051610f219291906122e7565b60405180910390a15050505050565b5f3411610f72576040517f08c379a0000000000000000000000000000000000000000000000000000000008152600401610f699061237e565b60405180910390fd5b5f60015f8481526020019081526020015f20905080600401544210610fcc576040517f08c379a0000000000000000000000000000000000000000000000000000000008152600401610fc3906123e6565b60405180910390fd5b80600301805490508210611015576040517f08c379a000000000000000000000000000000000000000000000000000000000815260040161100c9061244e565b60405180910390fd5b34816007015f8481526020019081526020015f205f8282546110379190611c53565b925050819055505f816008015f3373ffffffffffffffffffffffffffffffffffffffff1673ffffffffffffffffffffffffffffffffffffffff1681526020019081526020015f2054036110e7578060090133908060018154018082558091505060019003905f5260205f20015f9091909190916101000a81548173ffffffffffffffffffffffffffffffffffffffff021916908373ffffffffffffffffffffffffffffffffffffffff1602179055505b34816008015f3373ffffffffffffffffffffffffffffffffffffffff1673ffffffffffffffffffffffffffffffffffffffff1681526020019081526020015f205f8282546111359190611c53565b9250508190555080600a0160405180606001604052803373ffffffffffffffffffffffffffffffffffffffff16815260200184815260200134815250908060018154018082558091505060019003905f5260205f2090600302015f909190919091505f820151815f015f6101000a81548173ffffffffffffffffffffffffffffffffffffffff021916908373ffffffffffffffffffffffffffffffffffffffff160217905550602082015181600101556040820151816002015550507f40ebda1cda22ef57268bfb5e0f5e01a536ad33b76d2dbc3ed8a760f6539d92aa83338434604051611226949392919061246c565b60405180910390a1505050565b828054828255905f5260205f20908101928215611279579160200282015b828111156112785782518290816112689190611ef3565b5091602001919060010190611251565b5b509050611286919061128a565b5090565b5b808211156112a9575f81816112a091906112ad565b5060010161128b565b5090565b5080546112b990611aad565b5f825580601f106112ca57506112e7565b601f0160209004905f5260205f20908101906112e691906112ea565b5b50565b5b80821115611301575f815f9055506001016112eb565b5090565b5f819050919050565b61131781611305565b82525050565b5f6020820190506113305f83018461130e565b92915050565b5f604051905090565b5f80fd5b5f80fd5b61135081611305565b811461135a575f80fd5b50565b5f8135905061136b81611347565b92915050565b5f602082840312156113865761138561133f565b5b5f6113938482850161135d565b91505092915050565b5f73ffffffffffffffffffffffffffffffffffffffff82169050919050565b5f6113c58261139c565b9050919050565b6113d5816113bb565b82525050565b5f81519050919050565b5f82825260208201905092915050565b5f5b838110156114125780820151818401526020810190506113f7565b5f8484015250505050565b5f601f19601f8301169050919050565b5f611437826113db565b61144181856113e5565b93506114518185602086016113f5565b61145a8161141d565b840191505092915050565b5f8115159050919050565b61147981611465565b82525050565b5f60e0820190506114925f83018a61130e565b61149f60208301896113cc565b81810360408301526114b1818861142d565b90506114c0606083018761130e565b6114cd6080830186611470565b6114da60a083018561130e565b6114e760c0830184611470565b98975050505050505050565b5f6020820190508181035f83015261150b818461142d565b905092915050565b5f6080820190506115265f83018761130e565b8181036020830152611538818661142d565b9050611547604083018561130e565b611554606083018461130e565b95945050505050565b5f80fd5b5f80fd5b7f4e487b71000000000000000000000000000000000000000000000000000000005f52604160045260245ffd5b61159b8261141d565b810181811067ffffffffffffffff821117156115ba576115b9611565565b5b80604052505050565b5f6115cc611336565b90506115d88282611592565b919050565b5f67ffffffffffffffff8211156115f7576115f6611565565b5b6116008261141d565b9050602081019050919050565b828183375f83830152505050565b5f61162d611628846115dd565b6115c3565b90508281526020810184848401111561164957611648611561565b5b61165484828561160d565b509392505050565b5f82601f8301126116705761166f61155d565b5b813561168084826020860161161b565b91505092915050565b5f67ffffffffffffffff8211156116a3576116a2611565565b5b602082029050602081019050919050565b5f80fd5b5f6116ca6116c584611689565b6115c3565b905080838252602082019050602084028301858111156116ed576116ec6116b4565b5b835b8181101561173457803567ffffffffffffffff8111156117125761171161155d565b5b80860161171f898261165c565b855260208501945050506020810190506116ef565b5050509392505050565b5f82601f8301126117525761175161155d565b5b81356117628482602086016116b8565b91505092915050565b5f805f606084860312156117825761178161133f565b5b5f84013567ffffffffffffffff81111561179f5761179e611343565b5b6117ab8682870161165c565b935050602084013567ffffffffffffffff8111156117cc576117cb611343565b5b6117d88682870161173e565b92505060406117e98682870161135d565b9150509250925092565b5f81519050919050565b5f82825260208201905092915050565b5f819050602082019050919050565b61182581611305565b82525050565b5f611836838361181c565b60208301905092915050565b5f602082019050919050565b5f611858826117f3565b61186281856117fd565b935061186d8361180d565b805f5b8381101561189d578151611884888261182b565b975061188f83611842565b925050600181019050611870565b5085935050505092915050565b5f6020820190508181035f8301526118c2818461184e565b905092915050565b5f81519050919050565b5f82825260208201905092915050565b5f819050602082019050919050565b5f82825260208201905092915050565b5f61190d826113db565b61191781856118f3565b93506119278185602086016113f5565b6119308161141d565b840191505092915050565b5f6119468383611903565b905092915050565b5f602082019050919050565b5f611964826118ca565b61196e81856118d4565b935083602082028501611980856118e4565b805f5b858110156119bb578484038952815161199c858261193b565b94506119a78361194e565b925060208a01995050600181019050611983565b50829750879550505050505092915050565b5f6020820190508181035f8301526119e5818461195a565b905092915050565b6119f6816113bb565b8114611a00575f80fd5b50565b5f81359050611a11816119ed565b92915050565b5f60208284031215611a2c57611a2b61133f565b5b5f611a3984828501611a03565b91505092915050565b5f8060408385031215611a5857611a5761133f565b5b5f611a658582860161135d565b9250506020611a768582860161135d565b9150509250929050565b7f4e487b71000000000000000000000000000000000000000000000000000000005f52602260045260245ffd5b5f6002820490506001821680611ac457607f821691505b602082108103611ad757611ad6611a80565b5b50919050565b7f4f206576656e746f2061696e6461206e616f20666f692066696e616c697a61645f8201527f6f2e000000000000000000000000000000000000000000000000000000000000602082015250565b5f611b376022836113e5565b9150611b4282611add565b604082019050919050565b5f6020820190508181035f830152611b6481611b2b565b9050919050565b7f4e487b71000000000000000000000000000000000000000000000000000000005f52603260045260245ffd5b7f4f2076616c6f7220646f206465706f7369746f206465766520736572206d61695f8201527f6f7220717565207a65726f2e0000000000000000000000000000000000000000602082015250565b5f611bf2602c836113e5565b9150611bfd82611b98565b604082019050919050565b5f6020820190508181035f830152611c1f81611be6565b9050919050565b7f4e487b71000000000000000000000000000000000000000000000000000000005f52601160045260245ffd5b5f611c5d82611305565b9150611c6883611305565b9250828201905080821115611c8057611c7f611c26565b5b92915050565b7f446576652068617665722070656c6f206d656e6f732032206f70636f65732e005f82015250565b5f611cba601f836113e5565b9150611cc582611c86565b602082019050919050565b5f6020820190508181035f830152611ce781611cae565b9050919050565b7f5072617a6f206465766520736572206e6f2066757475726f2e000000000000005f82015250565b5f611d226019836113e5565b9150611d2d82611cee565b602082019050919050565b5f6020820190508181035f830152611d4f81611d16565b9050919050565b5f819050815f5260205f209050919050565b5f6020601f8301049050919050565b5f82821b905092915050565b5f60088302611db27fffffffffffffffffffffffffffffffffffffffffffffffffffffffffffffffff82611d77565b611dbc8683611d77565b95508019841693508086168417925050509392505050565b5f819050919050565b5f611df7611df2611ded84611305565b611dd4565b611305565b9050919050565b5f819050919050565b611e1083611ddd565b611e24611e1c82611dfe565b848454611d83565b825550505050565b5f90565b611e38611e2c565b611e43818484611e07565b505050565b5b81811015611e6657611e5b5f82611e30565b600181019050611e49565b5050565b601f821115611eab57611e7c81611d56565b611e8584611d68565b81016020851015611e94578190505b611ea8611ea085611d68565b830182611e48565b50505b505050565b5f82821c905092915050565b5f611ecb5f1984600802611eb0565b1980831691505092915050565b5f611ee38383611ebc565b9150826002028217905092915050565b611efc826113db565b67ffffffffffffffff811115611f1557611f14611565565b5b611f1f8254611aad565b611f2a828285611e6a565b5f60209050601f831160018114611f5b575f8415611f49578287015190505b611f538582611ed8565b865550611fba565b601f198416611f6986611d56565b5f5b82811015611f9057848901518255600182019150602085019450602081019050611f6b565b86831015611fad5784890151611fa9601f891682611ebc565b8355505b6001600288020188555050505b505050505050565b5f60a082019050611fd55f83018861130e565b611fe260208301876113cc565b8181036040830152611ff4818661195a565b90508181036060830152612008818561142d565b9050612017608083018461130e565b9695505050505050565b5f61202b82611305565b91507fffffffffffffffffffffffffffffffffffffffffffffffffffffffffffffffff820361205d5761205c611c26565b5b600182019050919050565b5f61207282611305565b915061207d83611305565b925082820261208b81611305565b915082820484148315176120a2576120a1611c26565b5b5092915050565b7f4e487b71000000000000000000000000000000000000000000000000000000005f52601260045260245ffd5b5f6120e082611305565b91506120eb83611305565b9250826120fb576120fa6120a9565b5b828204905092915050565b7f53616c646f20696e737566696369656e74652e000000000000000000000000005f82015250565b5f61213a6013836113e5565b915061214582612106565b602082019050919050565b5f6020820190508181035f8301526121678161212e565b9050919050565b5f81905092915050565b50565b5f6121865f8361216e565b915061219182612178565b5f82019050919050565b5f6121a58261217b565b9150819050919050565b7f46616c6861206e61207472616e73666572656e6369612064652073616c646f2e5f82015250565b5f6121e36020836113e5565b91506121ee826121af565b602082019050919050565b5f6020820190508181035f830152612210816121d7565b9050919050565b7f4576656e746f2061696e646120656d20616e64616d656e746f2e0000000000005f82015250565b5f61224b601a836113e5565b915061225682612217565b602082019050919050565b5f6020820190508181035f8301526122788161223f565b9050919050565b7f4576656e746f206a6120666f6920656e6365727261646f2e00000000000000005f82015250565b5f6122b36018836113e5565b91506122be8261227f565b602082019050919050565b5f6020820190508181035f8301526122e0816122a7565b9050919050565b5f6040820190506122fa5f83018561130e565b612307602083018461130e565b9392505050565b7f56616c6f722064612061706f737461206465766520736572206d61696f7220715f8201527f7565207a65726f2e000000000000000000000000000000000000000000000000602082015250565b5f6123686028836113e5565b91506123738261230e565b604082019050919050565b5f6020820190508181035f8301526123958161235c565b9050919050565b7f41706f7374617320656e63657272616461732e000000000000000000000000005f82015250565b5f6123d06013836113e5565b91506123db8261239c565b602082019050919050565b5f6020820190508181035f8301526123fd816123c4565b9050919050565b7f4f7063616f20696e76616c6964612e00000000000000000000000000000000005f82015250565b5f612438600f836113e5565b915061244382612404565b602082019050919050565b5f6020820190508181035f8301526124658161242c565b9050919050565b5f60808201905061247f5f83018761130e565b61248c60208301866113cc565b612499604083018561130e565b6124a6606083018461130e565b9594505050505056fea2646970667358221220221425eb7adfc8413dbd91f5c00dc00e729d2edaaa67884024dce9e809f6cfe664736f6c63430008150033",
  "immutableReferences": {},
  "source": "// SPDX-License-Identifier: MIT\r\npragma solidity ^0.8.20;\r\n\r\ncontract CasaApostas {\r\n    struct Aposta {\r\n        address apostador;\r\n        uint256 opcao;\r\n        uint256 valor;\r\n    }\r\n\r\n    struct Evento {\r\n        uint256 id;\r\n        address criador;\r\n        string descricao;\r\n        string[] opcoes; // Ex.: [\"Time A vence\", \"Time B vence\", \"Empate\"]\r\n        uint256 prazo;\r\n        bool finalizado;\r\n        uint256 resultado; // ndice da opo vencedora\r\n        mapping(uint256 => uint256) apostasPorOpcao; // Opo => Valor total apostado\r\n        mapping(address => uint256) apostasUsuario; // Usurio => Valor apostado\r\n        address[] apostadores;\r\n        Aposta[] apostas; // Array de apostas\r\n        bool encerrado; // Status de encerramento\r\n    }\r\n\r\n    struct HistoricoEvento {\r\n        uint256 id;\r\n        string descricao;\r\n        string[] opcoes;\r\n        uint256 resultado;\r\n        uint256 prazo;\r\n    }\r\n\r\n    uint256 public proximoIdEvento;\r\n    mapping(uint256 => Evento) public eventos;\r\n    mapping(address => uint256) public saldos; // Saldo dos usurios no sistema\r\n    HistoricoEvento[] public historico;\r\n\r\n    event EventoCriado(\r\n        uint256 id,\r\n        address criador,\r\n        string[] opcoes,\r\n        string descricao,\r\n        uint256 prazo\r\n    );\r\n    event ApostaFeita(\r\n        uint256 eventoId,\r\n        address apostador,\r\n        uint256 opcao,\r\n        uint256 valor\r\n    );\r\n    event ResultadoDefinido(uint256 eventoId, uint256 resultado);\r\n    event EventoEncerrado(uint256 eventoId, uint256 resultado);\r\n    event SaldoSacado(address indexed usuario, uint256 valor);\r\n\r\n    function getOpcoes(uint256 eventoId) public view returns (string[] memory) {\r\n        return eventos[eventoId].opcoes;\r\n    }\r\n\r\n    // Criar um evento de aposta\r\n    function criarEvento(\r\n        string memory descricao,\r\n        string[] memory opcoes,\r\n        uint256 prazo\r\n    ) external {\r\n        require(opcoes.length > 1, \"Deve haver pelo menos 2 opcoes.\");\r\n        require(prazo > block.timestamp, \"Prazo deve ser no futuro.\");\r\n\r\n        Evento storage novoEvento = eventos[proximoIdEvento];\r\n        novoEvento.id = proximoIdEvento;\r\n        novoEvento.criador = msg.sender;\r\n        novoEvento.descricao = descricao;\r\n        novoEvento.opcoes = opcoes;\r\n        novoEvento.prazo = prazo;\r\n\r\n        emit EventoCriado(\r\n            proximoIdEvento,\r\n            msg.sender,\r\n            opcoes,\r\n            descricao,\r\n            prazo\r\n        );\r\n        proximoIdEvento++;\r\n    }\r\n\r\n    // Funo para encerrar evento e distribuir prmios\r\n    function encerrarEvento(uint256 eventoId, uint256 resultado) public {\r\n        Evento storage evento = eventos[eventoId];\r\n\r\n        // Verificar se o evento j terminou e no foi encerrado ainda\r\n        require(block.timestamp > evento.prazo, \"Evento ainda em andamento.\");\r\n        require(!evento.encerrado, \"Evento ja foi encerrado.\");\r\n\r\n        evento.encerrado = true; // Marca o evento como encerrado\r\n        evento.resultado = resultado; // Define o resultado do evento\r\n\r\n        // Total apostado na opo vencedora\r\n        uint256 totalApostado = evento.apostasPorOpcao[resultado];\r\n        uint256 totalPerdedor = 0;\r\n        for (uint256 i = 0; i < evento.opcoes.length; i++) {\r\n            if (i != resultado) {\r\n                totalPerdedor += evento.apostasPorOpcao[i];\r\n            }\r\n        }\r\n        if (totalApostado > 0) {\r\n            // Distribuir prmio para os apostadores da opo vencedora\r\n            for (uint256 i = 0; i < evento.apostas.length; i++) {\r\n                Aposta memory aposta = evento.apostas[i];\r\n                if (aposta.opcao == resultado) {\r\n                    // Clculo do prmio baseado no valor apostado e no total apostado na opo vencedora\r\n                    uint256 premio = (aposta.valor / totalApostado) *\r\n                        totalPerdedor;\r\n                    saldos[aposta.apostador] += premio;\r\n                }\r\n            }\r\n        }\r\n\r\n        // Emitir evento para informar que o evento foi encerrado\r\n        emit EventoEncerrado(eventoId, resultado);\r\n    }\r\n\r\n    // Funo para depsito\r\n    function depositar() external payable {\r\n        require(msg.value > 0, \"O valor do deposito deve ser maior que zero.\");\r\n        saldos[msg.sender] += msg.value;\r\n    }\r\n\r\n    // Funo para visualizar o saldo\r\n    function getSaldo() external view returns (uint256) {\r\n        return saldos[msg.sender];\r\n    }\r\n\r\n    // Apostar em um evento\r\n    function apostar(uint256 eventoId, uint256 opcao) external payable {\r\n        require(msg.value > 0, \"Valor da aposta deve ser maior que zero.\");\r\n        Evento storage evento = eventos[eventoId];\r\n        require(block.timestamp < evento.prazo, \"Apostas encerradas.\");\r\n        require(opcao < evento.opcoes.length, \"Opcao invalida.\");\r\n\r\n        evento.apostasPorOpcao[opcao] += msg.value;\r\n        if (evento.apostasUsuario[msg.sender] == 0) {\r\n            evento.apostadores.push(msg.sender);\r\n        }\r\n        evento.apostasUsuario[msg.sender] += msg.value;\r\n\r\n        // Registrar aposta no array\r\n        evento.apostas.push(\r\n            Aposta({apostador: msg.sender, opcao: opcao, valor: msg.value})\r\n        );\r\n\r\n        emit ApostaFeita(eventoId, msg.sender, opcao, msg.value);\r\n    }\r\n\r\n    // Calcular odds\r\n    function calcularOdds(\r\n        uint256 eventoId\r\n    ) public view returns (uint256[] memory) {\r\n        Evento storage evento = eventos[eventoId];\r\n        uint256 totalApostado = 0;\r\n        for (uint256 i = 0; i < evento.opcoes.length; i++) {\r\n            totalApostado += evento.apostasPorOpcao[i];\r\n        }\r\n\r\n        uint256[] memory odds = new uint256[](evento.opcoes.length);\r\n        for (uint256 i = 0; i < evento.opcoes.length; i++) {\r\n            if (evento.apostasPorOpcao[i] > 0) {\r\n                odds[i] = (totalApostado * 1e18) / evento.apostasPorOpcao[i];\r\n            } else {\r\n                odds[i] = 0;\r\n            }\r\n        }\r\n        return odds;\r\n    }\r\n\r\n    // Visualizar resultado de um evento\r\n    function getResultado(\r\n        uint256 eventoId\r\n    ) public view returns (string memory) {\r\n        Evento storage evento = eventos[eventoId];\r\n        require(evento.finalizado, \"O evento ainda nao foi finalizado.\");\r\n        uint index = evento.resultado;\r\n        return evento.opcoes[index];\r\n    }\r\n\r\n    // Funo para sacar saldo\r\n    function sacarSaldo() external {\r\n        uint256 saldo = saldos[msg.sender];\r\n        require(saldo > 0, \"Saldo insuficiente.\");\r\n\r\n        // Atualizando o saldo antes da transferncia para evitar reentrncia\r\n        saldos[msg.sender] = 0;\r\n\r\n        // Transferindo o saldo usando call para maior segurana\r\n        (bool success, ) = msg.sender.call{value: saldo}(\"\");\r\n        require(success, \"Falha na transferencia de saldo.\");\r\n\r\n        // Emitir evento de saque\r\n        emit SaldoSacado(msg.sender, saldo);\r\n    }\r\n}\r\n",
  "sourcePath": "D:\\Gits\\UEFS\\MI-REDES-3\\projeto\\contracts\\casaApostas.sol",
  "compiler": {
    "name": "solc",
    "version": "0.8.21+commit.d9974bed.Emscripten.clang"
  },
  "schemaVersion": "3.4.16",
  "updatedAt": "2024-12-09T23:59:41.016Z",
  "networkType": "ethereum",
  "devdoc": {
    "kind": "dev",
    "methods": {},
    "version": 1
  },
  "userdoc": {
    "kind": "user",
    "methods": {},
    "version": 1
  }
}