{
  "contractName": "CasaApostas",
  "abi": [
    {
      "anonymous": false,
      "inputs": [
        {
          "indexed": false,
          "internalType": "uint256",
          "name": "eventoId",
          "type": "uint256"
        },
        {
          "indexed": false,
          "internalType": "address",
          "name": "apostador",
          "type": "address"
        },
        {
          "indexed": false,
          "internalType": "uint256",
          "name": "opcao",
          "type": "uint256"
        },
        {
          "indexed": false,
          "internalType": "uint256",
          "name": "valor",
          "type": "uint256"
        }
      ],
      "name": "ApostaFeita",
      "type": "event"
    },
    {
      "anonymous": false,
      "inputs": [
        {
          "indexed": false,
          "internalType": "uint256",
          "name": "id",
          "type": "uint256"
        },
        {
          "indexed": false,
          "internalType": "address",
          "name": "criador",
          "type": "address"
        },
        {
          "indexed": false,
          "internalType": "string[]",
          "name": "opcoes",
          "type": "string[]"
        },
        {
          "indexed": false,
          "internalType": "string",
          "name": "descricao",
          "type": "string"
        },
        {
          "indexed": false,
          "internalType": "uint256",
          "name": "prazo",
          "type": "uint256"
        }
      ],
      "name": "EventoCriado",
      "type": "event"
    },
    {
      "anonymous": false,
      "inputs": [
        {
          "indexed": false,
          "internalType": "uint256",
          "name": "eventoId",
          "type": "uint256"
        },
        {
          "indexed": false,
          "internalType": "uint256",
          "name": "resultado",
          "type": "uint256"
        }
      ],
      "name": "ResultadoDefinido",
      "type": "event"
    },
    {
      "inputs": [
        {
          "internalType": "uint256",
          "name": "",
          "type": "uint256"
        }
      ],
      "name": "eventos",
      "outputs": [
        {
          "internalType": "uint256",
          "name": "id",
          "type": "uint256"
        },
        {
          "internalType": "address",
          "name": "criador",
          "type": "address"
        },
        {
          "internalType": "string",
          "name": "descricao",
          "type": "string"
        },
        {
          "internalType": "uint256",
          "name": "prazo",
          "type": "uint256"
        },
        {
          "internalType": "bool",
          "name": "finalizado",
          "type": "bool"
        },
        {
          "internalType": "uint256",
          "name": "resultado",
          "type": "uint256"
        }
      ],
      "stateMutability": "view",
      "type": "function",
      "constant": true
    },
    {
      "inputs": [],
      "name": "proximoIdEvento",
      "outputs": [
        {
          "internalType": "uint256",
          "name": "",
          "type": "uint256"
        }
      ],
      "stateMutability": "view",
      "type": "function",
      "constant": true
    },
    {
      "inputs": [
        {
          "internalType": "address",
          "name": "",
          "type": "address"
        }
      ],
      "name": "saldos",
      "outputs": [
        {
          "internalType": "uint256",
          "name": "",
          "type": "uint256"
        }
      ],
      "stateMutability": "view",
      "type": "function",
      "constant": true
    },
    {
      "inputs": [
        {
          "internalType": "uint256",
          "name": "eventoId",
          "type": "uint256"
        }
      ],
      "name": "getOpcoes",
      "outputs": [
        {
          "internalType": "string[]",
          "name": "",
          "type": "string[]"
        }
      ],
      "stateMutability": "view",
      "type": "function",
      "constant": true
    },
    {
      "inputs": [
        {
          "internalType": "string",
          "name": "descricao",
          "type": "string"
        },
        {
          "internalType": "string[]",
          "name": "opcoes",
          "type": "string[]"
        },
        {
          "internalType": "uint256",
          "name": "prazo",
          "type": "uint256"
        }
      ],
      "name": "criarEvento",
      "outputs": [],
      "stateMutability": "nonpayable",
      "type": "function"
    },
    {
      "inputs": [
        {
          "internalType": "uint256",
          "name": "eventoId",
          "type": "uint256"
        },
        {
          "internalType": "uint256",
          "name": "opcao",
          "type": "uint256"
        }
      ],
      "name": "apostar",
      "outputs": [],
      "stateMutability": "payable",
      "type": "function",
      "payable": true
    },
    {
      "inputs": [
        {
          "internalType": "uint256",
          "name": "eventoId",
          "type": "uint256"
        },
        {
          "internalType": "uint256",
          "name": "resultado",
          "type": "uint256"
        }
      ],
      "name": "definirResultado",
      "outputs": [],
      "stateMutability": "nonpayable",
      "type": "function"
    },
    {
      "inputs": [],
      "name": "sacarSaldo",
      "outputs": [],
      "stateMutability": "nonpayable",
      "type": "function"
    }
  ],
  "bytecode": "0x608060405234801561000f575f80fd5b50611cbb8061001d5f395ff3fe60806040526004361061007a575f3560e01c8063bae978471161004d578063bae9784714610139578063c2c0c5121461014f578063c68c06121461018b578063f2f6da3e146101c75761007a565b8063011617661461007e578063087e9d0f146100a857806342072b00146100e95780636521e7df14610111575b5f80fd5b348015610089575f80fd5b506100926101e3565b60405161009f9190610d11565b60405180910390f35b3480156100b3575f80fd5b506100ce60048036038101906100c99190610d65565b6101e8565b6040516100e096959493929190610e73565b60405180910390f35b3480156100f4575f80fd5b5061010f600480360381019061010a9190610ed9565b6102d1565b005b34801561011c575f80fd5b5061013760048036038101906101329190611125565b61065a565b005b348015610144575f80fd5b5061014d6107d0565b005b34801561015a575f80fd5b5061017560048036038101906101709190610d65565b6108dc565b60405161018291906112b0565b60405180910390f35b348015610196575f80fd5b506101b160048036038101906101ac91906112fa565b6109c4565b6040516101be9190610d11565b60405180910390f35b6101e160048036038101906101dc9190610ed9565b6109d9565b005b5f5481565b6001602052805f5260405f205f91509050805f015490806001015f9054906101000a900473ffffffffffffffffffffffffffffffffffffffff169080600201805461023290611352565b80601f016020809104026020016040519081016040528092919081815260200182805461025e90611352565b80156102a95780601f10610280576101008083540402835291602001916102a9565b820191905f5260205f20905b81548152906001019060200180831161028c57829003601f168201915b505050505090806004015490806005015f9054906101000a900460ff16908060060154905086565b5f60015f8481526020019081526020015f209050806001015f9054906101000a900473ffffffffffffffffffffffffffffffffffffffff1673ffffffffffffffffffffffffffffffffffffffff163373ffffffffffffffffffffffffffffffffffffffff1614610376576040517f08c379a000000000000000000000000000000000000000000000000000000000815260040161036d906113f2565b60405180910390fd5b80600401544210156103bd576040517f08c379a00000000000000000000000000000000000000000000000000000000081526004016103b49061145a565b60405180910390fd5b806005015f9054906101000a900460ff161561040e576040517f08c379a0000000000000000000000000000000000000000000000000000000008152600401610405906114c2565b60405180910390fd5b80600301805490508210610457576040517f08c379a000000000000000000000000000000000000000000000000000000000815260040161044e9061152a565b60405180910390fd5b8181600601819055506001816005015f6101000a81548160ff0219169083151502179055505f816007015f8481526020019081526020015f205490505f81111561061b575f5b8260090180549050811015610619575f8360090182815481106104c3576104c2611548565b5b905f5260205f20015f9054906101000a900473ffffffffffffffffffffffffffffffffffffffff1690505f846008015f8373ffffffffffffffffffffffffffffffffffffffff1673ffffffffffffffffffffffffffffffffffffffff1681526020019081526020015f205490505f8111801561057d575085856008015f8473ffffffffffffffffffffffffffffffffffffffff1673ffffffffffffffffffffffffffffffffffffffff1681526020019081526020015f2054145b15610604575f856007015f8881526020019081526020015f205485836105a391906115a2565b6105ad9190611610565b90508060025f8573ffffffffffffffffffffffffffffffffffffffff1673ffffffffffffffffffffffffffffffffffffffff1681526020019081526020015f205f8282546105fb9190611640565b92505081905550505b5050808061061190611673565b91505061049d565b505b7fd755ef8acdf9a898244f61a5ebfcf653e1916ae9073a96003fba8f60ac6e0b3c848460405161064c9291906116ba565b60405180910390a150505050565b600182511161069e576040517f08c379a00000000000000000000000000000000000000000000000000000000081526004016106959061172b565b60405180910390fd5b4281116106e0576040517f08c379a00000000000000000000000000000000000000000000000000000000081526004016106d790611793565b60405180910390fd5b5f60015f805481526020019081526020015f2090505f54815f018190555033816001015f6101000a81548173ffffffffffffffffffffffffffffffffffffffff021916908373ffffffffffffffffffffffffffffffffffffffff16021790555083816002019081610751919061194e565b508281600301908051906020019061076a929190610c27565b508181600401819055507f213389403211e2d8f09e41f6f892e95c3853d6b428f9ff25630a765d88d6b0725f54338587866040516107ac959493929190611a1d565b60405180910390a15f808154809291906107c590611673565b919050555050505050565b5f60025f3373ffffffffffffffffffffffffffffffffffffffff1673ffffffffffffffffffffffffffffffffffffffff1681526020019081526020015f205490505f8111610853576040517f08c379a000000000000000000000000000000000000000000000000000000000815260040161084a90611ac6565b60405180910390fd5b5f60025f3373ffffffffffffffffffffffffffffffffffffffff1673ffffffffffffffffffffffffffffffffffffffff1681526020019081526020015f20819055503373ffffffffffffffffffffffffffffffffffffffff166108fc8290811502906040515f60405180830381858888f193505050501580156108d8573d5f803e3d5ffd5b5050565b606060015f8381526020019081526020015f20600301805480602002602001604051908101604052809291908181526020015f905b828210156109b9578382905f5260205f2001805461092e90611352565b80601f016020809104026020016040519081016040528092919081815260200182805461095a90611352565b80156109a55780601f1061097c576101008083540402835291602001916109a5565b820191905f5260205f20905b81548152906001019060200180831161098857829003601f168201915b505050505081526020019060010190610911565b505050509050919050565b6002602052805f5260405f205f915090505481565b5f3411610a1b576040517f08c379a0000000000000000000000000000000000000000000000000000000008152600401610a1290611b54565b60405180910390fd5b5f60015f8481526020019081526020015f20905080600401544210610a75576040517f08c379a0000000000000000000000000000000000000000000000000000000008152600401610a6c90611bbc565b60405180910390fd5b80600301805490508210610abe576040517f08c379a0000000000000000000000000000000000000000000000000000000008152600401610ab590611c24565b60405180910390fd5b34816007015f8481526020019081526020015f205f828254610ae09190611640565b925050819055505f816008015f3373ffffffffffffffffffffffffffffffffffffffff1673ffffffffffffffffffffffffffffffffffffffff1681526020019081526020015f205403610b90578060090133908060018154018082558091505060019003905f5260205f20015f9091909190916101000a81548173ffffffffffffffffffffffffffffffffffffffff021916908373ffffffffffffffffffffffffffffffffffffffff1602179055505b34816008015f3373ffffffffffffffffffffffffffffffffffffffff1673ffffffffffffffffffffffffffffffffffffffff1681526020019081526020015f205f828254610bde9190611640565b925050819055507f40ebda1cda22ef57268bfb5e0f5e01a536ad33b76d2dbc3ed8a760f6539d92aa83338434604051610c1a9493929190611c42565b60405180910390a1505050565b828054828255905f5260205f20908101928215610c6d579160200282015b82811115610c6c578251829081610c5c919061194e565b5091602001919060010190610c45565b5b509050610c7a9190610c7e565b5090565b5b80821115610c9d575f8181610c949190610ca1565b50600101610c7f565b5090565b508054610cad90611352565b5f825580601f10610cbe5750610cdb565b601f0160209004905f5260205f2090810190610cda9190610cde565b5b50565b5b80821115610cf5575f815f905550600101610cdf565b5090565b5f819050919050565b610d0b81610cf9565b82525050565b5f602082019050610d245f830184610d02565b92915050565b5f604051905090565b5f80fd5b5f80fd5b610d4481610cf9565b8114610d4e575f80fd5b50565b5f81359050610d5f81610d3b565b92915050565b5f60208284031215610d7a57610d79610d33565b5b5f610d8784828501610d51565b91505092915050565b5f73ffffffffffffffffffffffffffffffffffffffff82169050919050565b5f610db982610d90565b9050919050565b610dc981610daf565b82525050565b5f81519050919050565b5f82825260208201905092915050565b5f5b83811015610e06578082015181840152602081019050610deb565b5f8484015250505050565b5f601f19601f8301169050919050565b5f610e2b82610dcf565b610e358185610dd9565b9350610e45818560208601610de9565b610e4e81610e11565b840191505092915050565b5f8115159050919050565b610e6d81610e59565b82525050565b5f60c082019050610e865f830189610d02565b610e936020830188610dc0565b8181036040830152610ea58187610e21565b9050610eb46060830186610d02565b610ec16080830185610e64565b610ece60a0830184610d02565b979650505050505050565b5f8060408385031215610eef57610eee610d33565b5b5f610efc85828601610d51565b9250506020610f0d85828601610d51565b9150509250929050565b5f80fd5b5f80fd5b7f4e487b71000000000000000000000000000000000000000000000000000000005f52604160045260245ffd5b610f5582610e11565b810181811067ffffffffffffffff82111715610f7457610f73610f1f565b5b80604052505050565b5f610f86610d2a565b9050610f928282610f4c565b919050565b5f67ffffffffffffffff821115610fb157610fb0610f1f565b5b610fba82610e11565b9050602081019050919050565b828183375f83830152505050565b5f610fe7610fe284610f97565b610f7d565b90508281526020810184848401111561100357611002610f1b565b5b61100e848285610fc7565b509392505050565b5f82601f83011261102a57611029610f17565b5b813561103a848260208601610fd5565b91505092915050565b5f67ffffffffffffffff82111561105d5761105c610f1f565b5b602082029050602081019050919050565b5f80fd5b5f61108461107f84611043565b610f7d565b905080838252602082019050602084028301858111156110a7576110a661106e565b5b835b818110156110ee57803567ffffffffffffffff8111156110cc576110cb610f17565b5b8086016110d98982611016565b855260208501945050506020810190506110a9565b5050509392505050565b5f82601f83011261110c5761110b610f17565b5b813561111c848260208601611072565b91505092915050565b5f805f6060848603121561113c5761113b610d33565b5b5f84013567ffffffffffffffff81111561115957611158610d37565b5b61116586828701611016565b935050602084013567ffffffffffffffff81111561118657611185610d37565b5b611192868287016110f8565b92505060406111a386828701610d51565b9150509250925092565b5f81519050919050565b5f82825260208201905092915050565b5f819050602082019050919050565b5f82825260208201905092915050565b5f6111f082610dcf565b6111fa81856111d6565b935061120a818560208601610de9565b61121381610e11565b840191505092915050565b5f61122983836111e6565b905092915050565b5f602082019050919050565b5f611247826111ad565b61125181856111b7565b935083602082028501611263856111c7565b805f5b8581101561129e578484038952815161127f858261121e565b945061128a83611231565b925060208a01995050600181019050611266565b50829750879550505050505092915050565b5f6020820190508181035f8301526112c8818461123d565b905092915050565b6112d981610daf565b81146112e3575f80fd5b50565b5f813590506112f4816112d0565b92915050565b5f6020828403121561130f5761130e610d33565b5b5f61131c848285016112e6565b91505092915050565b7f4e487b71000000000000000000000000000000000000000000000000000000005f52602260045260245ffd5b5f600282049050600182168061136957607f821691505b60208210810361137c5761137b611325565b5b50919050565b7f536f6d656e7465206f2063726961646f7220706f646520646566696e6972206f5f8201527f20726573756c7461646f2e000000000000000000000000000000000000000000602082015250565b5f6113dc602b83610dd9565b91506113e782611382565b604082019050919050565b5f6020820190508181035f830152611409816113d0565b9050919050565b7f5072617a6f206e616f20656e6365727261646f2e0000000000000000000000005f82015250565b5f611444601483610dd9565b915061144f82611410565b602082019050919050565b5f6020820190508181035f83015261147181611438565b9050919050565b7f4576656e746f206a612066696e616c697a61646f2e00000000000000000000005f82015250565b5f6114ac601583610dd9565b91506114b782611478565b602082019050919050565b5f6020820190508181035f8301526114d9816114a0565b9050919050565b7f526573756c7461646f20696e76616c69646f2e000000000000000000000000005f82015250565b5f611514601383610dd9565b915061151f826114e0565b602082019050919050565b5f6020820190508181035f83015261154181611508565b9050919050565b7f4e487b71000000000000000000000000000000000000000000000000000000005f52603260045260245ffd5b7f4e487b71000000000000000000000000000000000000000000000000000000005f52601160045260245ffd5b5f6115ac82610cf9565b91506115b783610cf9565b92508282026115c581610cf9565b915082820484148315176115dc576115db611575565b5b5092915050565b7f4e487b71000000000000000000000000000000000000000000000000000000005f52601260045260245ffd5b5f61161a82610cf9565b915061162583610cf9565b925082611635576116346115e3565b5b828204905092915050565b5f61164a82610cf9565b915061165583610cf9565b925082820190508082111561166d5761166c611575565b5b92915050565b5f61167d82610cf9565b91507fffffffffffffffffffffffffffffffffffffffffffffffffffffffffffffffff82036116af576116ae611575565b5b600182019050919050565b5f6040820190506116cd5f830185610d02565b6116da6020830184610d02565b9392505050565b7f446576652068617665722070656c6f206d656e6f732032206f70636f65732e005f82015250565b5f611715601f83610dd9565b9150611720826116e1565b602082019050919050565b5f6020820190508181035f83015261174281611709565b9050919050565b7f5072617a6f206465766520736572206e6f2066757475726f2e000000000000005f82015250565b5f61177d601983610dd9565b915061178882611749565b602082019050919050565b5f6020820190508181035f8301526117aa81611771565b9050919050565b5f819050815f5260205f209050919050565b5f6020601f8301049050919050565b5f82821b905092915050565b5f6008830261180d7fffffffffffffffffffffffffffffffffffffffffffffffffffffffffffffffff826117d2565b61181786836117d2565b95508019841693508086168417925050509392505050565b5f819050919050565b5f61185261184d61184884610cf9565b61182f565b610cf9565b9050919050565b5f819050919050565b61186b83611838565b61187f61187782611859565b8484546117de565b825550505050565b5f90565b611893611887565b61189e818484611862565b505050565b5b818110156118c1576118b65f8261188b565b6001810190506118a4565b5050565b601f821115611906576118d7816117b1565b6118e0846117c3565b810160208510156118ef578190505b6119036118fb856117c3565b8301826118a3565b50505b505050565b5f82821c905092915050565b5f6119265f198460080261190b565b1980831691505092915050565b5f61193e8383611917565b9150826002028217905092915050565b61195782610dcf565b67ffffffffffffffff8111156119705761196f610f1f565b5b61197a8254611352565b6119858282856118c5565b5f60209050601f8311600181146119b6575f84156119a4578287015190505b6119ae8582611933565b865550611a15565b601f1984166119c4866117b1565b5f5b828110156119eb578489015182556001820191506020850194506020810190506119c6565b86831015611a085784890151611a04601f891682611917565b8355505b6001600288020188555050505b505050505050565b5f60a082019050611a305f830188610d02565b611a3d6020830187610dc0565b8181036040830152611a4f818661123d565b90508181036060830152611a638185610e21565b9050611a726080830184610d02565b9695505050505050565b7f53616c646f20696e737566696369656e74652e000000000000000000000000005f82015250565b5f611ab0601383610dd9565b9150611abb82611a7c565b602082019050919050565b5f6020820190508181035f830152611add81611aa4565b9050919050565b7f56616c6f722064612061706f737461206465766520736572206d61696f7220715f8201527f7565207a65726f2e000000000000000000000000000000000000000000000000602082015250565b5f611b3e602883610dd9565b9150611b4982611ae4565b604082019050919050565b5f6020820190508181035f830152611b6b81611b32565b9050919050565b7f41706f7374617320656e63657272616461732e000000000000000000000000005f82015250565b5f611ba6601383610dd9565b9150611bb182611b72565b602082019050919050565b5f6020820190508181035f830152611bd381611b9a565b9050919050565b7f4f7063616f20696e76616c6964612e00000000000000000000000000000000005f82015250565b5f611c0e600f83610dd9565b9150611c1982611bda565b602082019050919050565b5f6020820190508181035f830152611c3b81611c02565b9050919050565b5f608082019050611c555f830187610d02565b611c626020830186610dc0565b611c6f6040830185610d02565b611c7c6060830184610d02565b9594505050505056fea264697066735822122071ebcacbaf4475f043b30c712e6123df169756af194883553a37b2e3155dfc4d64736f6c63430008150033",
  "immutableReferences": {},
  "source": "// SPDX-License-Identifier: MIT\r\npragma solidity ^0.8.20;\r\n\r\ncontract CasaApostas {\r\n    struct Evento {\r\n        uint256 id;\r\n        address criador;\r\n        string descricao;\r\n        string[] opcoes; // Ex.: [\"Time A vence\", \"Time B vence\", \"Empate\"]\r\n        uint256 prazo;\r\n        bool finalizado;\r\n        uint256 resultado; // ndice da opo vencedora\r\n        mapping(uint256 => uint256) apostasPorOpcao; // Opo => Valor total apostado\r\n        mapping(address => uint256) apostasUsuario;  // Usurio => Valor apostado\r\n        address[] apostadores;\r\n    }\r\n\r\n    uint256 public proximoIdEvento;\r\n    mapping(uint256 => Evento) public eventos;\r\n    mapping(address => uint256) public saldos; // Saldo dos usurios no sistema\r\n\r\n    event EventoCriado(uint256 id, address criador,string[] opcoes, string descricao, uint256 prazo);\r\n    event ApostaFeita(uint256 eventoId, address apostador, uint256 opcao, uint256 valor);\r\n    event ResultadoDefinido(uint256 eventoId, uint256 resultado);\r\n\r\n    function getOpcoes(uint256 eventoId) public view returns (string[] memory) {\r\n        return eventos[eventoId].opcoes;\r\n    }\r\n    // Criar um evento de aposta\r\n   function criarEvento(string memory descricao, string[] memory opcoes, uint256 prazo) external {\r\n    require(opcoes.length > 1, \"Deve haver pelo menos 2 opcoes.\");\r\n    require(prazo > block.timestamp, \"Prazo deve ser no futuro.\");\r\n\r\n    Evento storage novoEvento = eventos[proximoIdEvento];\r\n    novoEvento.id = proximoIdEvento;\r\n    novoEvento.criador = msg.sender;\r\n    novoEvento.descricao = descricao;\r\n    novoEvento.opcoes = opcoes;\r\n    novoEvento.prazo = prazo;\r\n\r\n    emit EventoCriado(proximoIdEvento, msg.sender, opcoes, descricao, prazo);\r\n    proximoIdEvento++;\r\n}\r\n\r\n    // Apostar em um evento\r\n    function apostar(uint256 eventoId, uint256 opcao) external payable {\r\n        require(msg.value > 0, \"Valor da aposta deve ser maior que zero.\");\r\n        Evento storage evento = eventos[eventoId];\r\n        require(block.timestamp < evento.prazo, \"Apostas encerradas.\");\r\n        require(opcao < evento.opcoes.length, \"Opcao invalida.\");\r\n\r\n        evento.apostasPorOpcao[opcao] += msg.value;\r\n        if (evento.apostasUsuario[msg.sender] == 0) {\r\n            evento.apostadores.push(msg.sender);\r\n        }\r\n        evento.apostasUsuario[msg.sender] += msg.value;\r\n\r\n        emit ApostaFeita(eventoId, msg.sender, opcao, msg.value);\r\n    }\r\n\r\n    // Definir resultado de um evento\r\n    function definirResultado(uint256 eventoId, uint256 resultado) external {\r\n        Evento storage evento = eventos[eventoId];\r\n        require(msg.sender == evento.criador, \"Somente o criador pode definir o resultado.\");\r\n        require(block.timestamp >= evento.prazo, \"Prazo nao encerrado.\");\r\n        require(!evento.finalizado, \"Evento ja finalizado.\");\r\n        require(resultado < evento.opcoes.length, \"Resultado invalido.\");\r\n\r\n        evento.resultado = resultado;\r\n        evento.finalizado = true;\r\n\r\n        uint256 totalApostado = evento.apostasPorOpcao[resultado];\r\n        if (totalApostado > 0) {\r\n            // Somente distribuir para apostadores da opo vencedora\r\n            for (uint256 i = 0; i < evento.apostadores.length; i++) {\r\n                address apostador = evento.apostadores[i];\r\n                uint256 valorApostado = evento.apostasUsuario[apostador];\r\n                \r\n                // Verificar se o apostador apostou na opo vencedora\r\n                if (valorApostado > 0 && evento.apostasUsuario[apostador] == resultado) {\r\n                    uint256 premio = (valorApostado * totalApostado) / evento.apostasPorOpcao[resultado];\r\n                    saldos[apostador] += premio;\r\n                }\r\n            }\r\n}\r\n\r\n        emit ResultadoDefinido(eventoId, resultado);\r\n    }\r\n\r\n    // Sacar saldo\r\n    function sacarSaldo() external {\r\n        uint256 saldo = saldos[msg.sender];\r\n        require(saldo > 0, \"Saldo insuficiente.\");\r\n        saldos[msg.sender] = 0;\r\n        payable(msg.sender).transfer(saldo);\r\n    }\r\n}\r\n",
  "sourcePath": "C:\\Users\\thiag\\OneDrive\\Documentos\\Meus projetos\\MI-REDES-3\\projeto\\contracts\\casaApostas.sol",
  "compiler": {
    "name": "solc",
    "version": "0.8.21+commit.d9974bed.Emscripten.clang"
  },
  "schemaVersion": "3.4.16",
  "updatedAt": "2024-12-04T01:07:55.541Z",
  "networkType": "ethereum",
  "devdoc": {
    "kind": "dev",
    "methods": {},
    "version": 1
  },
  "userdoc": {
    "kind": "user",
    "methods": {},
    "version": 1
  }
}